{
  "contractName": "BacktestFinal",
  "abi": [
    {
      "constant": true,
      "inputs": [],
      "name": "name",
      "outputs": [
        {
          "name": "",
          "type": "bytes15"
        }
      ],
      "payable": false,
      "stateMutability": "view",
      "type": "function"
    },
    {
      "inputs": [],
      "payable": false,
      "stateMutability": "nonpayable",
      "type": "constructor"
    },
    {
      "anonymous": false,
      "inputs": [
        {
          "indexed": true,
          "name": "name",
          "type": "bytes15"
        },
        {
          "indexed": true,
          "name": "date",
          "type": "uint64"
        },
        {
          "indexed": false,
          "name": "stratVariation",
          "type": "int256"
        },
        {
          "indexed": false,
          "name": "stratPrice",
          "type": "uint64"
        },
        {
          "indexed": false,
          "name": "position",
          "type": "int8"
        },
        {
          "indexed": false,
          "name": "category",
          "type": "int8"
        }
      ],
      "name": "newRecord",
      "type": "event"
    },
    {
      "constant": false,
      "inputs": [
        {
          "name": "dates",
          "type": "uint64[]"
        },
        {
          "name": "prices",
          "type": "uint64[]"
        },
        {
          "name": "positions",
          "type": "int8[]"
        }
      ],
      "name": "batchbacktest",
      "outputs": [],
      "payable": false,
      "stateMutability": "nonpayable",
      "type": "function"
    },
    {
      "constant": false,
      "inputs": [
        {
          "name": "name",
          "type": "bytes15"
        },
        {
          "name": "strategyInitPrice",
          "type": "uint64"
        },
        {
          "name": "dates",
          "type": "uint64[]"
        },
        {
          "name": "prices",
          "type": "uint64[]"
        },
        {
          "name": "positions",
          "type": "int8[]"
        }
      ],
      "name": "libbatchbacktest",
      "outputs": [
        {
          "name": "",
          "type": "uint64"
        }
      ],
      "payable": false,
      "stateMutability": "nonpayable",
      "type": "function"
    }
  ],
  "bytecode": "0x608060405234801561001057600080fd5b507f4d756c746920312e3000000000000000000000000000000000000000000000006000806101000a8154816effffffffffffffffffffffffffffff021916908371010000000000000000000000000000000000900402179055506305f5e100600160020160006101000a81548167ffffffffffffffff021916908367ffffffffffffffff1602179055506106c6806100aa6000396000f300608060405260043610610057576000357c0100000000000000000000000000000000000000000000000000000000900463ffffffff16806306fdde031461005c57806399144f04146100af578063f1b5c91a1461019b575b600080fd5b34801561006857600080fd5b506100716102e1565b604051808270ffffffffffffffffffffffffffffffffff191670ffffffffffffffffffffffffffffffffff1916815260200191505060405180910390f35b3480156100bb57600080fd5b50610199600480360381019080803590602001908201803590602001908080602002602001604051908101604052809392919081815260200183836020028082843782019150505050505091929192908035906020019082018035906020019080806020026020016040519081016040528093929190818152602001838360200280828437820191505050505050919291929080359060200190820180359060200190808060200260200160405190810160405280939291908181526020018383602002808284378201915050505050509192919290505050610304565b005b3480156101a757600080fd5b506102b7600480360381019080803570ffffffffffffffffffffffffffffffffff19169060200190929190803567ffffffffffffffff169060200190929190803590602001908201803590602001908080602002602001604051908101604052809392919081815260200183836020028082843782019150505050505091929192908035906020019082018035906020019080806020026020016040519081016040528093929190818152602001838360200280828437820191505050505050919291929080359060200190820180359060200190808060200260200160405190810160405280939291908181526020018383602002808284378201915050505050509192919290505050610427565b604051808267ffffffffffffffff1667ffffffffffffffff16815260200191505060405180910390f35b6000809054906101000a9004710100000000000000000000000000000000000281565b60008060008351925082865114801561031d5750828551145b151561032857600080fd5b600160020160009054906101000a900467ffffffffffffffff1691506103706000809054906101000a9004710100000000000000000000000000000000000283888888610427565b9050836001840381518110151561038357fe5b90602001906020020151600160000160086101000a81548160ff021916908360000b60ff16021790555085600184038151811015156103be57fe5b90602001906020020151600160000160006101000a81548167ffffffffffffffff021916908367ffffffffffffffff16021790555080600160020160006101000a81548167ffffffffffffffff021916908367ffffffffffffffff160217905550505050505050565b600080600080879250600191505b86518260ff16101561057c576104a0866001840360ff1681518110151561045857fe5b90602001906020020151878460ff1681518110151561047357fe5b90602001906020020151876001860360ff1681518110151561049157fe5b9060200190602002015161058b565b90506104ac8184610644565b9250868260ff168151811015156104bf57fe5b9060200190602002015167ffffffffffffffff168970ffffffffffffffffffffffffffffffffff19167fac1a4603d0766446330cc8e5d3986fa112a6461e260fc9ed013065ac244f4c688386898760ff1681518110151561051c57fe5b906020019060200201516000604051808581526020018467ffffffffffffffff1667ffffffffffffffff1681526020018360000b60000b81526020018260000b815260200194505050505060405180910390a38180600101925050610435565b82935050505095945050505050565b60008060008360000b14156105a35760009050610639565b8467ffffffffffffffff168467ffffffffffffffff160390506d04ee2d6d415b85acef8100000000810290508467ffffffffffffffff16818115156105e457fe5b0590507fffffffffffffffffffffffffffffffffffffffffffffffffffffffffffffffff8360000b1415610638577fffffffffffffffffffffffffffffffffffffffffffffffffffffffffffffffff810290505b5b809150509392505050565b600080600084141561065857829150610693565b838367ffffffffffffffff160290506d04ee2d6d415b85acef81000000008181151561068057fe5b059050808367ffffffffffffffff160191505b50929150505600a165627a7a723058205d9cba8acdc4ce54d11028c8552c8bba7867f886a8a0a6d7bc02943adc9133100029",
  "source": "pragma solidity ^0.4.18;\n\ncontract BacktestFinal {\n\n    bytes15 public name;\n\n    struct StrategyExplicitexplicitState {\n      uint64 date;\n      int8 position;\n      int256 variation;\n      uint64 price;\n      int8 category;\n    }\n\n    StrategyExplicitexplicitState explicitState;\n\n    event newRecord(bytes15 indexed name, uint64 indexed date, int256 stratVariation, uint64 stratPrice, int8 position,int8 category);\n\n\n    function BacktestFinal(){\n        name = \"Multi 1.0\";\n        explicitState.price =100000000;\n    }\n    // that backtesting function requires that the strategy explicitState be at the date matching\n    // the beginning of the array date\n    function batchbacktest(uint64[]dates, uint64[] prices, int8[] positions) public {\n      uint batchlength = positions.length;\n      require(dates.length==batchlength && prices.length==batchlength);\n\n      uint64 strategyInitPrice = explicitState.price;\n\n      uint64 strategyPrice = libbatchbacktest(name,strategyInitPrice,dates,prices,positions);\n\n      explicitState.position = positions[batchlength-1];\n      explicitState.date = dates[batchlength-1];\n      explicitState.price = strategyPrice;\n  \t}\n\n    function libbatchbacktest(bytes15 name, uint64 strategyInitPrice, uint64[]dates, uint64[] prices, int8[] positions) public returns (uint64) {\n         uint64 strategyPrice = strategyInitPrice;\n\n         for(uint8 i=1; i<dates.length; i++){\n\n             int256 variation = calVariation(prices[i-1], prices[i], positions[i-1]);\n             strategyPrice = calValue(variation, strategyPrice);\n\n             emit newRecord(name,dates[i],variation, strategyPrice, positions[i],0);\n         }\n         return strategyPrice;\n   }\n\n   /*------------------------------------------------------------------------\nCompute the variation of price of index according to the last position EOD\n----Arguments:\n       pxPre : price of precedent open dat\n       pxCur : price EOD\n       lastPosit : last position EOD\n----Return:\n       (pxCur/pxPre)^(lastPosit)-1\n-------------------------------------------------------------------------*/\n  function calVariation(uint64 pxPre, uint64 pxCur, int8 lastPosit) internal returns (int256 ){\n     int256 variation;\n     if(lastPosit==0){\n         variation = 0;\n     }\n     else{\n         variation = int256(pxCur) - int256(pxPre);\n         variation *= 1e32;\n         variation /=  pxPre;\n         if(lastPosit==-1){\n             variation *=-1;\n         }\n     }\n     return variation;\n  }\n\n  /*------------------------------------------------------------------------\n  Compute the algo value EOD for some index\n  ----Arguments:\n     variation : the variation of algo index value\n     lastValue : last algo value EOD\n  ----Return :\n     lastValue*(1+variation)\n  --------------------------------------------------------------------------*/\n  function calValue(int256 variation, uint64 lastValue) internal returns (uint64){\n     if(variation==0) return lastValue;\n     else {\n         int256 delta = int256(lastValue) * variation;\n         delta/=1e32;\n         return uint64(int256(lastValue) +delta);\n     }\n  }\n\n}\n",
  "sourcePath": "/home/sduprey/My_TruffleProjects/Decentralized_Orderbook/contracts/BacktestFinal.sol",
  "compiler": {
    "name": "solc",
    "version": "0.4.23+commit.124ca40d.Emscripten.clang"
  },
  "schemaVersion": "2.0.0",
  "updatedAt": "2018-05-03T07:57:27.825Z"
}