{
  "contractName": "BlockchainSpeaker",
  "abi": [
    {
      "constant": true,
      "inputs": [],
      "name": "owner",
      "outputs": [
        {
          "name": "",
          "type": "address"
        }
      ],
      "payable": false,
      "stateMutability": "view",
      "type": "function"
    },
    {
      "inputs": [
        {
          "name": "_token",
          "type": "address"
        },
        {
          "name": "_name",
          "type": "string"
        }
      ],
      "payable": false,
      "stateMutability": "nonpayable",
      "type": "constructor"
    },
    {
      "constant": false,
      "inputs": [
        {
          "name": "strategyName",
          "type": "string"
        }
      ],
      "name": "addStrategy",
      "outputs": [],
      "payable": false,
      "stateMutability": "nonpayable",
      "type": "function"
    },
    {
      "constant": false,
      "inputs": [
        {
          "name": "tokenName",
          "type": "address"
        }
      ],
      "name": "addToken",
      "outputs": [],
      "payable": false,
      "stateMutability": "nonpayable",
      "type": "function"
    },
    {
      "constant": false,
      "inputs": [
        {
          "name": "strategyName",
          "type": "string"
        },
        {
          "name": "tokenName",
          "type": "address"
        }
      ],
      "name": "addTokenAndStrategy",
      "outputs": [],
      "payable": false,
      "stateMutability": "nonpayable",
      "type": "function"
    },
    {
      "constant": true,
      "inputs": [],
      "name": "getNumberRegisteredStrategies",
      "outputs": [
        {
          "name": "",
          "type": "uint256"
        }
      ],
      "payable": false,
      "stateMutability": "view",
      "type": "function"
    },
    {
      "constant": true,
      "inputs": [],
      "name": "getNumberRegisteredTokens",
      "outputs": [
        {
          "name": "",
          "type": "uint256"
        }
      ],
      "payable": false,
      "stateMutability": "view",
      "type": "function"
    }
  ],
  "bytecode": "0x608060405234801561001057600080fd5b5060405161066e38038061066e833981018060405281019080805190602001909291908051820192919050505081600160006101000a81548173ffffffffffffffffffffffffffffffffffffffff021916908373ffffffffffffffffffffffffffffffffffffffff160217905550806002908051906020019061009492919061009c565b505050610141565b828054600181600116156101000203166002900490600052602060002090601f016020900481019282601f106100dd57805160ff191683800117855561010b565b8280016001018555821561010b579182015b8281111561010a5782518255916020019190600101906100ef565b5b509050610118919061011c565b5090565b61013e91905b8082111561013a576000816000905550600101610122565b5090565b90565b61051e806101506000396000f300608060405260043610610078576000357c0100000000000000000000000000000000000000000000000000000000900463ffffffff16806319941bdd1461007d578063492f6e4f146100a85780638da5cb5b146100d3578063cda9d63a1461012a578063d48bfca714610193578063fb310c66146101d6575b600080fd5b34801561008957600080fd5b5061009261025f565b6040518082815260200191505060405180910390f35b3480156100b457600080fd5b506100bd61026c565b6040518082815260200191505060405180910390f35b3480156100df57600080fd5b506100e8610279565b604051808273ffffffffffffffffffffffffffffffffffffffff1673ffffffffffffffffffffffffffffffffffffffff16815260200191505060405180910390f35b34801561013657600080fd5b50610191600480360381019080803590602001908201803590602001908080601f016020809104026020016040519081016040528093929190818152602001838380828437820191505050505050919291929050505061029e565b005b34801561019f57600080fd5b506101d4600480360381019080803573ffffffffffffffffffffffffffffffffffffffff1690602001909291905050506102e0565b005b3480156101e257600080fd5b5061025d600480360381019080803590602001908201803590602001908080601f0160208091040260200160405190810160405280939291908181526020018383808284378201915050505050509192919290803573ffffffffffffffffffffffffffffffffffffffff169060200190929190505050610349565b005b6000600480549050905090565b6000600380549050905090565b6000809054906101000a900473ffffffffffffffffffffffffffffffffffffffff1681565b60038190806001815401808255809150509060018203906000526020600020016000909192909190915090805190602001906102db92919061044d565b505050565b60048190806001815401808255809150509060018203906000526020600020016000909192909190916101000a81548173ffffffffffffffffffffffffffffffffffffffff021916908373ffffffffffffffffffffffffffffffffffffffff1602179055505050565b6000809054906101000a900473ffffffffffffffffffffffffffffffffffffffff1673ffffffffffffffffffffffffffffffffffffffff163373ffffffffffffffffffffffffffffffffffffffff161415156103a457600080fd5b60038290806001815401808255809150509060018203906000526020600020016000909192909190915090805190602001906103e192919061044d565b505060048190806001815401808255809150509060018203906000526020600020016000909192909190916101000a81548173ffffffffffffffffffffffffffffffffffffffff021916908373ffffffffffffffffffffffffffffffffffffffff160217905550505050565b828054600181600116156101000203166002900490600052602060002090601f016020900481019282601f1061048e57805160ff19168380011785556104bc565b828001600101855582156104bc579182015b828111156104bb5782518255916020019190600101906104a0565b5b5090506104c991906104cd565b5090565b6104ef91905b808211156104eb5760008160009055506001016104d3565b5090565b905600a165627a7a723058204ff95e2cea605ea640c481f370ed0a9f344a4ee9b9801f77a1f6d51dff10b3fa0029",
  "source": "pragma solidity ^0.4.18;\n\n\ncontract BlockchainSpeaker{\n\n    address public owner;\n    address token;\n    string name;\n    string[] strategies;\n    address[] tokens;\n\n    modifier onlyOwner(){\n        require(msg.sender==owner);\n        _;\n    }\n\n    function BlockchainSpeaker(address _token, string _name){\n        token = _token;\n        name = _name;\n    }\n\n    function addStrategy(string strategyName) {\n      strategies.push(strategyName);\n    }\n\n    function addToken(address tokenName) {\n      tokens.push(tokenName);\n    }\n\n    function addTokenAndStrategy(string strategyName,address tokenName) onlyOwner {\n      strategies.push(strategyName);\n      tokens.push(tokenName);\n    }\n\n    function getNumberRegisteredStrategies() public constant returns (uint) {\n      return(strategies.length);\n    }\n\n    function getNumberRegisteredTokens() public constant returns (uint) {\n      return(tokens.length);\n    }\n\n}\n",
  "sourcePath": "/home/sduprey/My_TruffleProjects/Decentralized_Orderbook/contracts/BlockchainSpeaker.sol",
  "compiler": {
    "name": "solc",
    "version": "0.4.23+commit.124ca40d.Emscripten.clang"
  },
  "schemaVersion": "2.0.0",
  "updatedAt": "2018-04-27T09:58:03.811Z"
}