{
  "contractName": "BlockchainSpeaker",
  "abi": [
    {
      "constant": true,
      "inputs": [],
      "name": "owner",
      "outputs": [
        {
          "name": "",
          "type": "address"
        }
      ],
      "payable": false,
      "stateMutability": "view",
      "type": "function"
    },
    {
      "inputs": [
        {
          "name": "_token",
          "type": "address"
        },
        {
          "name": "_name",
          "type": "string"
        }
      ],
      "payable": false,
      "stateMutability": "nonpayable",
      "type": "constructor"
    },
    {
      "constant": false,
      "inputs": [
        {
          "name": "strategyName",
          "type": "string"
        }
      ],
      "name": "addStrategy",
      "outputs": [],
      "payable": false,
      "stateMutability": "nonpayable",
      "type": "function"
    },
    {
      "constant": false,
      "inputs": [
        {
          "name": "tokenName",
          "type": "address"
        }
      ],
      "name": "addToken",
      "outputs": [],
      "payable": false,
      "stateMutability": "nonpayable",
      "type": "function"
    },
    {
      "constant": false,
      "inputs": [
        {
          "name": "strategyName",
          "type": "string"
        },
        {
          "name": "tokenName",
          "type": "address"
        }
      ],
      "name": "addTokenAndStrategy",
      "outputs": [],
      "payable": false,
      "stateMutability": "nonpayable",
      "type": "function"
    },
    {
      "constant": true,
      "inputs": [],
      "name": "getNumberRegisteredStrategies",
      "outputs": [
        {
          "name": "",
          "type": "uint256"
        }
      ],
      "payable": false,
      "stateMutability": "view",
      "type": "function"
    },
    {
      "constant": true,
      "inputs": [],
      "name": "getNumberRegisteredTokens",
      "outputs": [
        {
          "name": "",
          "type": "uint256"
        }
      ],
      "payable": false,
      "stateMutability": "view",
      "type": "function"
    }
  ],
  "bytecode": "0x6060604052341561000f57600080fd5b6040516106fc3803806106fc8339810160405280805190602001909190805182019190505081600160006101000a81548173ffffffffffffffffffffffffffffffffffffffff021916908373ffffffffffffffffffffffffffffffffffffffff160217905550806002908051906020019061008b929190610093565b505050610138565b828054600181600116156101000203166002900490600052602060002090601f016020900481019282601f106100d457805160ff1916838001178555610102565b82800160010185558215610102579182015b828111156101015782518255916020019190600101906100e6565b5b50905061010f9190610113565b5090565b61013591905b80821115610131576000816000905550600101610119565b5090565b90565b6105b5806101476000396000f300606060405260043610610078576000357c0100000000000000000000000000000000000000000000000000000000900463ffffffff16806319941bdd1461007d578063492f6e4f146100a65780638da5cb5b146100cf578063cda9d63a14610124578063d48bfca714610181578063fb310c66146101ba575b600080fd5b341561008857600080fd5b610090610236565b6040518082815260200191505060405180910390f35b34156100b157600080fd5b6100b9610243565b6040518082815260200191505060405180910390f35b34156100da57600080fd5b6100e2610250565b604051808273ffffffffffffffffffffffffffffffffffffffff1673ffffffffffffffffffffffffffffffffffffffff16815260200191505060405180910390f35b341561012f57600080fd5b61017f600480803590602001908201803590602001908080601f01602080910402602001604051908101604052809392919081815260200183838082843782019150505050505091905050610275565b005b341561018c57600080fd5b6101b8600480803573ffffffffffffffffffffffffffffffffffffffff169060200190919050506102b4565b005b34156101c557600080fd5b610234600480803590602001908201803590602001908080601f0160208091040260200160405190810160405280939291908181526020018383808284378201915050505050509190803573ffffffffffffffffffffffffffffffffffffffff1690602001909190505061031a565b005b6000600480549050905090565b6000600380549050905090565b6000809054906101000a900473ffffffffffffffffffffffffffffffffffffffff1681565b600380548060010182816102899190610418565b9160005260206000209001600083909190915090805190602001906102af929190610444565b505050565b600480548060010182816102c891906104c4565b9160005260206000209001600083909190916101000a81548173ffffffffffffffffffffffffffffffffffffffff021916908373ffffffffffffffffffffffffffffffffffffffff1602179055505050565b6000809054906101000a900473ffffffffffffffffffffffffffffffffffffffff1673ffffffffffffffffffffffffffffffffffffffff163373ffffffffffffffffffffffffffffffffffffffff1614151561037557600080fd5b600380548060010182816103899190610418565b9160005260206000209001600084909190915090805190602001906103af929190610444565b5050600480548060010182816103c591906104c4565b9160005260206000209001600083909190916101000a81548173ffffffffffffffffffffffffffffffffffffffff021916908373ffffffffffffffffffffffffffffffffffffffff160217905550505050565b81548183558181151161043f5781836000526020600020918201910161043e91906104f0565b5b505050565b828054600181600116156101000203166002900490600052602060002090601f016020900481019282601f1061048557805160ff19168380011785556104b3565b828001600101855582156104b3579182015b828111156104b2578251825591602001919060010190610497565b5b5090506104c0919061051c565b5090565b8154818355818115116104eb578183600052602060002091820191016104ea919061051c565b5b505050565b61051991905b80821115610515576000818161050c9190610541565b506001016104f6565b5090565b90565b61053e91905b8082111561053a576000816000905550600101610522565b5090565b90565b50805460018160011615610100020316600290046000825580601f106105675750610586565b601f016020900490600052602060002090810190610585919061051c565b5b505600a165627a7a723058203dbde2372d153527c72e41083efff6984d2d1122d5b741331de232d90cc4f0fb0029",
  "source": "pragma solidity ^0.4.18;\n\n\ncontract BlockchainSpeaker{\n\n    address public owner;\n    address token;\n    string name;\n    string[] strategies;\n    address[] tokens;\n\n    modifier onlyOwner(){\n        require(msg.sender==owner);\n        _;\n    }\n\n    function BlockchainSpeaker(address _token, string _name){\n        token = _token;\n        name = _name;\n    }\n\n    function addStrategy(string strategyName) {\n      strategies.push(strategyName);\n    }\n\n    function addToken(address tokenName) {\n      tokens.push(tokenName);\n    }\n\n    function addTokenAndStrategy(string strategyName,address tokenName) onlyOwner {\n      strategies.push(strategyName);\n      tokens.push(tokenName);\n    }\n\n    function getNumberRegisteredStrategies() public constant returns (uint) {\n      return(strategies.length);\n    }\n\n    function getNumberRegisteredTokens() public constant returns (uint) {\n      return(tokens.length);\n    }\n\n}\n",
  "sourcePath": "/home/sduprey/My_Truffle_Project/Decentralized_Orderbook/contracts/BlockchainSpeaker.sol",
  "compiler": {
    "name": "solc",
    "version": "0.4.19+commit.c4cbbb05.Emscripten.clang"
  },
  "schemaVersion": "1.0.1",
  "updatedAt": "2018-04-23T13:45:00.523Z"
}