{
  "contractName": "BlockchainSpeaker",
  "abi": [
    {
      "inputs": [
        {
          "name": "_token",
          "type": "address"
        },
        {
          "name": "_name",
          "type": "string"
        }
      ],
      "payable": false,
      "stateMutability": "nonpayable",
      "type": "constructor"
    },
    {
      "constant": false,
      "inputs": [
        {
          "name": "strategyName",
          "type": "string"
        }
      ],
      "name": "addStrategy",
      "outputs": [],
      "payable": false,
      "stateMutability": "nonpayable",
      "type": "function"
    },
    {
      "constant": false,
      "inputs": [
        {
          "name": "tokenName",
          "type": "address"
        }
      ],
      "name": "addToken",
      "outputs": [],
      "payable": false,
      "stateMutability": "nonpayable",
      "type": "function"
    }
  ],
  "bytecode": "0x6060604052341561000f57600080fd5b60405161046f38038061046f83398101604052808051906020019091908051820191905050816000806101000a81548173ffffffffffffffffffffffffffffffffffffffff021916908373ffffffffffffffffffffffffffffffffffffffff160217905550806001908051906020019061008a929190610092565b505050610137565b828054600181600116156101000203166002900490600052602060002090601f016020900481019282601f106100d357805160ff1916838001178555610101565b82800160010185558215610101579182015b828111156101005782518255916020019190600101906100e5565b5b50905061010e9190610112565b5090565b61013491905b80821115610130576000816000905550600101610118565b5090565b90565b610329806101466000396000f30060606040526004361061004c576000357c0100000000000000000000000000000000000000000000000000000000900463ffffffff168063cda9d63a14610051578063d48bfca7146100ae575b600080fd5b341561005c57600080fd5b6100ac600480803590602001908201803590602001908080601f016020809104026020016040519081016040528093929190818152602001838380828437820191505050505050919050506100e7565b005b34156100b957600080fd5b6100e5600480803573ffffffffffffffffffffffffffffffffffffffff16906020019091905050610126565b005b600280548060010182816100fb919061018c565b9160005260206000209001600083909190915090805190602001906101219291906101b8565b505050565b6003805480600101828161013a9190610238565b9160005260206000209001600083909190916101000a81548173ffffffffffffffffffffffffffffffffffffffff021916908373ffffffffffffffffffffffffffffffffffffffff1602179055505050565b8154818355818115116101b3578183600052602060002091820191016101b29190610264565b5b505050565b828054600181600116156101000203166002900490600052602060002090601f016020900481019282601f106101f957805160ff1916838001178555610227565b82800160010185558215610227579182015b8281111561022657825182559160200191906001019061020b565b5b5090506102349190610290565b5090565b81548183558181151161025f5781836000526020600020918201910161025e9190610290565b5b505050565b61028d91905b80821115610289576000818161028091906102b5565b5060010161026a565b5090565b90565b6102b291905b808211156102ae576000816000905550600101610296565b5090565b90565b50805460018160011615610100020316600290046000825580601f106102db57506102fa565b601f0160209004906000526020600020908101906102f99190610290565b5b505600a165627a7a7230582035b0a839899acf93ac3b14650c75c18c5b5d62d48a02da908230229ca22eefd60029",
  "source": "pragma solidity ^0.4.18;\n\nimport \"./SlotManager.sol\";\nimport \"./TradingToken.sol\";\n\ncontract BlockchainSpeaker{\n\n    address token;\n    string name;\n    string[] strategies;\n    address[] tokens;\n\n    function BlockchainSpeaker(address _token, string _name){\n        token = _token;\n        name = _name;\n    }\n\n    function addStrategy(string strategyName) {\n      strategies.push(strategyName);\n    }\n\n    function addToken(address tokenName) {\n      tokens.push(tokenName);\n    }\n\n\n}\n",
  "sourcePath": "/home/sduprey/My_Truffle_Project/Decentralized_Orderbook/contracts/BlockchainSpeaker.sol",
  "compiler": {
    "name": "solc",
    "version": "0.4.19+commit.c4cbbb05.Emscripten.clang"
  },
  "schemaVersion": "1.0.1",
  "updatedAt": "2018-04-23T08:10:40.630Z"
}