{
  "contractName": "BlockchainSpeaker",
  "abi": [
    {
      "inputs": [
        {
          "name": "_token",
          "type": "address"
        },
        {
          "name": "_name",
          "type": "string"
        }
      ],
      "payable": false,
      "stateMutability": "nonpayable",
      "type": "constructor"
    },
    {
      "constant": false,
      "inputs": [
        {
          "name": "strategyName",
          "type": "string"
        }
      ],
      "name": "addStrategy",
      "outputs": [],
      "payable": false,
      "stateMutability": "nonpayable",
      "type": "function"
    },
    {
      "constant": false,
      "inputs": [
        {
          "name": "tokenName",
          "type": "address"
        }
      ],
      "name": "addToken",
      "outputs": [],
      "payable": false,
      "stateMutability": "nonpayable",
      "type": "function"
    },
    {
      "constant": false,
      "inputs": [
        {
          "name": "strategyName",
          "type": "string"
        },
        {
          "name": "tokenName",
          "type": "address"
        }
      ],
      "name": "addTokenAndStrategy",
      "outputs": [],
      "payable": false,
      "stateMutability": "nonpayable",
      "type": "function"
    },
    {
      "constant": true,
      "inputs": [],
      "name": "getNumberRegisteredStrategies",
      "outputs": [
        {
          "name": "",
          "type": "uint256"
        }
      ],
      "payable": false,
      "stateMutability": "view",
      "type": "function"
    },
    {
      "constant": true,
      "inputs": [],
      "name": "getNumberRegisteredTokens",
      "outputs": [
        {
          "name": "",
          "type": "uint256"
        }
      ],
      "payable": false,
      "stateMutability": "view",
      "type": "function"
    }
  ],
  "bytecode": "0x6060604052341561000f57600080fd5b60405161061b38038061061b83398101604052808051906020019091908051820191905050816000806101000a81548173ffffffffffffffffffffffffffffffffffffffff021916908373ffffffffffffffffffffffffffffffffffffffff160217905550806001908051906020019061008a929190610092565b505050610137565b828054600181600116156101000203166002900490600052602060002090601f016020900481019282601f106100d357805160ff1916838001178555610101565b82800160010185558215610101579182015b828111156101005782518255916020019190600101906100e5565b5b50905061010e9190610112565b5090565b61013491905b80821115610130576000816000905550600101610118565b5090565b90565b6104d5806101466000396000f30060606040526004361061006d576000357c0100000000000000000000000000000000000000000000000000000000900463ffffffff16806319941bdd14610072578063492f6e4f1461009b578063cda9d63a146100c4578063d48bfca714610121578063fb310c661461015a575b600080fd5b341561007d57600080fd5b6100856101d6565b6040518082815260200191505060405180910390f35b34156100a657600080fd5b6100ae6101e3565b6040518082815260200191505060405180910390f35b34156100cf57600080fd5b61011f600480803590602001908201803590602001908080601f016020809104026020016040519081016040528093929190818152602001838380828437820191505050505050919050506101f0565b005b341561012c57600080fd5b610158600480803573ffffffffffffffffffffffffffffffffffffffff1690602001909190505061022f565b005b341561016557600080fd5b6101d4600480803590602001908201803590602001908080601f0160208091040260200160405190810160405280939291908181526020018383808284378201915050505050509190803573ffffffffffffffffffffffffffffffffffffffff16906020019091905050610295565b005b6000600380549050905090565b6000600280549050905090565b600280548060010182816102049190610338565b91600052602060002090016000839091909150908051906020019061022a929190610364565b505050565b6003805480600101828161024391906103e4565b9160005260206000209001600083909190916101000a81548173ffffffffffffffffffffffffffffffffffffffff021916908373ffffffffffffffffffffffffffffffffffffffff1602179055505050565b600280548060010182816102a99190610338565b9160005260206000209001600084909190915090805190602001906102cf929190610364565b5050600380548060010182816102e591906103e4565b9160005260206000209001600083909190916101000a81548173ffffffffffffffffffffffffffffffffffffffff021916908373ffffffffffffffffffffffffffffffffffffffff160217905550505050565b81548183558181151161035f5781836000526020600020918201910161035e9190610410565b5b505050565b828054600181600116156101000203166002900490600052602060002090601f016020900481019282601f106103a557805160ff19168380011785556103d3565b828001600101855582156103d3579182015b828111156103d25782518255916020019190600101906103b7565b5b5090506103e0919061043c565b5090565b81548183558181151161040b5781836000526020600020918201910161040a919061043c565b5b505050565b61043991905b80821115610435576000818161042c9190610461565b50600101610416565b5090565b90565b61045e91905b8082111561045a576000816000905550600101610442565b5090565b90565b50805460018160011615610100020316600290046000825580601f1061048757506104a6565b601f0160209004906000526020600020908101906104a5919061043c565b5b505600a165627a7a723058201597a33d576b0354a9e70094c72523e5079a8ba44f217f2ce19bbaaea99341d50029",
  "source": "pragma solidity ^0.4.18;\n\n\ncontract BlockchainSpeaker{\n\n    address token;\n    string name;\n    string[] strategies;\n    address[] tokens;\n\n    function BlockchainSpeaker(address _token, string _name){\n        token = _token;\n        name = _name;\n    }\n\n    function addStrategy(string strategyName) {\n      strategies.push(strategyName);\n    }\n\n    function addToken(address tokenName) {\n      tokens.push(tokenName);\n    }\n\n    function addTokenAndStrategy(string strategyName,address tokenName) {\n      strategies.push(strategyName);\n      tokens.push(tokenName);\n    }\n\n    function getNumberRegisteredStrategies() public constant returns (uint) {\n      return(strategies.length);\n    }\n\n    function getNumberRegisteredTokens() public constant returns (uint) {\n      return(tokens.length);\n    }\n\n}\n",
  "sourcePath": "/home/sduprey/My_Truffle_Project/Decentralized_Orderbook/contracts/BlockchainSpeaker.sol",
  "compiler": {
    "name": "solc",
    "version": "0.4.19+commit.c4cbbb05.Emscripten.clang"
  },
  "schemaVersion": "1.0.1",
  "updatedAt": "2018-04-23T12:40:05.824Z"
}