{
  "contractName": "DecentralizedOrderBook",
  "abi": [
    {
      "inputs": [
        {
          "name": "_token",
          "type": "address"
        }
      ],
      "payable": false,
      "stateMutability": "nonpayable",
      "type": "constructor"
    },
    {
      "constant": false,
      "inputs": [
        {
          "name": "_from",
          "type": "address"
        },
        {
          "name": "_to",
          "type": "address"
        },
        {
          "name": "_quantity",
          "type": "uint256"
        },
        {
          "name": "_price",
          "type": "uint256"
        }
      ],
      "name": "settleCash",
      "outputs": [],
      "payable": false,
      "stateMutability": "nonpayable",
      "type": "function"
    },
    {
      "constant": false,
      "inputs": [
        {
          "name": "_from",
          "type": "address"
        },
        {
          "name": "_to",
          "type": "address"
        },
        {
          "name": "_quantity",
          "type": "uint256"
        }
      ],
      "name": "settleToken",
      "outputs": [],
      "payable": false,
      "stateMutability": "nonpayable",
      "type": "function"
    },
    {
      "constant": false,
      "inputs": [
        {
          "name": "_quantity",
          "type": "uint256"
        },
        {
          "name": "_price",
          "type": "uint256"
        },
        {
          "name": "_direction",
          "type": "bool"
        },
        {
          "name": "proposer",
          "type": "address"
        }
      ],
      "name": "handleAskRippingOrder",
      "outputs": [],
      "payable": false,
      "stateMutability": "nonpayable",
      "type": "function"
    },
    {
      "constant": false,
      "inputs": [
        {
          "name": "_quantity",
          "type": "uint256"
        },
        {
          "name": "_price",
          "type": "uint256"
        },
        {
          "name": "_direction",
          "type": "bool"
        },
        {
          "name": "proposer",
          "type": "address"
        }
      ],
      "name": "handleBidRippingOrder",
      "outputs": [],
      "payable": false,
      "stateMutability": "nonpayable",
      "type": "function"
    },
    {
      "constant": false,
      "inputs": [
        {
          "name": "_quantity",
          "type": "uint256"
        },
        {
          "name": "_price",
          "type": "uint256"
        },
        {
          "name": "_direction",
          "type": "bool"
        },
        {
          "name": "proposer",
          "type": "address"
        }
      ],
      "name": "handleInsideSpreadOrder",
      "outputs": [],
      "payable": false,
      "stateMutability": "nonpayable",
      "type": "function"
    },
    {
      "constant": false,
      "inputs": [
        {
          "name": "_quantity",
          "type": "uint256"
        },
        {
          "name": "_price",
          "type": "uint256"
        },
        {
          "name": "_direction",
          "type": "bool"
        }
      ],
      "name": "deleteOrder",
      "outputs": [],
      "payable": false,
      "stateMutability": "nonpayable",
      "type": "function"
    },
    {
      "constant": false,
      "inputs": [
        {
          "name": "_quantity",
          "type": "uint256"
        },
        {
          "name": "_price",
          "type": "uint256"
        },
        {
          "name": "_direction",
          "type": "bool"
        }
      ],
      "name": "handleOrder",
      "outputs": [],
      "payable": true,
      "stateMutability": "payable",
      "type": "function"
    }
  ],
  "bytecode": "0x6060604052341561000f57600080fd5b604051602080611d9f8339810160405280805190602001909190505080600160006101000a81548173ffffffffffffffffffffffffffffffffffffffff021916908373ffffffffffffffffffffffffffffffffffffffff16021790555050611d238061007c6000396000f300606060405260043610610083576000357c0100000000000000000000000000000000000000000000000000000000900463ffffffff1680632a7f49981461008857806339deef3c146100e957806369d458d0146101155780638c9bd7191461016b5780638ff25b40146101c1578063bc0faf831461022b578063cef4767014610281575b600080fd5b341561009357600080fd5b6100e7600480803573ffffffffffffffffffffffffffffffffffffffff1690602001909190803573ffffffffffffffffffffffffffffffffffffffff169060200190919080359060200190919050506102b8565b005b610113600480803590602001909190803590602001909190803515159060200190919050506103da565b005b341561012057600080fd5b6101696004808035906020019091908035906020019091908035151590602001909190803573ffffffffffffffffffffffffffffffffffffffff169060200190919050506105e8565b005b341561017657600080fd5b6101bf6004808035906020019091908035906020019091908035151590602001909190803573ffffffffffffffffffffffffffffffffffffffff16906020019091905050610761565b005b34156101cc57600080fd5b610229600480803573ffffffffffffffffffffffffffffffffffffffff1690602001909190803573ffffffffffffffffffffffffffffffffffffffff169060200190919080359060200190919080359060200190919050506109bb565b005b341561023657600080fd5b61027f6004808035906020019091908035906020019091908035151590602001909190803573ffffffffffffffffffffffffffffffffffffffff16906020019091905050610a5f565b005b341561028c57600080fd5b6102b660048080359060200190919080359060200190919080351515906020019091905050610bd7565b005b600160009054906101000a900473ffffffffffffffffffffffffffffffffffffffff1673ffffffffffffffffffffffffffffffffffffffff166323b872dd8484846000604051602001526040518463ffffffff167c0100000000000000000000000000000000000000000000000000000000028152600401808473ffffffffffffffffffffffffffffffffffffffff1673ffffffffffffffffffffffffffffffffffffffff1681526020018373ffffffffffffffffffffffffffffffffffffffff1673ffffffffffffffffffffffffffffffffffffffff1681526020018281526020019350505050602060405180830381600087803b15156103b957600080fd5b6102c65a03f115156103ca57600080fd5b5050506040518051905050505050565b801561043f57818302341115156103ed57fe5b34600260003373ffffffffffffffffffffffffffffffffffffffff1673ffffffffffffffffffffffffffffffffffffffff1681526020019081526020016000206000828254019250508190555061055f565b6000600160009054906101000a900473ffffffffffffffffffffffffffffffffffffffff1673ffffffffffffffffffffffffffffffffffffffff1663dd62ed3e33306000604051602001526040518363ffffffff167c0100000000000000000000000000000000000000000000000000000000028152600401808373ffffffffffffffffffffffffffffffffffffffff1673ffffffffffffffffffffffffffffffffffffffff1681526020018273ffffffffffffffffffffffffffffffffffffffff1673ffffffffffffffffffffffffffffffffffffffff16815260200192505050602060405180830381600087803b151561053a57600080fd5b6102c65a03f1151561054b57600080fd5b5050506040518051905011151561055e57fe5b5b80156105a65760045482118015610577575060055482105b15610594578160048190555061058f83838333610761565b6105a1565b6105a083838333610a5f565b5b6105e3565b600554821080156105b8575060045482115b156105d557816005819055506105d083838333610761565b6105e2565b6105e1838383336105e8565b5b5b505050565b600080600060045492505b85831015156107585760008084815260200190815260200160002060009054906101000a900473ffffffffffffffffffffffffffffffffffffffff169150600073ffffffffffffffffffffffffffffffffffffffff168273ffffffffffffffffffffffffffffffffffffffff16141561066b5761074a565b8190508073ffffffffffffffffffffffffffffffffffffffff1663110b4aa4888888886000604051602001526040518563ffffffff167c010000000000000000000000000000000000000000000000000000000002815260040180858152602001848152602001831515151581526020018273ffffffffffffffffffffffffffffffffffffffff1673ffffffffffffffffffffffffffffffffffffffff168152602001945050505050602060405180830381600087803b151561072d57600080fd5b6102c65a03f1151561073e57600080fd5b50505060405180519050505b8280600190039350506105f3565b50505050505050565b60008060008086815260200190815260200160002060009054906101000a900473ffffffffffffffffffffffffffffffffffffffff169150600073ffffffffffffffffffffffffffffffffffffffff168273ffffffffffffffffffffffffffffffffffffffff1614156108d55730600160009054906101000a900473ffffffffffffffffffffffffffffffffffffffff16866107fb610d1c565b808473ffffffffffffffffffffffffffffffffffffffff1673ffffffffffffffffffffffffffffffffffffffff1681526020018373ffffffffffffffffffffffffffffffffffffffff1673ffffffffffffffffffffffffffffffffffffffff1681526020018281526020019350505050604051809103906000f080151561088157600080fd5b91508160008087815260200190815260200160002060006101000a81548173ffffffffffffffffffffffffffffffffffffffff021916908373ffffffffffffffffffffffffffffffffffffffff1602179055505b8190508073ffffffffffffffffffffffffffffffffffffffff1663110b4aa4878787876000604051602001526040518563ffffffff167c010000000000000000000000000000000000000000000000000000000002815260040180858152602001848152602001831515151581526020018273ffffffffffffffffffffffffffffffffffffffff1673ffffffffffffffffffffffffffffffffffffffff168152602001945050505050602060405180830381600087803b151561099757600080fd5b6102c65a03f115156109a857600080fd5b5050506040518051905050505050505050565b808202600260008673ffffffffffffffffffffffffffffffffffffffff1673ffffffffffffffffffffffffffffffffffffffff16815260200190815260200160002060008282540392505081905550808202600360008573ffffffffffffffffffffffffffffffffffffffff1673ffffffffffffffffffffffffffffffffffffffff1681526020019081526020016000206000828254019250508190555050505050565b600080600060055492505b8583111515610bce5760008087815260200190815260200160002060009054906101000a900473ffffffffffffffffffffffffffffffffffffffff169150600073ffffffffffffffffffffffffffffffffffffffff168273ffffffffffffffffffffffffffffffffffffffff161415610ae257610bc1565b8190508073ffffffffffffffffffffffffffffffffffffffff1663110b4aa4888888886000604051602001526040518563ffffffff167c010000000000000000000000000000000000000000000000000000000002815260040180858152602001848152602001831515151581526020018273ffffffffffffffffffffffffffffffffffffffff1673ffffffffffffffffffffffffffffffffffffffff168152602001945050505050602060405180830381600087803b1515610ba457600080fd5b6102c65a03f11515610bb557600080fd5b50505060405180519050505b8280600101935050610a6a565b50505050505050565b60008060008085815260200190815260200160002060009054906101000a900473ffffffffffffffffffffffffffffffffffffffff169150600073ffffffffffffffffffffffffffffffffffffffff168273ffffffffffffffffffffffffffffffffffffffff1614151515610c4857fe5b8190508073ffffffffffffffffffffffffffffffffffffffff16639354f2d3868686336040518563ffffffff167c010000000000000000000000000000000000000000000000000000000002815260040180858152602001848152602001831515151581526020018273ffffffffffffffffffffffffffffffffffffffff1673ffffffffffffffffffffffffffffffffffffffff168152602001945050505050600060405180830381600087803b1515610d0157600080fd5b6102c65a03f11515610d1257600080fd5b5050505050505050565b604051610fcb80610d2d8339019056006060604052341561000f57600080fd5b604051606080610fcb8339810160405280805190602001909190805190602001909190805190602001909190505082600660006101000a81548173ffffffffffffffffffffffffffffffffffffffff021916908373ffffffffffffffffffffffffffffffffffffffff16021790555081600560006101000a81548173ffffffffffffffffffffffffffffffffffffffff021916908373ffffffffffffffffffffffffffffffffffffffff16021790555080600081905550505050610ef3806100d86000396000f300606060405260043610610078576000357c0100000000000000000000000000000000000000000000000000000000900463ffffffff16806304e046561461007d578063110b4aa4146100a657806322398bbe14610110578063481e683e1461013d5780636f8d0c61146101935780639354f2d3146101b6575b600080fd5b341561008857600080fd5b61009061020c565b6040518082815260200191505060405180910390f35b34156100b157600080fd5b6100fa6004808035906020019091908035906020019091908035151590602001909190803573ffffffffffffffffffffffffffffffffffffffff16906020019091905050610212565b6040518082815260200191505060405180910390f35b341561011b57600080fd5b61012361084b565b604051808215151515815260200191505060405180910390f35b341561014857600080fd5b6101916004808035906020019091908035906020019091908035151590602001909190803573ffffffffffffffffffffffffffffffffffffffff1690602001909190505061085e565b005b341561019e57600080fd5b6101b46004808035906020019091905050610a25565b005b34156101c157600080fd5b61020a6004808035906020019091908035906020019091908035151590602001909190803573ffffffffffffffffffffffffffffffffffffffff16906020019091905050610cef565b005b60005481565b6000806000806000600454141561024e5785600160006101000a81548160ff0219169083151502179055506102498888888861085e565b61083d565b600160009054906101000a900460ff161515861515141561027a576102758888888861085e565b61083c565b600160009054906101000a900460ff161561083a5760009250600091505b60028054905082101561082c576002828154811015156102b457fe5b9060005260206000209060040201905087816001015411151561055957600660009054906101000a900473ffffffffffffffffffffffffffffffffffffffff1673ffffffffffffffffffffffffffffffffffffffff16632a7f4998868360030160009054906101000a900473ffffffffffffffffffffffffffffffffffffffff1684600101546040518463ffffffff167c0100000000000000000000000000000000000000000000000000000000028152600401808473ffffffffffffffffffffffffffffffffffffffff1673ffffffffffffffffffffffffffffffffffffffff1681526020018373ffffffffffffffffffffffffffffffffffffffff1673ffffffffffffffffffffffffffffffffffffffff1681526020018281526020019350505050600060405180830381600087803b15156103f157600080fd5b6102c65a03f1151561040257600080fd5b505050600660009054906101000a900473ffffffffffffffffffffffffffffffffffffffff1673ffffffffffffffffffffffffffffffffffffffff16638ff25b408260030160009054906101000a900473ffffffffffffffffffffffffffffffffffffffff1687846001015485600201546040518563ffffffff167c0100000000000000000000000000000000000000000000000000000000028152600401808573ffffffffffffffffffffffffffffffffffffffff1673ffffffffffffffffffffffffffffffffffffffff1681526020018473ffffffffffffffffffffffffffffffffffffffff1673ffffffffffffffffffffffffffffffffffffffff168152602001838152602001828152602001945050505050600060405180830381600087803b151561053157600080fd5b6102c65a03f1151561054257600080fd5b505050806001015488039750600182019250610811565b600660009054906101000a900473ffffffffffffffffffffffffffffffffffffffff1673ffffffffffffffffffffffffffffffffffffffff16632a7f4998868360030160009054906101000a900473ffffffffffffffffffffffffffffffffffffffff168b6040518463ffffffff167c0100000000000000000000000000000000000000000000000000000000028152600401808473ffffffffffffffffffffffffffffffffffffffff1673ffffffffffffffffffffffffffffffffffffffff1681526020018373ffffffffffffffffffffffffffffffffffffffff1673ffffffffffffffffffffffffffffffffffffffff1681526020018281526020019350505050600060405180830381600087803b151561067557600080fd5b6102c65a03f1151561068657600080fd5b505050600660009054906101000a900473ffffffffffffffffffffffffffffffffffffffff1673ffffffffffffffffffffffffffffffffffffffff16638ff25b408260030160009054906101000a900473ffffffffffffffffffffffffffffffffffffffff16878b85600201546040518563ffffffff167c0100000000000000000000000000000000000000000000000000000000028152600401808573ffffffffffffffffffffffffffffffffffffffff1673ffffffffffffffffffffffffffffffffffffffff1681526020018473ffffffffffffffffffffffffffffffffffffffff1673ffffffffffffffffffffffffffffffffffffffff168152602001838152602001828152602001945050505050600060405180830381600087803b15156107b157600080fd5b6102c65a03f115156107c257600080fd5b505050876002838154811015156107d557fe5b906000526020600020906004020160010154036002838154811015156107f757fe5b906000526020600020906004020160010181905550600097505b600088141561081f5761082c565b8180600101925050610298565b61083583610a25565b61083b565b5b5b5b879350505050949350505050565b600160009054906101000a900460ff1681565b6000610868610da9565b858585856040518085815260200184815260200183151515157f01000000000000000000000000000000000000000000000000000000000000000281526001018273ffffffffffffffffffffffffffffffffffffffff1673ffffffffffffffffffffffffffffffffffffffff166c01000000000000000000000000028152601401945050505050604051809103902091506004546003600084600019166000191681526020019081526020016000208190555060a06040519081016040528060045481526020018781526020018681526020018473ffffffffffffffffffffffffffffffffffffffff1681526020018515158152509050600280548060010182816109739190610df1565b9160005260206000209060040201600083909190915060008201518160000155602082015181600101556040820151816002015560608201518160030160006101000a81548173ffffffffffffffffffffffffffffffffffffffff021916908373ffffffffffffffffffffffffffffffffffffffff16021790555060808201518160030160146101000a81548160ff021916908315150217905550505050600160045401600481905550505050505050565b60008060028054905083101515610a3b57610cea565b8291505b600280549050821015610b4a57600282815481101515610a5b57fe5b90600052602060002090600402016002848403815481101515610a7a57fe5b90600052602060002090600402016000820154816000015560018201548160010155600282015481600201556003820160009054906101000a900473ffffffffffffffffffffffffffffffffffffffff168160030160006101000a81548173ffffffffffffffffffffffffffffffffffffffff021916908373ffffffffffffffffffffffffffffffffffffffff1602179055506003820160149054906101000a900460ff168160030160146101000a81548160ff0219169083151502179055509050508180600101925050610a3f565b826002805490500390505b600280549050811015610cd3576002838201815481101515610b7357fe5b9060005260206000209060040201600282815481101515610b9057fe5b90600052602060002090600402016000820154816000015560018201548160010155600282015481600201556003820160009054906101000a900473ffffffffffffffffffffffffffffffffffffffff168160030160006101000a81548173ffffffffffffffffffffffffffffffffffffffff021916908373ffffffffffffffffffffffffffffffffffffffff1602179055506003820160149054906101000a900460ff168160030160146101000a81548160ff021916908315150217905550905050600281815481101515610c6257fe5b9060005260206000209060040201600080820160009055600182016000905560028201600090556003820160006101000a81549073ffffffffffffffffffffffffffffffffffffffff02191690556003820160146101000a81549060ff021916905550508080600101915050610b55565b8260028054905003600281610ce89190610e23565b505b505050565b600080858585856040518085815260200184815260200183151515157f01000000000000000000000000000000000000000000000000000000000000000281526001018273ffffffffffffffffffffffffffffffffffffffff1673ffffffffffffffffffffffffffffffffffffffff166c0100000000000000000000000002815260140194505050505060405180910390209150600360008360001916600019168152602001908152602001600020549050505050505050565b60a060405190810160405280600081526020016000815260200160008152602001600073ffffffffffffffffffffffffffffffffffffffff1681526020016000151581525090565b815481835581811511610e1e57600402816004028360005260206000209182019101610e1d9190610e55565b5b505050565b815481835581811511610e5057600402816004028360005260206000209182019101610e4f9190610e55565b5b505050565b610ec491905b80821115610ec057600080820160009055600182016000905560028201600090556003820160006101000a81549073ffffffffffffffffffffffffffffffffffffffff02191690556003820160146101000a81549060ff021916905550600401610e5b565b5090565b905600a165627a7a72305820408f8697a8ca2f5d82b624fa574bc76f1f0cf500af71c1a6e849efa5759d57bf0029a165627a7a72305820e53d681b093161946ad377aa44352be776779bcb01d72fdea5343941747d9fc10029",
  "source": "pragma solidity ^0.4.18;\r\n\r\n\r\nimport './ERC20.sol';\r\nimport \"./SlotManager.sol\";\r\n\r\ncontract DecentralizedOrderBook{\r\n\r\n    mapping (uint => address) private slotsMap;\r\n    ERC20 token;\r\n    mapping (address => uint) private cashBalance;\r\n    mapping (address => uint) private withdrawAllowance;\r\n\r\n    uint bestBid;\r\n    uint bestAsk;\r\n\r\n    function DecentralizedOrderBook(ERC20 _token){\r\n        token = _token;\r\n    }\r\n\r\n    function settleCash(address _from, address _to, uint _quantity, uint _price){\r\n        cashBalance[_from] -= _quantity*_price;\r\n        withdrawAllowance[_to] += _quantity*_price;\r\n    }\r\n\r\n    function settleToken(address _from, address _to, uint _quantity){\r\n        token.transferFrom(_from,_to,_quantity);\r\n    }\r\n\r\n    function handleAskRippingOrder(uint _quantity, uint _price, bool _direction, address proposer){\r\n        for (uint localPrice = bestAsk; localPrice <= _price; localPrice++){\r\n            address slotManagerAddress = slotsMap[_price];\r\n            if (slotManagerAddress==address(0)){\r\n                continue;\r\n            }\r\n            // the slot manager for this price is found\r\n            SlotManager slotManager = SlotManager(slotManagerAddress);\r\n            slotManager.handleSlotOrder(_quantity,_price,_direction,proposer);\r\n        }\r\n    }\r\n\r\n    function handleBidRippingOrder(uint _quantity, uint _price, bool _direction, address proposer){\r\n        // _price order lower than bestBid : we sell to the first bid levels\r\n        for (uint localPrice=bestBid;localPrice>=_price;localPrice--){\r\n            address slotManagerAddress = slotsMap[localPrice];\r\n            if (slotManagerAddress==address(0)){\r\n                continue;\r\n            }\r\n            // the slot manager for this price is found\r\n            SlotManager slotManager = SlotManager(slotManagerAddress);\r\n            slotManager.handleSlotOrder(_quantity,_price,_direction,proposer);\r\n        }\r\n    }\r\n\r\n    function handleInsideSpreadOrder(uint _quantity, uint _price, bool _direction, address proposer){\r\n        address slotManagerAddress = slotsMap[_price];\r\n        if (slotManagerAddress==address(0)){\r\n            slotManagerAddress = new SlotManager(this,token,_price);\r\n            slotsMap[_price] = slotManagerAddress;\r\n        }\r\n        // the slot manager for this price is found\r\n        SlotManager slotManager = SlotManager(slotManagerAddress);\r\n        slotManager.handleSlotOrder(_quantity,_price,_direction,proposer);\r\n    }\r\n\r\n    function deleteOrder(uint _quantity, uint _price, bool _direction) public {\r\n        address slotManagerAddress = slotsMap[_price];\r\n        assert(slotManagerAddress!=address(0));\r\n        // the slot manager for this price is found\r\n        SlotManager slotManager = SlotManager(slotManagerAddress);\r\n        slotManager.handleSlotDeleteOrder(_quantity,_price,_direction,msg.sender);\r\n    }\r\n\r\n    function handleOrder(uint _quantity, uint _price, bool _direction) public payable {\r\n        // we here make sure that the incoming order is appropriate\r\n        // if the incoming order wants to buy : it must bring cash with it\r\n        if (_direction){\r\n            assert(msg.value > _quantity*_price);\r\n            cashBalance[msg.sender] += msg.value;\r\n        } else {\r\n            // if the incoming order wants to sell : it must have enough token\r\n            // and delegate them to the spender : this contract\r\n            assert(token.allowance(msg.sender,this) > 0);\r\n        }\r\n\r\n        // we here handle the best bid, best ask\r\n        if (_direction){\r\n            // the order is a bidding order\r\n            if (_price > bestBid && _price < bestAsk){\r\n                bestBid = _price;\r\n                handleInsideSpreadOrder(_quantity,_price,_direction, msg.sender);\r\n            } else {\r\n                // the bidding order will rip off the first ask levels\r\n                handleAskRippingOrder(_quantity,_price,_direction, msg.sender);\r\n            }\r\n        } else {\r\n            // the order is an asking order\r\n            if (_price < bestAsk && _price > bestBid){\r\n                bestAsk = _price;\r\n                handleInsideSpreadOrder(_quantity,_price,_direction, msg.sender);\r\n            } else {\r\n                // the asking order will rip off the first bid levels\r\n                handleBidRippingOrder(_quantity,_price,_direction, msg.sender);\r\n            }\r\n        }\r\n    }\r\n}\r\n",
  "sourcePath": "/home/sduprey/My_Truffle_Project/DECENTRALIZED_ORDERBOOK/contracts/DecentralizedOrderBook.sol",
  "compiler": {
    "name": "solc",
    "version": "0.4.19+commit.c4cbbb05.Emscripten.clang"
  },
  "schemaVersion": "1.0.1",
  "updatedAt": "2018-02-18T10:07:22.822Z"
}