{
  "contractName": "DecentralizedOrderBook",
  "abi": [
    {
      "inputs": [
        {
          "name": "_token",
          "type": "address"
        }
      ],
      "payable": false,
      "stateMutability": "nonpayable",
      "type": "constructor"
    },
    {
      "constant": false,
      "inputs": [
        {
          "name": "_from",
          "type": "address"
        },
        {
          "name": "_to",
          "type": "address"
        },
        {
          "name": "_quantity",
          "type": "uint256"
        },
        {
          "name": "_price",
          "type": "uint256"
        }
      ],
      "name": "settleCash",
      "outputs": [],
      "payable": false,
      "stateMutability": "nonpayable",
      "type": "function"
    },
    {
      "constant": false,
      "inputs": [
        {
          "name": "_from",
          "type": "address"
        },
        {
          "name": "_to",
          "type": "address"
        },
        {
          "name": "_quantity",
          "type": "uint256"
        }
      ],
      "name": "settleToken",
      "outputs": [],
      "payable": false,
      "stateMutability": "nonpayable",
      "type": "function"
    },
    {
      "constant": false,
      "inputs": [
        {
          "name": "_quantity",
          "type": "uint256"
        },
        {
          "name": "_price",
          "type": "uint256"
        },
        {
          "name": "_direction",
          "type": "bool"
        },
        {
          "name": "proposer",
          "type": "address"
        }
      ],
      "name": "handleAskRippingOrder",
      "outputs": [],
      "payable": false,
      "stateMutability": "nonpayable",
      "type": "function"
    },
    {
      "constant": false,
      "inputs": [
        {
          "name": "_quantity",
          "type": "uint256"
        },
        {
          "name": "_price",
          "type": "uint256"
        },
        {
          "name": "_direction",
          "type": "bool"
        },
        {
          "name": "proposer",
          "type": "address"
        }
      ],
      "name": "handleBidRippingOrder",
      "outputs": [],
      "payable": false,
      "stateMutability": "nonpayable",
      "type": "function"
    },
    {
      "constant": false,
      "inputs": [
        {
          "name": "_quantity",
          "type": "uint256"
        },
        {
          "name": "_price",
          "type": "uint256"
        },
        {
          "name": "_direction",
          "type": "bool"
        },
        {
          "name": "proposer",
          "type": "address"
        }
      ],
      "name": "handleInsideSpreadOrder",
      "outputs": [],
      "payable": false,
      "stateMutability": "nonpayable",
      "type": "function"
    },
    {
      "constant": false,
      "inputs": [
        {
          "name": "_quantity",
          "type": "uint256"
        },
        {
          "name": "_price",
          "type": "uint256"
        },
        {
          "name": "_direction",
          "type": "bool"
        }
      ],
      "name": "deleteOrder",
      "outputs": [],
      "payable": false,
      "stateMutability": "nonpayable",
      "type": "function"
    },
    {
      "constant": false,
      "inputs": [
        {
          "name": "_quantity",
          "type": "uint256"
        },
        {
          "name": "_price",
          "type": "uint256"
        },
        {
          "name": "_direction",
          "type": "bool"
        }
      ],
      "name": "handleOrder",
      "outputs": [],
      "payable": true,
      "stateMutability": "payable",
      "type": "function"
    }
  ],
  "bytecode": "0x608060405234801561001057600080fd5b50604051602080611e048339810180604052810190808051906020019092919050505080600160006101000a81548173ffffffffffffffffffffffffffffffffffffffff021916908373ffffffffffffffffffffffffffffffffffffffff16021790555050611d80806100846000396000f300608060405260043610610083576000357c0100000000000000000000000000000000000000000000000000000000900463ffffffff1680632a7f49981461008857806339deef3c146100f557806369d458d01461012b5780638c9bd7191461018e5780638ff25b40146101f1578063bc0faf8314610268578063cef47670146102cb575b600080fd5b34801561009457600080fd5b506100f3600480360381019080803573ffffffffffffffffffffffffffffffffffffffff169060200190929190803573ffffffffffffffffffffffffffffffffffffffff1690602001909291908035906020019092919050505061030e565b005b6101296004803603810190808035906020019092919080359060200190929190803515159060200190929190505050610448565b005b34801561013757600080fd5b5061018c6004803603810190808035906020019092919080359060200190929190803515159060200190929190803573ffffffffffffffffffffffffffffffffffffffff16906020019092919050505061066e565b005b34801561019a57600080fd5b506101ef6004803603810190808035906020019092919080359060200190929190803515159060200190929190803573ffffffffffffffffffffffffffffffffffffffff1690602001909291905050506107ff565b005b3480156101fd57600080fd5b50610266600480360381019080803573ffffffffffffffffffffffffffffffffffffffff169060200190929190803573ffffffffffffffffffffffffffffffffffffffff1690602001909291908035906020019092919080359060200190929190505050610a22565b005b34801561027457600080fd5b506102c96004803603810190808035906020019092919080359060200190929190803515159060200190929190803573ffffffffffffffffffffffffffffffffffffffff169060200190929190505050610ac6565b005b3480156102d757600080fd5b5061030c6004803603810190808035906020019092919080359060200190929190803515159060200190929190505050610c56565b005b600160009054906101000a900473ffffffffffffffffffffffffffffffffffffffff1673ffffffffffffffffffffffffffffffffffffffff166323b872dd8484846040518463ffffffff167c0100000000000000000000000000000000000000000000000000000000028152600401808473ffffffffffffffffffffffffffffffffffffffff1673ffffffffffffffffffffffffffffffffffffffff1681526020018373ffffffffffffffffffffffffffffffffffffffff1673ffffffffffffffffffffffffffffffffffffffff1681526020018281526020019350505050602060405180830381600087803b15801561040757600080fd5b505af115801561041b573d6000803e3d6000fd5b505050506040513d602081101561043157600080fd5b810190808051906020019092919050505050505050565b80156104ad578183023411151561045b57fe5b34600260003373ffffffffffffffffffffffffffffffffffffffff1673ffffffffffffffffffffffffffffffffffffffff168152602001908152602001600020600082825401925050819055506105e5565b6000600160009054906101000a900473ffffffffffffffffffffffffffffffffffffffff1673ffffffffffffffffffffffffffffffffffffffff1663dd62ed3e33306040518363ffffffff167c0100000000000000000000000000000000000000000000000000000000028152600401808373ffffffffffffffffffffffffffffffffffffffff1673ffffffffffffffffffffffffffffffffffffffff1681526020018273ffffffffffffffffffffffffffffffffffffffff1673ffffffffffffffffffffffffffffffffffffffff16815260200192505050602060405180830381600087803b1580156105a057600080fd5b505af11580156105b4573d6000803e3d6000fd5b505050506040513d60208110156105ca57600080fd5b81019080805190602001909291905050501115156105e457fe5b5b801561062c57600454821180156105fd575060055482105b1561061a5781600481905550610615838383336107ff565b610627565b61062683838333610ac6565b5b610669565b6005548210801561063e575060045482115b1561065b5781600581905550610656838383336107ff565b610668565b6106678383833361066e565b5b5b505050565b600080600060045492505b85831015156107f65760008084815260200190815260200160002060009054906101000a900473ffffffffffffffffffffffffffffffffffffffff169150600073ffffffffffffffffffffffffffffffffffffffff168273ffffffffffffffffffffffffffffffffffffffff1614156106f1576107e8565b8190508073ffffffffffffffffffffffffffffffffffffffff1663110b4aa4888888886040518563ffffffff167c010000000000000000000000000000000000000000000000000000000002815260040180858152602001848152602001831515151581526020018273ffffffffffffffffffffffffffffffffffffffff1673ffffffffffffffffffffffffffffffffffffffff168152602001945050505050602060405180830381600087803b1580156107ab57600080fd5b505af11580156107bf573d6000803e3d6000fd5b505050506040513d60208110156107d557600080fd5b8101908080519060200190929190505050505b828060019003935050610679565b50505050505050565b60008060008086815260200190815260200160002060009054906101000a900473ffffffffffffffffffffffffffffffffffffffff169150600073ffffffffffffffffffffffffffffffffffffffff168273ffffffffffffffffffffffffffffffffffffffff161415610924573085610876610da0565b808373ffffffffffffffffffffffffffffffffffffffff1673ffffffffffffffffffffffffffffffffffffffff16815260200182815260200192505050604051809103906000f0801580156108cf573d6000803e3d6000fd5b5091508160008087815260200190815260200160002060006101000a81548173ffffffffffffffffffffffffffffffffffffffff021916908373ffffffffffffffffffffffffffffffffffffffff1602179055505b8190508073ffffffffffffffffffffffffffffffffffffffff1663110b4aa4878787876040518563ffffffff167c010000000000000000000000000000000000000000000000000000000002815260040180858152602001848152602001831515151581526020018273ffffffffffffffffffffffffffffffffffffffff1673ffffffffffffffffffffffffffffffffffffffff168152602001945050505050602060405180830381600087803b1580156109de57600080fd5b505af11580156109f2573d6000803e3d6000fd5b505050506040513d6020811015610a0857600080fd5b810190808051906020019092919050505050505050505050565b808202600260008673ffffffffffffffffffffffffffffffffffffffff1673ffffffffffffffffffffffffffffffffffffffff16815260200190815260200160002060008282540392505081905550808202600360008573ffffffffffffffffffffffffffffffffffffffff1673ffffffffffffffffffffffffffffffffffffffff1681526020019081526020016000206000828254019250508190555050505050565b600080600060055492505b8583111515610c4d5760008087815260200190815260200160002060009054906101000a900473ffffffffffffffffffffffffffffffffffffffff169150600073ffffffffffffffffffffffffffffffffffffffff168273ffffffffffffffffffffffffffffffffffffffff161415610b4957610c40565b8190508073ffffffffffffffffffffffffffffffffffffffff1663110b4aa4888888886040518563ffffffff167c010000000000000000000000000000000000000000000000000000000002815260040180858152602001848152602001831515151581526020018273ffffffffffffffffffffffffffffffffffffffff1673ffffffffffffffffffffffffffffffffffffffff168152602001945050505050602060405180830381600087803b158015610c0357600080fd5b505af1158015610c17573d6000803e3d6000fd5b505050506040513d6020811015610c2d57600080fd5b8101908080519060200190929190505050505b8280600101935050610ad1565b50505050505050565b60008060008085815260200190815260200160002060009054906101000a900473ffffffffffffffffffffffffffffffffffffffff169150600073ffffffffffffffffffffffffffffffffffffffff168273ffffffffffffffffffffffffffffffffffffffff1614151515610cc757fe5b8190508073ffffffffffffffffffffffffffffffffffffffff16639354f2d3868686336040518563ffffffff167c010000000000000000000000000000000000000000000000000000000002815260040180858152602001848152602001831515151581526020018273ffffffffffffffffffffffffffffffffffffffff1673ffffffffffffffffffffffffffffffffffffffff168152602001945050505050600060405180830381600087803b158015610d8157600080fd5b505af1158015610d95573d6000803e3d6000fd5b505050505050505050565b604051610fa480610db1833901905600608060405234801561001057600080fd5b50604051604080610fa4833981018060405281019080805190602001909291908051906020019092919050505081600560006101000a81548173ffffffffffffffffffffffffffffffffffffffff021916908373ffffffffffffffffffffffffffffffffffffffff160217905550806000819055505050610f0e806100966000396000f300608060405260043610610078576000357c0100000000000000000000000000000000000000000000000000000000900463ffffffff16806304e046561461007d578063110b4aa4146100a857806322398bbe1461011f578063481e683e1461014e5780636f8d0c61146101b15780639354f2d3146101de575b600080fd5b34801561008957600080fd5b50610092610241565b6040518082815260200191505060405180910390f35b3480156100b457600080fd5b506101096004803603810190808035906020019092919080359060200190929190803515159060200190929190803573ffffffffffffffffffffffffffffffffffffffff169060200190929190505050610247565b6040518082815260200191505060405180910390f35b34801561012b57600080fd5b50610134610894565b604051808215151515815260200191505060405180910390f35b34801561015a57600080fd5b506101af6004803603810190808035906020019092919080359060200190929190803515159060200190929190803573ffffffffffffffffffffffffffffffffffffffff1690602001909291905050506108a7565b005b3480156101bd57600080fd5b506101dc60048036038101908080359060200190929190505050610a72565b005b3480156101ea57600080fd5b5061023f6004803603810190808035906020019092919080359060200190929190803515159060200190929190803573ffffffffffffffffffffffffffffffffffffffff169060200190929190505050610d3c565b005b60005481565b600080600080600060045414156102835785600160006101000a81548160ff02191690831515021790555061027e888888886108a7565b610886565b600160009054906101000a900460ff16151586151514156102af576102aa888888886108a7565b610885565b600160009054906101000a900460ff16156108835760009250600091505b600280549050821015610875576002828154811015156102e957fe5b9060005260206000209060040201905087816001015411151561059857600560009054906101000a900473ffffffffffffffffffffffffffffffffffffffff1673ffffffffffffffffffffffffffffffffffffffff16632a7f4998868360030160009054906101000a900473ffffffffffffffffffffffffffffffffffffffff1684600101546040518463ffffffff167c0100000000000000000000000000000000000000000000000000000000028152600401808473ffffffffffffffffffffffffffffffffffffffff1673ffffffffffffffffffffffffffffffffffffffff1681526020018373ffffffffffffffffffffffffffffffffffffffff1673ffffffffffffffffffffffffffffffffffffffff1681526020018281526020019350505050600060405180830381600087803b15801561042757600080fd5b505af115801561043b573d6000803e3d6000fd5b50505050600560009054906101000a900473ffffffffffffffffffffffffffffffffffffffff1673ffffffffffffffffffffffffffffffffffffffff16638ff25b408260030160009054906101000a900473ffffffffffffffffffffffffffffffffffffffff1687846001015485600201546040518563ffffffff167c0100000000000000000000000000000000000000000000000000000000028152600401808573ffffffffffffffffffffffffffffffffffffffff1673ffffffffffffffffffffffffffffffffffffffff1681526020018473ffffffffffffffffffffffffffffffffffffffff1673ffffffffffffffffffffffffffffffffffffffff168152602001838152602001828152602001945050505050600060405180830381600087803b15801561056c57600080fd5b505af1158015610580573d6000803e3d6000fd5b5050505080600101548803975060018201925061085a565b600560009054906101000a900473ffffffffffffffffffffffffffffffffffffffff1673ffffffffffffffffffffffffffffffffffffffff16632a7f4998868360030160009054906101000a900473ffffffffffffffffffffffffffffffffffffffff168b6040518463ffffffff167c0100000000000000000000000000000000000000000000000000000000028152600401808473ffffffffffffffffffffffffffffffffffffffff1673ffffffffffffffffffffffffffffffffffffffff1681526020018373ffffffffffffffffffffffffffffffffffffffff1673ffffffffffffffffffffffffffffffffffffffff1681526020018281526020019350505050600060405180830381600087803b1580156106b557600080fd5b505af11580156106c9573d6000803e3d6000fd5b50505050600560009054906101000a900473ffffffffffffffffffffffffffffffffffffffff1673ffffffffffffffffffffffffffffffffffffffff16638ff25b408260030160009054906101000a900473ffffffffffffffffffffffffffffffffffffffff16878b85600201546040518563ffffffff167c0100000000000000000000000000000000000000000000000000000000028152600401808573ffffffffffffffffffffffffffffffffffffffff1673ffffffffffffffffffffffffffffffffffffffff1681526020018473ffffffffffffffffffffffffffffffffffffffff1673ffffffffffffffffffffffffffffffffffffffff168152602001838152602001828152602001945050505050600060405180830381600087803b1580156107f657600080fd5b505af115801561080a573d6000803e3d6000fd5b505050508760028381548110151561081e57fe5b9060005260206000209060040201600101540360028381548110151561084057fe5b906000526020600020906004020160010181905550600097505b600088141561086857610875565b81806001019250506102cd565b61087e83610a72565b610884565b5b5b5b879350505050949350505050565b600160009054906101000a900460ff1681565b60006108b1610df6565b858585856040518085815260200184815260200183151515157f01000000000000000000000000000000000000000000000000000000000000000281526001018273ffffffffffffffffffffffffffffffffffffffff1673ffffffffffffffffffffffffffffffffffffffff166c01000000000000000000000000028152601401945050505050604051809103902091506004546003600084600019166000191681526020019081526020016000208190555060a06040519081016040528060045481526020018781526020018681526020018473ffffffffffffffffffffffffffffffffffffffff16815260200185151581525090506002819080600181540180825580915050906001820390600052602060002090600402016000909192909190915060008201518160000155602082015181600101556040820151816002015560608201518160030160006101000a81548173ffffffffffffffffffffffffffffffffffffffff021916908373ffffffffffffffffffffffffffffffffffffffff16021790555060808201518160030160146101000a81548160ff021916908315150217905550505050600160045401600481905550505050505050565b60008060028054905083101515610a8857610d37565b8291505b600280549050821015610b9757600282815481101515610aa857fe5b90600052602060002090600402016002848403815481101515610ac757fe5b90600052602060002090600402016000820154816000015560018201548160010155600282015481600201556003820160009054906101000a900473ffffffffffffffffffffffffffffffffffffffff168160030160006101000a81548173ffffffffffffffffffffffffffffffffffffffff021916908373ffffffffffffffffffffffffffffffffffffffff1602179055506003820160149054906101000a900460ff168160030160146101000a81548160ff0219169083151502179055509050508180600101925050610a8c565b826002805490500390505b600280549050811015610d20576002838201815481101515610bc057fe5b9060005260206000209060040201600282815481101515610bdd57fe5b90600052602060002090600402016000820154816000015560018201548160010155600282015481600201556003820160009054906101000a900473ffffffffffffffffffffffffffffffffffffffff168160030160006101000a81548173ffffffffffffffffffffffffffffffffffffffff021916908373ffffffffffffffffffffffffffffffffffffffff1602179055506003820160149054906101000a900460ff168160030160146101000a81548160ff021916908315150217905550905050600281815481101515610caf57fe5b9060005260206000209060040201600080820160009055600182016000905560028201600090556003820160006101000a81549073ffffffffffffffffffffffffffffffffffffffff02191690556003820160146101000a81549060ff021916905550508080600101915050610ba2565b8260028054905003600281610d359190610e3e565b505b505050565b600080858585856040518085815260200184815260200183151515157f01000000000000000000000000000000000000000000000000000000000000000281526001018273ffffffffffffffffffffffffffffffffffffffff1673ffffffffffffffffffffffffffffffffffffffff166c0100000000000000000000000002815260140194505050505060405180910390209150600360008360001916600019168152602001908152602001600020549050505050505050565b60a060405190810160405280600081526020016000815260200160008152602001600073ffffffffffffffffffffffffffffffffffffffff1681526020016000151581525090565b815481835581811115610e6b57600402816004028360005260206000209182019101610e6a9190610e70565b5b505050565b610edf91905b80821115610edb57600080820160009055600182016000905560028201600090556003820160006101000a81549073ffffffffffffffffffffffffffffffffffffffff02191690556003820160146101000a81549060ff021916905550600401610e76565b5090565b905600a165627a7a723058207fca9a22a5dfbf32c4944d7502a1c6c87d7382a97e518c9821ddcd79279eb8b10029a165627a7a72305820a525be0d6a5bb69b0272fe6d4823b4faf5c0355e7eb58951efba377f06d734c90029",
  "source": "pragma solidity ^0.4.18;\r\n\r\nimport \"./SlotManager.sol\";\r\nimport \"./TradingToken.sol\";\r\n\r\ncontract DecentralizedOrderBook{\r\n\r\n    mapping (uint => address) private slotsMap;\r\n    TradingToken token;\r\n    mapping (address => uint) private cashBalance;\r\n    mapping (address => uint) private withdrawAllowance;\r\n\r\n    uint bestBid;\r\n    uint bestAsk;\r\n\r\n    function DecentralizedOrderBook(address _token){\r\n        token = TradingToken(_token);\r\n    }\r\n\r\n    function settleCash(address _from, address _to, uint _quantity, uint _price){\r\n        cashBalance[_from] -= _quantity*_price;\r\n        withdrawAllowance[_to] += _quantity*_price;\r\n    }\r\n\r\n    function settleToken(address _from, address _to, uint _quantity){\r\n        token.transferFrom(_from,_to,_quantity);\r\n    }\r\n\r\n    function handleAskRippingOrder(uint _quantity, uint _price, bool _direction, address proposer){\r\n        for (uint localPrice = bestAsk; localPrice <= _price; localPrice++){\r\n            address slotManagerAddress = slotsMap[_price];\r\n            if (slotManagerAddress==address(0)){\r\n                continue;\r\n            }\r\n            // the slot manager for this price is found\r\n            SlotManager slotManager = SlotManager(slotManagerAddress);\r\n            slotManager.handleSlotOrder(_quantity,_price,_direction,proposer);\r\n        }\r\n    }\r\n\r\n    function handleBidRippingOrder(uint _quantity, uint _price, bool _direction, address proposer){\r\n        // _price order lower than bestBid : we sell to the first bid levels\r\n        for (uint localPrice=bestBid;localPrice>=_price;localPrice--){\r\n            address slotManagerAddress = slotsMap[localPrice];\r\n            if (slotManagerAddress==address(0)){\r\n                continue;\r\n            }\r\n            // the slot manager for this price is found\r\n            SlotManager slotManager = SlotManager(slotManagerAddress);\r\n            slotManager.handleSlotOrder(_quantity,_price,_direction,proposer);\r\n        }\r\n    }\r\n\r\n    function handleInsideSpreadOrder(uint _quantity, uint _price, bool _direction, address proposer){\r\n        address slotManagerAddress = slotsMap[_price];\r\n        if (slotManagerAddress==address(0)){\r\n            slotManagerAddress = new SlotManager(this,_price);\r\n            slotsMap[_price] = slotManagerAddress;\r\n        }\r\n        // the slot manager for this price is found\r\n        SlotManager slotManager = SlotManager(slotManagerAddress);\r\n        slotManager.handleSlotOrder(_quantity,_price,_direction,proposer);\r\n    }\r\n\r\n    function deleteOrder(uint _quantity, uint _price, bool _direction) public {\r\n        address slotManagerAddress = slotsMap[_price];\r\n        assert(slotManagerAddress!=address(0));\r\n        // the slot manager for this price is found\r\n        SlotManager slotManager = SlotManager(slotManagerAddress);\r\n        slotManager.handleSlotDeleteOrder(_quantity,_price,_direction,msg.sender);\r\n    }\r\n\r\n    function handleOrder(uint _quantity, uint _price, bool _direction) public payable {\r\n        // we here make sure that the incoming order is appropriate\r\n        // if the incoming order wants to buy : it must bring cash with it\r\n        if (_direction){\r\n            assert(msg.value > _quantity*_price);\r\n            cashBalance[msg.sender] += msg.value;\r\n        } else {\r\n            // if the incoming order wants to sell : it must have enough token\r\n            // and delegate them to the spender : this contract\r\n            assert(token.allowance(msg.sender,this) > 0);\r\n        }\r\n\r\n        // we here handle the best bid, best ask\r\n        if (_direction){\r\n            // the order is a bidding order\r\n            if (_price > bestBid && _price < bestAsk){\r\n                bestBid = _price;\r\n                handleInsideSpreadOrder(_quantity,_price,_direction, msg.sender);\r\n            } else {\r\n                // the bidding order will rip off the first ask levels\r\n                handleAskRippingOrder(_quantity,_price,_direction, msg.sender);\r\n            }\r\n        } else {\r\n            // the order is an asking order\r\n            if (_price < bestAsk && _price > bestBid){\r\n                bestAsk = _price;\r\n                handleInsideSpreadOrder(_quantity,_price,_direction, msg.sender);\r\n            } else {\r\n                // the asking order will rip off the first bid levels\r\n                handleBidRippingOrder(_quantity,_price,_direction, msg.sender);\r\n            }\r\n        }\r\n    }\r\n}\r\n",
  "sourcePath": "/home/sduprey/My_TruffleProjects/Decentralized_Orderbook/contracts/DecentralizedOrderBook.sol",
  "compiler": {
    "name": "solc",
    "version": "0.4.23+commit.124ca40d.Emscripten.clang"
  },
  "schemaVersion": "2.0.0",
  "updatedAt": "2018-05-03T07:57:27.833Z"
}