{
  "contractName": "MultiLogsTested",
  "abi": [
    {
      "constant": true,
      "inputs": [],
      "name": "name",
      "outputs": [
        {
          "name": "",
          "type": "bytes15"
        }
      ],
      "payable": false,
      "stateMutability": "view",
      "type": "function"
    },
    {
      "inputs": [],
      "payable": false,
      "stateMutability": "nonpayable",
      "type": "constructor"
    },
    {
      "anonymous": false,
      "inputs": [
        {
          "indexed": true,
          "name": "name",
          "type": "bytes15"
        },
        {
          "indexed": true,
          "name": "date",
          "type": "uint32"
        },
        {
          "indexed": false,
          "name": "stratVariation",
          "type": "int256"
        },
        {
          "indexed": false,
          "name": "stratPrice",
          "type": "uint48"
        },
        {
          "indexed": false,
          "name": "position",
          "type": "int8"
        },
        {
          "indexed": false,
          "name": "category",
          "type": "int8"
        }
      ],
      "name": "newRecord",
      "type": "event"
    },
    {
      "constant": false,
      "inputs": [
        {
          "name": "dates",
          "type": "uint32[]"
        },
        {
          "name": "prices",
          "type": "uint32[]"
        },
        {
          "name": "positions",
          "type": "int8[]"
        }
      ],
      "name": "batchbacktest",
      "outputs": [],
      "payable": false,
      "stateMutability": "nonpayable",
      "type": "function"
    },
    {
      "constant": false,
      "inputs": [
        {
          "name": "name",
          "type": "bytes15"
        },
        {
          "name": "strategyInitPrice",
          "type": "uint48"
        },
        {
          "name": "dates",
          "type": "uint32[]"
        },
        {
          "name": "prices",
          "type": "uint32[]"
        },
        {
          "name": "positions",
          "type": "int8[]"
        }
      ],
      "name": "libbatchbacktest",
      "outputs": [
        {
          "name": "",
          "type": "uint48"
        }
      ],
      "payable": false,
      "stateMutability": "nonpayable",
      "type": "function"
    }
  ],
  "bytecode": "0x608060405234801561001057600080fd5b507f4d756c746920312e3000000000000000000000000000000000000000000000006000806101000a8154816effffffffffffffffffffffffffffff021916908371010000000000000000000000000000000000900402179055506305f5e1006001600001600b6101000a81548165ffffffffffff021916908365ffffffffffff1602179055506106b4806100a66000396000f300608060405260043610610057576000357c0100000000000000000000000000000000000000000000000000000000900463ffffffff16806306fdde031461005c5780635a3f6b23146100af578063dcc60b381461019b575b600080fd5b34801561006857600080fd5b506100716102db565b604051808270ffffffffffffffffffffffffffffffffff191670ffffffffffffffffffffffffffffffffff1916815260200191505060405180910390f35b3480156100bb57600080fd5b506101996004803603810190808035906020019082018035906020019080806020026020016040519081016040528093929190818152602001838360200280828437820191505050505050919291929080359060200190820180359060200190808060200260200160405190810160405280939291908181526020018383602002808284378201915050505050509192919290803590602001908201803590602001908080602002602001604051908101604052809392919081815260200183836020028082843782019150505050505091929192905050506102fe565b005b3480156101a757600080fd5b506102b5600480360381019080803570ffffffffffffffffffffffffffffffffff19169060200190929190803565ffffffffffff169060200190929190803590602001908201803590602001908080602002602001604051908101604052809392919081815260200183836020028082843782019150505050505091929192908035906020019082018035906020019080806020026020016040519081016040528093929190818152602001838360200280828437820191505050505050919291929080359060200190820180359060200190808060200260200160405190810160405280939291908181526020018383602002808284378201915050505050509192919290505050610413565b604051808265ffffffffffff1665ffffffffffff16815260200191505060405180910390f35b6000809054906101000a9004710100000000000000000000000000000000000281565b6000806000835192508286511480156103175750828551145b151561032257600080fd5b6001600001600b9054906101000a900465ffffffffffff1691506103686000809054906101000a9004710100000000000000000000000000000000000283888888610413565b9050836001840381518110151561037b57fe5b90602001906020020151600160000160046101000a81548160ff021916908360000b60ff16021790555085600184038151811015156103b657fe5b90602001906020020151600160000160006101000a81548163ffffffff021916908363ffffffff160217905550806001600001600b6101000a81548165ffffffffffff021916908365ffffffffffff160217905550505050505050565b600080600080879250600191505b86518260ff1610156105605761048c866001840360ff1681518110151561044457fe5b90602001906020020151878460ff1681518110151561045f57fe5b90602001906020020151876001860360ff1681518110151561047d57fe5b9060200190602002015161056f565b90506104988184610629565b9250868260ff168151811015156104ab57fe5b9060200190602002015163ffffffff168970ffffffffffffffffffffffffffffffffff19167fc61c7f74327024f41d47bb1b32ae4dd09319feacafd5a5cea629cead5fcb41ee8386898760ff1681518110151561050457fe5b906020019060200201516000604051808581526020018465ffffffffffff1665ffffffffffff1681526020018360000b60000b81526020018260000b815260200194505050505060405180910390a38180600101925050610421565b82935050505095945050505050565b60008060008360000b1415610587576000905061061e565b8463ffffffff168463ffffffff160390507a184f03e93ff9f4daa797ed6e38ed64bf6a1f010000000000000000810290508463ffffffff16818115156105c957fe5b0590507fffffffffffffffffffffffffffffffffffffffffffffffffffffffffffffffff8360000b141561061d577fffffffffffffffffffffffffffffffffffffffffffffffffffffffffffffffff810290505b5b809150509392505050565b600080600084141561063d57829150610681565b838365ffffffffffff160290507a184f03e93ff9f4daa797ed6e38ed64bf6a1f0100000000000000008181151561067057fe5b059050808365ffffffffffff160191505b50929150505600a165627a7a723058202c4ead10ccef2ab1107522449c62785164d605af26e7e89fb843d271e188c9c00029",
  "source": "pragma solidity ^0.4.18;\n\ncontract MultiLogsTested {\n\n    bytes15 public name;\n\n    struct StrategyExplicitexplicitState {\n      uint32 date;\n      int8 position;\n      int48 variation;\n      uint48 price;\n      int8 category;\n    }\n\n    StrategyExplicitexplicitState explicitState;\n\n    event newRecord(bytes15 indexed name, uint32 indexed date, int256 stratVariation, uint48 stratPrice, int8 position,int8 category);\n\n    function MultiLogsTested(){\n        name = \"Multi 1.0\";\n        explicitState.price =100000000;\n    }\n    // that backtesting function requires that the strategy explicitState be at the date matching\n    // the beginning of the array date\n    function batchbacktest(uint32[]dates, uint32[] prices, int8[] positions) public {\n      uint batchlength = positions.length;\n      require(dates.length==batchlength && prices.length==batchlength);\n\n      uint48 strategyInitPrice = explicitState.price;\n\n      uint48 strategyPrice = libbatchbacktest(name,strategyInitPrice,dates,prices,positions);\n\n      explicitState.position = positions[batchlength-1];\n      explicitState.date = dates[batchlength-1];\n      explicitState.price = strategyPrice;\n  \t}\n\n    function libbatchbacktest(bytes15 name, uint48 strategyInitPrice, uint32[]dates, uint32[] prices, int8[] positions) public returns (uint48) {\n         uint48 strategyPrice = strategyInitPrice;\n\n         for(uint8 i=1; i<dates.length; i++){\n\n             int256 variation = calVariation(prices[i-1], prices[i], positions[i-1]);\n             strategyPrice = calValue(variation, strategyPrice);\n\n             emit newRecord(name,dates[i],variation, strategyPrice, positions[i],0);\n         }\n         return strategyPrice;\n   }\n\n   /*------------------------------------------------------------------------\nCompute the variation of price of index according to the last position EOD\n----Arguments:\n       pxPre : price of precedent open dat\n       pxCur : price EOD\n       lastPosit : last position EOD\n----Return:\n       (pxCur/pxPre)^(lastPosit)-1\n-------------------------------------------------------------------------*/\n  function calVariation(uint32 pxPre, uint32 pxCur, int8 lastPosit) internal returns (int256 ){\n     int256 variation;\n     if(lastPosit==0){\n         variation = 0;\n     }\n     else{\n         variation = int256(pxCur) - int256(pxPre);\n         variation *= 1e64;\n         variation /=  pxPre;\n         if(lastPosit==-1){\n             variation *=-1;\n         }\n     }\n     return variation;\n  }\n\n  /*------------------------------------------------------------------------\n  Compute the algo value EOD for some index\n  ----Arguments:\n     variation : the variation of algo index value\n     lastValue : last algo value EOD\n  ----Return :\n     lastValue*(1+variation)\n  --------------------------------------------------------------------------*/\n  function calValue(int256 variation, uint48 lastValue) internal returns (uint48){\n     if(variation==0) return lastValue;\n     else {\n         int256 delta = int256(lastValue) * variation;\n         delta/=1e64;\n         return uint48(int256(lastValue) +delta);\n     }\n  }\n\n}\n",
  "sourcePath": "/home/sduprey/My_TruffleProjects/Decentralized_Orderbook/contracts/MultiLogsTested.sol",
  "compiler": {
    "name": "solc",
    "version": "0.4.23+commit.124ca40d.Emscripten.clang"
  },
  "schemaVersion": "2.0.0",
  "updatedAt": "2018-05-03T07:27:48.939Z"
}