{
  "contractName": "MultiLogs",
  "abi": [
    {
      "constant": true,
      "inputs": [],
      "name": "name",
      "outputs": [
        {
          "name": "",
          "type": "bytes15"
        }
      ],
      "payable": false,
      "stateMutability": "view",
      "type": "function"
    },
    {
      "inputs": [],
      "payable": false,
      "stateMutability": "nonpayable",
      "type": "constructor"
    },
    {
      "anonymous": false,
      "inputs": [
        {
          "indexed": true,
          "name": "name",
          "type": "bytes15"
        },
        {
          "indexed": true,
          "name": "date",
          "type": "uint32"
        },
        {
          "indexed": false,
          "name": "stratVariation",
          "type": "int256"
        },
        {
          "indexed": false,
          "name": "stratPrice",
          "type": "uint48"
        },
        {
          "indexed": false,
          "name": "position",
          "type": "int8"
        },
        {
          "indexed": false,
          "name": "category",
          "type": "int8"
        }
      ],
      "name": "newRecord",
      "type": "event"
    },
    {
      "anonymous": false,
      "inputs": [
        {
          "indexed": false,
          "name": "stratVariation",
          "type": "int256"
        }
      ],
      "name": "absoluteVariation",
      "type": "event"
    },
    {
      "anonymous": false,
      "inputs": [
        {
          "indexed": false,
          "name": "stratVariation",
          "type": "int256"
        }
      ],
      "name": "relativeVariation",
      "type": "event"
    },
    {
      "constant": false,
      "inputs": [
        {
          "name": "dates",
          "type": "uint32[]"
        },
        {
          "name": "prices",
          "type": "uint32[]"
        },
        {
          "name": "positions",
          "type": "int8[]"
        }
      ],
      "name": "batchbacktest",
      "outputs": [],
      "payable": false,
      "stateMutability": "nonpayable",
      "type": "function"
    },
    {
      "constant": false,
      "inputs": [
        {
          "name": "name",
          "type": "bytes15"
        },
        {
          "name": "strategyInitPrice",
          "type": "uint32"
        },
        {
          "name": "dates",
          "type": "uint32[]"
        },
        {
          "name": "prices",
          "type": "uint32[]"
        },
        {
          "name": "positions",
          "type": "int8[]"
        }
      ],
      "name": "libbatchbacktest",
      "outputs": [
        {
          "name": "",
          "type": "uint32"
        }
      ],
      "payable": false,
      "stateMutability": "nonpayable",
      "type": "function"
    }
  ],
  "bytecode": "0x608060405234801561001057600080fd5b507f4d756c746920312e3000000000000000000000000000000000000000000000006000806101000a8154816effffffffffffffffffffffffffffff021916908371010000000000000000000000000000000000900402179055506305f5e100600160020160006101000a81548163ffffffff021916908363ffffffff160217905550610710806100a26000396000f300608060405260043610610057576000357c0100000000000000000000000000000000000000000000000000000000900463ffffffff16806306fdde031461005c5780635a3f6b23146100af578063daa680831461019b575b600080fd5b34801561006857600080fd5b506100716102d5565b604051808270ffffffffffffffffffffffffffffffffff191670ffffffffffffffffffffffffffffffffff1916815260200191505060405180910390f35b3480156100bb57600080fd5b506101996004803603810190808035906020019082018035906020019080806020026020016040519081016040528093929190818152602001838360200280828437820191505050505050919291929080359060200190820180359060200190808060200260200160405190810160405280939291908181526020018383602002808284378201915050505050509192919290803590602001908201803590602001908080602002602001604051908101604052809392919081815260200183836020028082843782019150505050505091929192905050506102f8565b005b3480156101a757600080fd5b506102b3600480360381019080803570ffffffffffffffffffffffffffffffffff19169060200190929190803563ffffffff169060200190929190803590602001908201803590602001908080602002602001604051908101604052809392919081815260200183836020028082843782019150505050505091929192908035906020019082018035906020019080806020026020016040519081016040528093929190818152602001838360200280828437820191505050505050919291929080359060200190820180359060200190808060200260200160405190810160405280939291908181526020018383602002808284378201915050505050509192919290505050610407565b604051808263ffffffff1663ffffffff16815260200191505060405180910390f35b6000809054906101000a9004710100000000000000000000000000000000000281565b6000806000835192508286511480156103115750828551145b151561031c57600080fd5b600160020160009054906101000a900463ffffffff1691506103606000809054906101000a9004710100000000000000000000000000000000000283888888610407565b9050836001840381518110151561037357fe5b90602001906020020151600160000160046101000a81548160ff021916908360000b60ff16021790555085600184038151811015156103ae57fe5b90602001906020020151600160000160006101000a81548163ffffffff021916908363ffffffff16021790555080600160020160006101000a81548163ffffffff021916908363ffffffff160217905550505050505050565b600080600080879250600191505b86518260ff16101561055257610480866001840360ff1681518110151561043857fe5b90602001906020020151878460ff1681518110151561045357fe5b90602001906020020151876001860360ff1681518110151561047157fe5b90602001906020020151610561565b905061048c8184610689565b9250868260ff1681518110151561049f57fe5b9060200190602002015163ffffffff168970ffffffffffffffffffffffffffffffffff19167fc61c7f74327024f41d47bb1b32ae4dd09319feacafd5a5cea629cead5fcb41ee8386898760ff168151811015156104f857fe5b906020019060200201516000604051808581526020018463ffffffff1665ffffffffffff1681526020018360000b60000b81526020018260000b815260200194505050505060405180910390a38180600101925050610415565b82935050505095945050505050565b60008060008360000b1415610579576000905061067e565b8463ffffffff168463ffffffff160390507fa90591e4bf7e23caf9645323480643bf56a8c5b18ab8f50376c46cadb5fda1df816040518082815260200191505060405180910390a17a184f03e93ff9f4daa797ed6e38ed64bf6a1f010000000000000000810290508463ffffffff16818115156105f257fe5b0590507fa6d27444711d142590b6588baa74f4502a38963ba6778c9a80c9c6576543f898816040518082815260200191505060405180910390a17fffffffffffffffffffffffffffffffffffffffffffffffffffffffffffffffff8360000b141561067d577fffffffffffffffffffffffffffffffffffffffffffffffffffffffffffffffff810290505b5b809150509392505050565b600080600084141561069d578291506106dd565b838363ffffffff160290507a184f03e93ff9f4daa797ed6e38ed64bf6a1f010000000000000000818115156106ce57fe5b059050808363ffffffff160191505b50929150505600a165627a7a723058205637d2815985bf6a6b67e2e11d566fb009a9912ada3080a223e66b024d6cc0650029",
  "source": "pragma solidity ^0.4.18;\n\ncontract MultiLogs {\n\n    bytes15 public name;\n\n    struct StrategyExplicitexplicitState {\n      uint32 date;\n      int8 position;\n      int256 variation;\n      uint32 price;\n      int8 category;\n    }\n\n    StrategyExplicitexplicitState explicitState;\n\n    event newRecord(bytes15 indexed name, uint32 indexed date, int256 stratVariation, uint48 stratPrice, int8 position,int8 category);\n\n    event absoluteVariation(int256 stratVariation);\n    event relativeVariation(int256 stratVariation);\n\n    function MultiLogs(){\n        name = \"Multi 1.0\";\n        explicitState.price =100000000;\n    }\n    // that backtesting function requires that the strategy explicitState be at the date matching\n    // the beginning of the array date\n    function batchbacktest(uint32[]dates, uint32[] prices, int8[] positions) public {\n      uint batchlength = positions.length;\n      require(dates.length==batchlength && prices.length==batchlength);\n\n      uint32 strategyInitPrice = explicitState.price;\n\n      uint32 strategyPrice = libbatchbacktest(name,strategyInitPrice,dates,prices,positions);\n\n      explicitState.position = positions[batchlength-1];\n      explicitState.date = dates[batchlength-1];\n      explicitState.price = strategyPrice;\n  \t}\n\n    function libbatchbacktest(bytes15 name, uint32 strategyInitPrice, uint32[]dates, uint32[] prices, int8[] positions) public returns (uint32) {\n         uint32 strategyPrice = strategyInitPrice;\n\n         for(uint8 i=1; i<dates.length; i++){\n\n             int256 variation = calVariation(prices[i-1], prices[i], positions[i-1]);\n             strategyPrice = calValue(variation, strategyPrice);\n\n             emit newRecord(name,dates[i],variation, strategyPrice, positions[i],0);\n         }\n         return strategyPrice;\n   }\n\n   /*------------------------------------------------------------------------\nCompute the variation of price of index according to the last position EOD\n----Arguments:\n       pxPre : price of precedent open dat\n       pxCur : price EOD\n       lastPosit : last position EOD\n----Return:\n       (pxCur/pxPre)^(lastPosit)-1\n-------------------------------------------------------------------------*/\n  function calVariation(uint32 pxPre, uint32 pxCur, int8 lastPosit) internal returns (int256 ){\n     int256 variation;\n     if(lastPosit==0){\n         variation = 0;\n     }\n     else{\n         variation = int256(pxCur) - int256(pxPre);\n         emit absoluteVariation(variation);\n         variation *= 1e64;\n         variation /=  pxPre;\n         emit relativeVariation(variation);\n         if(lastPosit==-1){\n             variation *=-1;\n         }\n     }\n     return variation;\n  }\n\n  /*------------------------------------------------------------------------\n  Compute the algo value EOD for some index\n  ----Arguments:\n     variation : the variation of algo index value\n     lastValue : last algo value EOD\n  ----Return :\n     lastValue*(1+variation)\n  --------------------------------------------------------------------------*/\n  function calValue(int256 variation, uint32 lastValue) internal returns (uint32){\n     if(variation==0) return lastValue;\n     else {\n         int256 delta = int256(lastValue) * variation;\n         delta/=1e64;\n         return uint32(int256(lastValue) +delta);\n     }\n  }\n\n}\n",
  "sourcePath": "/home/sduprey/My_TruffleProjects/Decentralized_Orderbook/contracts/MultiLogs.sol",
  "compiler": {
    "name": "solc",
    "version": "0.4.23+commit.124ca40d.Emscripten.clang"
  },
  "schemaVersion": "2.0.0",
  "updatedAt": "2018-05-03T14:11:03.758Z"
}