{
  "contractName": "SlotManager",
  "abi": [
    {
      "constant": true,
      "inputs": [],
      "name": "slotPrice",
      "outputs": [
        {
          "name": "",
          "type": "uint256"
        }
      ],
      "payable": false,
      "stateMutability": "view",
      "type": "function"
    },
    {
      "constant": true,
      "inputs": [],
      "name": "slotDirection",
      "outputs": [
        {
          "name": "",
          "type": "bool"
        }
      ],
      "payable": false,
      "stateMutability": "view",
      "type": "function"
    },
    {
      "inputs": [
        {
          "name": "_parent",
          "type": "address"
        },
        {
          "name": "_slotPrice",
          "type": "uint256"
        }
      ],
      "payable": false,
      "stateMutability": "nonpayable",
      "type": "constructor"
    },
    {
      "constant": false,
      "inputs": [
        {
          "name": "_quantity",
          "type": "uint256"
        },
        {
          "name": "_price",
          "type": "uint256"
        },
        {
          "name": "_direction",
          "type": "bool"
        },
        {
          "name": "_proposer",
          "type": "address"
        }
      ],
      "name": "stackNewOrder",
      "outputs": [],
      "payable": false,
      "stateMutability": "nonpayable",
      "type": "function"
    },
    {
      "constant": false,
      "inputs": [
        {
          "name": "_quantity",
          "type": "uint256"
        },
        {
          "name": "_price",
          "type": "uint256"
        },
        {
          "name": "_direction",
          "type": "bool"
        },
        {
          "name": "_proposer",
          "type": "address"
        }
      ],
      "name": "handleSlotOrder",
      "outputs": [
        {
          "name": "",
          "type": "uint256"
        }
      ],
      "payable": false,
      "stateMutability": "nonpayable",
      "type": "function"
    },
    {
      "constant": false,
      "inputs": [
        {
          "name": "_quantity",
          "type": "uint256"
        },
        {
          "name": "_price",
          "type": "uint256"
        },
        {
          "name": "_direction",
          "type": "bool"
        },
        {
          "name": "_proposer",
          "type": "address"
        }
      ],
      "name": "handleSlotDeleteOrder",
      "outputs": [],
      "payable": false,
      "stateMutability": "nonpayable",
      "type": "function"
    },
    {
      "constant": false,
      "inputs": [
        {
          "name": "lastIndexToSuppress",
          "type": "uint256"
        }
      ],
      "name": "reallocateOrderBook",
      "outputs": [],
      "payable": false,
      "stateMutability": "nonpayable",
      "type": "function"
    }
  ],
  "bytecode": "0x6060604052341561000f57600080fd5b604051604080610f808339810160405280805190602001909190805190602001909190505081600560006101000a81548173ffffffffffffffffffffffffffffffffffffffff021916908373ffffffffffffffffffffffffffffffffffffffff160217905550806000819055505050610ef38061008d6000396000f300606060405260043610610078576000357c0100000000000000000000000000000000000000000000000000000000900463ffffffff16806304e046561461007d578063110b4aa4146100a657806322398bbe14610110578063481e683e1461013d5780636f8d0c61146101935780639354f2d3146101b6575b600080fd5b341561008857600080fd5b61009061020c565b6040518082815260200191505060405180910390f35b34156100b157600080fd5b6100fa6004808035906020019091908035906020019091908035151590602001909190803573ffffffffffffffffffffffffffffffffffffffff16906020019091905050610212565b6040518082815260200191505060405180910390f35b341561011b57600080fd5b61012361084b565b604051808215151515815260200191505060405180910390f35b341561014857600080fd5b6101916004808035906020019091908035906020019091908035151590602001909190803573ffffffffffffffffffffffffffffffffffffffff1690602001909190505061085e565b005b341561019e57600080fd5b6101b46004808035906020019091905050610a25565b005b34156101c157600080fd5b61020a6004808035906020019091908035906020019091908035151590602001909190803573ffffffffffffffffffffffffffffffffffffffff16906020019091905050610cef565b005b60005481565b6000806000806000600454141561024e5785600160006101000a81548160ff0219169083151502179055506102498888888861085e565b61083d565b600160009054906101000a900460ff161515861515141561027a576102758888888861085e565b61083c565b600160009054906101000a900460ff161561083a5760009250600091505b60028054905082101561082c576002828154811015156102b457fe5b9060005260206000209060040201905087816001015411151561055957600560009054906101000a900473ffffffffffffffffffffffffffffffffffffffff1673ffffffffffffffffffffffffffffffffffffffff16632a7f4998868360030160009054906101000a900473ffffffffffffffffffffffffffffffffffffffff1684600101546040518463ffffffff167c0100000000000000000000000000000000000000000000000000000000028152600401808473ffffffffffffffffffffffffffffffffffffffff1673ffffffffffffffffffffffffffffffffffffffff1681526020018373ffffffffffffffffffffffffffffffffffffffff1673ffffffffffffffffffffffffffffffffffffffff1681526020018281526020019350505050600060405180830381600087803b15156103f157600080fd5b6102c65a03f1151561040257600080fd5b505050600560009054906101000a900473ffffffffffffffffffffffffffffffffffffffff1673ffffffffffffffffffffffffffffffffffffffff16638ff25b408260030160009054906101000a900473ffffffffffffffffffffffffffffffffffffffff1687846001015485600201546040518563ffffffff167c0100000000000000000000000000000000000000000000000000000000028152600401808573ffffffffffffffffffffffffffffffffffffffff1673ffffffffffffffffffffffffffffffffffffffff1681526020018473ffffffffffffffffffffffffffffffffffffffff1673ffffffffffffffffffffffffffffffffffffffff168152602001838152602001828152602001945050505050600060405180830381600087803b151561053157600080fd5b6102c65a03f1151561054257600080fd5b505050806001015488039750600182019250610811565b600560009054906101000a900473ffffffffffffffffffffffffffffffffffffffff1673ffffffffffffffffffffffffffffffffffffffff16632a7f4998868360030160009054906101000a900473ffffffffffffffffffffffffffffffffffffffff168b6040518463ffffffff167c0100000000000000000000000000000000000000000000000000000000028152600401808473ffffffffffffffffffffffffffffffffffffffff1673ffffffffffffffffffffffffffffffffffffffff1681526020018373ffffffffffffffffffffffffffffffffffffffff1673ffffffffffffffffffffffffffffffffffffffff1681526020018281526020019350505050600060405180830381600087803b151561067557600080fd5b6102c65a03f1151561068657600080fd5b505050600560009054906101000a900473ffffffffffffffffffffffffffffffffffffffff1673ffffffffffffffffffffffffffffffffffffffff16638ff25b408260030160009054906101000a900473ffffffffffffffffffffffffffffffffffffffff16878b85600201546040518563ffffffff167c0100000000000000000000000000000000000000000000000000000000028152600401808573ffffffffffffffffffffffffffffffffffffffff1673ffffffffffffffffffffffffffffffffffffffff1681526020018473ffffffffffffffffffffffffffffffffffffffff1673ffffffffffffffffffffffffffffffffffffffff168152602001838152602001828152602001945050505050600060405180830381600087803b15156107b157600080fd5b6102c65a03f115156107c257600080fd5b505050876002838154811015156107d557fe5b906000526020600020906004020160010154036002838154811015156107f757fe5b906000526020600020906004020160010181905550600097505b600088141561081f5761082c565b8180600101925050610298565b61083583610a25565b61083b565b5b5b5b879350505050949350505050565b600160009054906101000a900460ff1681565b6000610868610da9565b858585856040518085815260200184815260200183151515157f01000000000000000000000000000000000000000000000000000000000000000281526001018273ffffffffffffffffffffffffffffffffffffffff1673ffffffffffffffffffffffffffffffffffffffff166c01000000000000000000000000028152601401945050505050604051809103902091506004546003600084600019166000191681526020019081526020016000208190555060a06040519081016040528060045481526020018781526020018681526020018473ffffffffffffffffffffffffffffffffffffffff1681526020018515158152509050600280548060010182816109739190610df1565b9160005260206000209060040201600083909190915060008201518160000155602082015181600101556040820151816002015560608201518160030160006101000a81548173ffffffffffffffffffffffffffffffffffffffff021916908373ffffffffffffffffffffffffffffffffffffffff16021790555060808201518160030160146101000a81548160ff021916908315150217905550505050600160045401600481905550505050505050565b60008060028054905083101515610a3b57610cea565b8291505b600280549050821015610b4a57600282815481101515610a5b57fe5b90600052602060002090600402016002848403815481101515610a7a57fe5b90600052602060002090600402016000820154816000015560018201548160010155600282015481600201556003820160009054906101000a900473ffffffffffffffffffffffffffffffffffffffff168160030160006101000a81548173ffffffffffffffffffffffffffffffffffffffff021916908373ffffffffffffffffffffffffffffffffffffffff1602179055506003820160149054906101000a900460ff168160030160146101000a81548160ff0219169083151502179055509050508180600101925050610a3f565b826002805490500390505b600280549050811015610cd3576002838201815481101515610b7357fe5b9060005260206000209060040201600282815481101515610b9057fe5b90600052602060002090600402016000820154816000015560018201548160010155600282015481600201556003820160009054906101000a900473ffffffffffffffffffffffffffffffffffffffff168160030160006101000a81548173ffffffffffffffffffffffffffffffffffffffff021916908373ffffffffffffffffffffffffffffffffffffffff1602179055506003820160149054906101000a900460ff168160030160146101000a81548160ff021916908315150217905550905050600281815481101515610c6257fe5b9060005260206000209060040201600080820160009055600182016000905560028201600090556003820160006101000a81549073ffffffffffffffffffffffffffffffffffffffff02191690556003820160146101000a81549060ff021916905550508080600101915050610b55565b8260028054905003600281610ce89190610e23565b505b505050565b600080858585856040518085815260200184815260200183151515157f01000000000000000000000000000000000000000000000000000000000000000281526001018273ffffffffffffffffffffffffffffffffffffffff1673ffffffffffffffffffffffffffffffffffffffff166c0100000000000000000000000002815260140194505050505060405180910390209150600360008360001916600019168152602001908152602001600020549050505050505050565b60a060405190810160405280600081526020016000815260200160008152602001600073ffffffffffffffffffffffffffffffffffffffff1681526020016000151581525090565b815481835581811511610e1e57600402816004028360005260206000209182019101610e1d9190610e55565b5b505050565b815481835581811511610e5057600402816004028360005260206000209182019101610e4f9190610e55565b5b505050565b610ec491905b80821115610ec057600080820160009055600182016000905560028201600090556003820160006101000a81549073ffffffffffffffffffffffffffffffffffffffff02191690556003820160146101000a81549060ff021916905550600401610e5b565b5090565b905600a165627a7a72305820b38e374eb25acf781460625abe810b1cd2317b2e05f5a003c2edc55cc48db9410029",
  "source": "pragma solidity ^0.4.18;\r\n\r\nimport \"./DecentralizedOrderBook.sol\";\r\n\r\ncontract SlotManager{\r\n    struct Trade {\r\n        uint index;\r\n        // no need to store the timestamp : implicitly given in the index\r\n        //uint ts;\r\n        uint quantity;\r\n        uint price;\r\n        address proposer;\r\n        bool direction;\r\n    }\r\n    // no need of enum we just use a boolean\r\n    //enum DirectionChoices { Bid, Sell }\r\n\r\n    uint public slotPrice;\r\n    bool public slotDirection;\r\n    Trade[] orderBook;\r\n    mapping (bytes32 => uint) private indexesMap;\r\n    uint slotNumberOrder;\r\n    DecentralizedOrderBook parent;\r\n\r\n    function SlotManager(address _parent,uint _slotPrice){\r\n        parent = DecentralizedOrderBook(_parent);\r\n        slotPrice = _slotPrice;\r\n    }\r\n\r\n   function stackNewOrder(uint _quantity, uint _price, bool _direction, address _proposer){\r\n        bytes32 tradeHash = keccak256(_quantity, _price, _direction, _proposer);\r\n        indexesMap[tradeHash] = slotNumberOrder;\r\n        Trade memory incomingTrade = Trade({index:slotNumberOrder,\r\n                                            quantity: _quantity,\r\n                                            price: _price,\r\n                                            proposer: _proposer,\r\n                                            direction:_direction});\r\n        orderBook.push(incomingTrade);\r\n        slotNumberOrder = slotNumberOrder+1;\r\n   }\r\n\r\n    function handleSlotOrder(uint _quantity, uint _price, bool _direction, address _proposer) public returns (uint){\r\n        // this slot is empty\r\n        // it takes the direction of the first incoming order\r\n        // it then stores the order waiting for an order in the opposite direction\r\n        if (slotNumberOrder == 0){\r\n            // the slot has no direction for the moment : we give it one\r\n            slotDirection = _direction;\r\n            // we stack the incoming order because in the same direction of the slot\r\n            stackNewOrder(_quantity,_price,_direction,_proposer);\r\n        } else if (_direction == slotDirection){\r\n            // we stack the incoming order because in the same direction of the slot\r\n            stackNewOrder(_quantity,_price,_direction,_proposer);\r\n        } else {\r\n            // we loop over all existing orders\r\n            // trying to fill up the incoming order\r\n            // the slot is bid : the incoming order is an ask and the stacked orders are bid\r\n            if (slotDirection){\r\n                uint indexOrderToSuppress = 0;\r\n                for(uint i=0; i< orderBook.length; i++){\r\n                    Trade waitingTrade = orderBook[i];\r\n                    if (waitingTrade.quantity <= _quantity){\r\n                        // the waiting trade which wants to buy will receive the tokens\r\n                        parent.settleToken(_proposer,waitingTrade.proposer,waitingTrade.quantity);\r\n                        parent.settleCash(waitingTrade.proposer,_proposer,waitingTrade.quantity,waitingTrade.price);\r\n                        _quantity = _quantity - waitingTrade.quantity;\r\n                        indexOrderToSuppress = i+1;\r\n                    } else {\r\n                        // the waiting trade which wants to buy will receive the tokens\r\n                        parent.settleToken(_proposer,waitingTrade.proposer,_quantity);\r\n                        parent.settleCash(waitingTrade.proposer,_proposer,_quantity,waitingTrade.price);\r\n                        orderBook[i].quantity = orderBook[i].quantity-_quantity;\r\n                        _quantity = 0;\r\n                    }\r\n                    if (_quantity == 0){\r\n                        break;\r\n                    }\r\n    \t        }\r\n    \t        reallocateOrderBook(indexOrderToSuppress);\r\n            } else {\r\n            // the slot is ask : the incoming order is a bid\r\n            // @todo : do the other side the waiting orders are ask selling orders\r\n            }\r\n\r\n        }\r\n        return _quantity;\r\n    }\r\n\r\n    function handleSlotDeleteOrder(uint _quantity, uint _price, bool _direction, address _proposer) {\r\n        bytes32 tradeHash = keccak256(_quantity, _price, _direction, _proposer);\r\n        uint orderIndex = indexesMap[tradeHash];\r\n        // @todo : delete order : use the keccak256 function to find back the order\r\n        // and then suppress it from the order book array\r\n        // and then give back the money and cancell the allowance\r\n    }\r\n\r\n    function reallocateOrderBook(uint lastIndexToSuppress){\r\n        //worst case : all order books disappear : lastIndexToSuppress == orderBook.length\r\n        // lastIndexToSuppress == 0 : we suppress nothing\r\n        if (lastIndexToSuppress >= orderBook.length) return;\r\n\r\n        // the one at lastIndexToSuppress is the first not to suppress\r\n        for (uint i = lastIndexToSuppress; i<orderBook.length; i++){\r\n            orderBook[i-lastIndexToSuppress] = orderBook[i];\r\n        }\r\n\r\n        for (uint j = orderBook.length - lastIndexToSuppress; j<orderBook.length; j++){\r\n            orderBook[j] = orderBook[j+lastIndexToSuppress];\r\n            delete orderBook[j];\r\n        }\r\n\r\n        orderBook.length = orderBook.length -lastIndexToSuppress;\r\n\r\n    }\r\n}\r\n",
  "sourcePath": "/home/sduprey/My_Truffle_Project/Decentralized_Orderbook/contracts/SlotManager.sol",
  "compiler": {
    "name": "solc",
    "version": "0.4.19+commit.c4cbbb05.Emscripten.clang"
  },
  "schemaVersion": "1.0.1",
  "updatedAt": "2018-04-23T08:10:40.675Z"
}