{
  "contractName": "StrategyManager",
  "abi": [
    {
      "constant": true,
      "inputs": [],
      "name": "name",
      "outputs": [
        {
          "name": "",
          "type": "bytes15"
        }
      ],
      "payable": false,
      "stateMutability": "view",
      "type": "function"
    },
    {
      "constant": true,
      "inputs": [],
      "name": "owner",
      "outputs": [
        {
          "name": "",
          "type": "address"
        }
      ],
      "payable": false,
      "stateMutability": "view",
      "type": "function"
    },
    {
      "constant": true,
      "inputs": [
        {
          "name": "",
          "type": "bytes15"
        }
      ],
      "name": "stratRegistry",
      "outputs": [
        {
          "name": "",
          "type": "string"
        }
      ],
      "payable": false,
      "stateMutability": "view",
      "type": "function"
    },
    {
      "inputs": [
        {
          "name": "_managerName",
          "type": "bytes15"
        }
      ],
      "payable": false,
      "stateMutability": "nonpayable",
      "type": "constructor"
    },
    {
      "anonymous": false,
      "inputs": [
        {
          "indexed": false,
          "name": "name",
          "type": "bytes15"
        },
        {
          "indexed": false,
          "name": "stratAddress",
          "type": "string"
        }
      ],
      "name": "newRegister",
      "type": "event"
    },
    {
      "constant": false,
      "inputs": [
        {
          "name": "_newAddress",
          "type": "string"
        },
        {
          "name": "_stratName",
          "type": "bytes15"
        }
      ],
      "name": "registerNewStrategy",
      "outputs": [],
      "payable": false,
      "stateMutability": "nonpayable",
      "type": "function"
    },
    {
      "constant": true,
      "inputs": [],
      "name": "getAllRegisteredStrategies",
      "outputs": [
        {
          "name": "",
          "type": "bytes15[]"
        }
      ],
      "payable": false,
      "stateMutability": "view",
      "type": "function"
    },
    {
      "constant": true,
      "inputs": [
        {
          "name": "_stratName",
          "type": "bytes15"
        }
      ],
      "name": "getStrategyAddress",
      "outputs": [
        {
          "name": "",
          "type": "string"
        }
      ],
      "payable": false,
      "stateMutability": "view",
      "type": "function"
    }
  ],
  "bytecode": "0x6060604052341561000f57600080fd5b60405160208061097a8339810160405280805190602001909190505080600160006101000a8154816effffffffffffffffffffffffffffff0219169083710100000000000000000000000000000000009004021790555050610904806100766000396000f300606060405260043610610078576000357c0100000000000000000000000000000000000000000000000000000000900463ffffffff16806306fdde031461007d57806323659bc4146100ce5780634ee11d3c146101385780638da5cb5b146101b2578063a1059df914610207578063a500ea01146102b7575b600080fd5b341561008857600080fd5b610090610367565b604051808270ffffffffffffffffffffffffffffffffff191670ffffffffffffffffffffffffffffffffff1916815260200191505060405180910390f35b34156100d957600080fd5b6100e161038b565b6040518080602001828103825283818151815260200191508051906020019060200280838360005b83811015610124578082015181840152602081019050610109565b505050509050019250505060405180910390f35b341561014357600080fd5b6101b0600480803590602001908201803590602001908080601f0160208091040260200160405190810160405280939291908181526020018383808284378201915050505050509190803570ffffffffffffffffffffffffffffffffff1916906020019091905050610431565b005b34156101bd57600080fd5b6101c5610613565b604051808273ffffffffffffffffffffffffffffffffffffffff1673ffffffffffffffffffffffffffffffffffffffff16815260200191505060405180910390f35b341561021257600080fd5b61023c600480803570ffffffffffffffffffffffffffffffffff1916906020019091905050610638565b6040518080602001828103825283818151815260200191508051906020019080838360005b8381101561027c578082015181840152602081019050610261565b50505050905090810190601f1680156102a95780820380516001836020036101000a031916815260200191505b509250505060405180910390f35b34156102c257600080fd5b6102ec600480803570ffffffffffffffffffffffffffffffffff1916906020019091905050610721565b6040518080602001828103825283818151815260200191508051906020019080838360005b8381101561032c578082015181840152602081019050610311565b50505050905090810190601f1680156103595780820380516001836020036101000a031916815260200191505b509250505060405180910390f35b600160009054906101000a9004710100000000000000000000000000000000000281565b6103936107d1565b600280548060200260200160405190810160405280929190818152602001828054801561042757602002820191906000526020600020906000905b82829054906101000a9004710100000000000000000000000000000000000270ffffffffffffffffffffffffffffffffff1916815260200190600f0190602082600e010492830192600103820291508084116103ce5790505b5050505050905090565b6000809054906101000a900473ffffffffffffffffffffffffffffffffffffffff1673ffffffffffffffffffffffffffffffffffffffff163373ffffffffffffffffffffffffffffffffffffffff1614151561048c57600080fd5b81600360008370ffffffffffffffffffffffffffffffffff191670ffffffffffffffffffffffffffffffffff1916815260200190815260200160002090805190602001906104db9291906107e5565b50600280548060010182816104f09190610865565b9160005260206000209060029182820401919006600f0283909190916101000a8154816effffffffffffffffffffffffffffff02191690837101000000000000000000000000000000000090040217905550507f7d02602f5c86675ffa6a996f91408ccfb87a19b64b2b81cd2ef9cd65293fcd478183604051808370ffffffffffffffffffffffffffffffffff191670ffffffffffffffffffffffffffffffffff1916815260200180602001828103825283818151815260200191508051906020019080838360005b838110156105d45780820151818401526020810190506105b9565b50505050905090810190601f1680156106015780820380516001836020036101000a031916815260200191505b50935050505060405180910390a15050565b6000809054906101000a900473ffffffffffffffffffffffffffffffffffffffff1681565b61064061089f565b6000600360008470ffffffffffffffffffffffffffffffffff191670ffffffffffffffffffffffffffffffffff191681526020019081526020016000209050808054600181600116156101000203166002900480601f0160208091040260200160405190810160405280929190818152602001828054600181600116156101000203166002900480156107145780601f106106e957610100808354040283529160200191610714565b820191906000526020600020905b8154815290600101906020018083116106f757829003601f168201915b5050505050915050919050565b60036020528060005260406000206000915090508054600181600116156101000203166002900480601f0160208091040260200160405190810160405280929190818152602001828054600181600116156101000203166002900480156107c95780601f1061079e576101008083540402835291602001916107c9565b820191906000526020600020905b8154815290600101906020018083116107ac57829003601f168201915b505050505081565b602060405190810160405280600081525090565b828054600181600116156101000203166002900490600052602060002090601f016020900481019282601f1061082657805160ff1916838001178555610854565b82800160010185558215610854579182015b82811115610853578251825591602001919060010190610838565b5b50905061086191906108b3565b5090565b81548183558181151161089a57600101600290048160010160029004836000526020600020918201910161089991906108b3565b5b505050565b602060405190810160405280600081525090565b6108d591905b808211156108d15760008160009055506001016108b9565b5090565b905600a165627a7a723058201fb016e1d77b966ae64d3a16e65f40767ce97ff7a490029db2305494b662260d0029",
  "source": "pragma solidity ^0.4.18;\n\ncontract StrategyManager{\n\n    address public owner;\n    bytes15 public name;      //the name of the strategy\n    bytes15[] strategies;\n\n    //mapping(bytes15 => StrategyPublisher) public stratRegistry;\n    mapping(bytes15 => string) public stratRegistry;\n\n    event newRegister(bytes15 name, string stratAddress);\n\n\n    modifier onlyOwner(){\n        require(msg.sender==owner);\n        _;\n    }\n\n    function StrategyManager(bytes15 _managerName){\n      name = _managerName;\n    }\n\n    function registerNewStrategy(string _newAddress, bytes15 _stratName) onlyOwner {\n      stratRegistry[_stratName] = _newAddress;\n      strategies.push(_stratName);\n      newRegister(_stratName, _newAddress);\n    }\n\n    function getAllRegisteredStrategies() public constant returns (bytes15[]) {\n      return(strategies);\n    }\n\n    function getStrategyAddress(bytes15 _stratName) public constant returns (string){\n      string myAddress = stratRegistry[_stratName];\n      return  myAddress;\n    }\n\n}\n",
  "sourcePath": "/home/sduprey/My_Truffle_Project/Decentralized_Orderbook/contracts/StrategyManager.sol",
  "compiler": {
    "name": "solc",
    "version": "0.4.19+commit.c4cbbb05.Emscripten.clang"
  },
  "schemaVersion": "1.0.1",
  "updatedAt": "2018-04-23T10:18:17.092Z"
}