{
  "contractName": "StrategyManager",
  "abi": [
    {
      "constant": true,
      "inputs": [],
      "name": "name",
      "outputs": [
        {
          "name": "",
          "type": "bytes15"
        }
      ],
      "payable": false,
      "stateMutability": "view",
      "type": "function"
    },
    {
      "constant": true,
      "inputs": [],
      "name": "owner",
      "outputs": [
        {
          "name": "",
          "type": "address"
        }
      ],
      "payable": false,
      "stateMutability": "view",
      "type": "function"
    },
    {
      "constant": true,
      "inputs": [
        {
          "name": "",
          "type": "bytes15"
        }
      ],
      "name": "stratRegistry",
      "outputs": [
        {
          "name": "",
          "type": "string"
        }
      ],
      "payable": false,
      "stateMutability": "view",
      "type": "function"
    },
    {
      "inputs": [
        {
          "name": "_managerName",
          "type": "bytes15"
        }
      ],
      "payable": false,
      "stateMutability": "nonpayable",
      "type": "constructor"
    },
    {
      "anonymous": false,
      "inputs": [
        {
          "indexed": false,
          "name": "name",
          "type": "bytes15"
        },
        {
          "indexed": false,
          "name": "stratAddress",
          "type": "string"
        }
      ],
      "name": "newRegister",
      "type": "event"
    },
    {
      "constant": false,
      "inputs": [
        {
          "name": "_newAddress",
          "type": "string"
        },
        {
          "name": "_stratName",
          "type": "bytes15"
        }
      ],
      "name": "registerNewStrategy",
      "outputs": [],
      "payable": false,
      "stateMutability": "nonpayable",
      "type": "function"
    },
    {
      "constant": true,
      "inputs": [],
      "name": "getAllRegisteredStrategies",
      "outputs": [
        {
          "name": "",
          "type": "bytes15[]"
        }
      ],
      "payable": false,
      "stateMutability": "view",
      "type": "function"
    },
    {
      "constant": true,
      "inputs": [
        {
          "name": "_stratName",
          "type": "bytes15"
        }
      ],
      "name": "getStrategyAddress",
      "outputs": [
        {
          "name": "",
          "type": "string"
        }
      ],
      "payable": false,
      "stateMutability": "view",
      "type": "function"
    }
  ],
  "bytecode": "0x6060604052341561000f57600080fd5b6040516020806107188339810160405280805190602001909190505080600160006101000a8154816effffffffffffffffffffffffffffff02191690837101000000000000000000000000000000000090040217905550506106a2806100766000396000f300606060405260043610610078576000357c0100000000000000000000000000000000000000000000000000000000900463ffffffff16806306fdde031461007d57806323659bc4146100ce5780634ee11d3c146101385780638da5cb5b146101b2578063a1059df914610207578063a500ea01146102b7575b600080fd5b341561008857600080fd5b610090610367565b604051808270ffffffffffffffffffffffffffffffffff191670ffffffffffffffffffffffffffffffffff1916815260200191505060405180910390f35b34156100d957600080fd5b6100e161038b565b6040518080602001828103825283818151815260200191508051906020019060200280838360005b83811015610124578082015181840152602081019050610109565b505050509050019250505060405180910390f35b341561014357600080fd5b6101b0600480803590602001908201803590602001908080601f0160208091040260200160405190810160405280939291908181526020018383808284378201915050505050509190803570ffffffffffffffffffffffffffffffffff1916906020019091905050610431565b005b34156101bd57600080fd5b6101c5610490565b604051808273ffffffffffffffffffffffffffffffffffffffff1673ffffffffffffffffffffffffffffffffffffffff16815260200191505060405180910390f35b341561021257600080fd5b61023c600480803570ffffffffffffffffffffffffffffffffff19169060200190919050506104b5565b6040518080602001828103825283818151815260200191508051906020019080838360005b8381101561027c578082015181840152602081019050610261565b50505050905090810190601f1680156102a95780820380516001836020036101000a031916815260200191505b509250505060405180910390f35b34156102c257600080fd5b6102ec600480803570ffffffffffffffffffffffffffffffffff191690602001909190505061059e565b6040518080602001828103825283818151815260200191508051906020019080838360005b8381101561032c578082015181840152602081019050610311565b50505050905090810190601f1680156103595780820380516001836020036101000a031916815260200191505b509250505060405180910390f35b600160009054906101000a9004710100000000000000000000000000000000000281565b61039361064e565b600280548060200260200160405190810160405280929190818152602001828054801561042757602002820191906000526020600020906000905b82829054906101000a9004710100000000000000000000000000000000000270ffffffffffffffffffffffffffffffffff1916815260200190600f0190602082600e010492830192600103820291508084116103ce5790505b5050505050905090565b6000809054906101000a900473ffffffffffffffffffffffffffffffffffffffff1673ffffffffffffffffffffffffffffffffffffffff163373ffffffffffffffffffffffffffffffffffffffff1614151561048c57600080fd5b5050565b6000809054906101000a900473ffffffffffffffffffffffffffffffffffffffff1681565b6104bd610662565b6000600360008470ffffffffffffffffffffffffffffffffff191670ffffffffffffffffffffffffffffffffff191681526020019081526020016000209050808054600181600116156101000203166002900480601f0160208091040260200160405190810160405280929190818152602001828054600181600116156101000203166002900480156105915780601f1061056657610100808354040283529160200191610591565b820191906000526020600020905b81548152906001019060200180831161057457829003601f168201915b5050505050915050919050565b60036020528060005260406000206000915090508054600181600116156101000203166002900480601f0160208091040260200160405190810160405280929190818152602001828054600181600116156101000203166002900480156106465780601f1061061b57610100808354040283529160200191610646565b820191906000526020600020905b81548152906001019060200180831161062957829003601f168201915b505050505081565b602060405190810160405280600081525090565b6020604051908101604052806000815250905600a165627a7a72305820d61806f309d19e52af9dd910dfa9a6a57127458b3556213f9a888033b86c8e0f0029",
  "source": "pragma solidity ^0.4.18;\n\ncontract StrategyManager{\n\n    address public owner;\n    bytes15 public name;      //the name of the strategy\n    bytes15[] strategies;\n\n    //mapping(bytes15 => StrategyPublisher) public stratRegistry;\n    mapping(bytes15 => string) public stratRegistry;\n\n    event newRegister(bytes15 name, string stratAddress);\n\n\n    modifier onlyOwner(){\n        require(msg.sender==owner);\n        _;\n    }\n\n    function StrategyManager(bytes15 _managerName){\n      name = _managerName;\n    }\n\n    function registerNewStrategy(string _newAddress, bytes15 _stratName) onlyOwner {\n      //stratRegistry[_stratName] = _newAddress;\n      //strategies.push(_stratName);\n      //newRegister(_stratName, _newAddress);\n    }\n\n    function getAllRegisteredStrategies() public constant returns (bytes15[]) {\n      return(strategies);\n    }\n\n    function getStrategyAddress(bytes15 _stratName) public constant returns (string){\n      string myAddress = stratRegistry[_stratName];\n      return  myAddress;\n    }\n\n}\n",
  "sourcePath": "/home/sduprey/My_Truffle_Project/Decentralized_Orderbook/contracts/StrategyManager.sol",
  "compiler": {
    "name": "solc",
    "version": "0.4.19+commit.c4cbbb05.Emscripten.clang"
  },
  "schemaVersion": "1.0.1",
  "updatedAt": "2018-04-23T10:58:17.473Z"
}