{
  "contractName": "StrategyCrud",
  "abi": [
    {
      "inputs": [
        {
          "name": "_name",
          "type": "bytes15"
        }
      ],
      "payable": false,
      "stateMutability": "nonpayable",
      "type": "constructor"
    },
    {
      "anonymous": false,
      "inputs": [
        {
          "indexed": true,
          "name": "strategyName",
          "type": "bytes15"
        },
        {
          "indexed": false,
          "name": "index",
          "type": "uint256"
        },
        {
          "indexed": false,
          "name": "strategyAddress",
          "type": "address"
        },
        {
          "indexed": false,
          "name": "strategyCategory",
          "type": "uint256"
        }
      ],
      "name": "LogNewStrategy",
      "type": "event"
    },
    {
      "anonymous": false,
      "inputs": [
        {
          "indexed": true,
          "name": "strategyName",
          "type": "bytes15"
        },
        {
          "indexed": false,
          "name": "index",
          "type": "uint256"
        },
        {
          "indexed": false,
          "name": "strategyAddress",
          "type": "address"
        },
        {
          "indexed": false,
          "name": "strategyCategory",
          "type": "uint256"
        }
      ],
      "name": "LogUpdateStrategy",
      "type": "event"
    },
    {
      "anonymous": false,
      "inputs": [
        {
          "indexed": true,
          "name": "strategyName",
          "type": "bytes15"
        },
        {
          "indexed": false,
          "name": "index",
          "type": "uint256"
        }
      ],
      "name": "LogDeleteStrategy",
      "type": "event"
    },
    {
      "constant": true,
      "inputs": [
        {
          "name": "strategyName",
          "type": "bytes15"
        }
      ],
      "name": "isStrategy",
      "outputs": [
        {
          "name": "isIndeed",
          "type": "bool"
        }
      ],
      "payable": false,
      "stateMutability": "view",
      "type": "function"
    },
    {
      "constant": false,
      "inputs": [
        {
          "name": "strategyName",
          "type": "bytes15"
        },
        {
          "name": "strategyAddress",
          "type": "address"
        },
        {
          "name": "strategyCategory",
          "type": "uint256"
        }
      ],
      "name": "insertStrategy",
      "outputs": [
        {
          "name": "index",
          "type": "uint256"
        }
      ],
      "payable": false,
      "stateMutability": "nonpayable",
      "type": "function"
    },
    {
      "constant": false,
      "inputs": [
        {
          "name": "strategyName",
          "type": "bytes15"
        }
      ],
      "name": "deleteStrategy",
      "outputs": [
        {
          "name": "index",
          "type": "uint256"
        }
      ],
      "payable": false,
      "stateMutability": "nonpayable",
      "type": "function"
    },
    {
      "constant": true,
      "inputs": [
        {
          "name": "strategyName",
          "type": "bytes15"
        }
      ],
      "name": "getStrategy",
      "outputs": [
        {
          "name": "strategyAddress",
          "type": "address"
        },
        {
          "name": "strategyCategory",
          "type": "uint256"
        },
        {
          "name": "index",
          "type": "uint256"
        }
      ],
      "payable": false,
      "stateMutability": "view",
      "type": "function"
    },
    {
      "constant": false,
      "inputs": [
        {
          "name": "strategyName",
          "type": "bytes15"
        },
        {
          "name": "strategyAddress",
          "type": "address"
        }
      ],
      "name": "updateStrategyAddress",
      "outputs": [
        {
          "name": "success",
          "type": "bool"
        }
      ],
      "payable": false,
      "stateMutability": "nonpayable",
      "type": "function"
    },
    {
      "constant": false,
      "inputs": [
        {
          "name": "strategyName",
          "type": "bytes15"
        },
        {
          "name": "strategyCategory",
          "type": "uint256"
        }
      ],
      "name": "updateStrategyCategory",
      "outputs": [
        {
          "name": "success",
          "type": "bool"
        }
      ],
      "payable": false,
      "stateMutability": "nonpayable",
      "type": "function"
    },
    {
      "constant": true,
      "inputs": [],
      "name": "getStrategyCount",
      "outputs": [
        {
          "name": "count",
          "type": "uint256"
        }
      ],
      "payable": false,
      "stateMutability": "view",
      "type": "function"
    },
    {
      "constant": true,
      "inputs": [
        {
          "name": "index",
          "type": "uint256"
        }
      ],
      "name": "getStrategyAtIndex",
      "outputs": [
        {
          "name": "strategyName",
          "type": "bytes15"
        }
      ],
      "payable": false,
      "stateMutability": "view",
      "type": "function"
    }
  ],
  "bytecode": "0x6060604052341561000f57600080fd5b6040516020806110dc8339810160405280805190602001909190505033600160006101000a81548173ffffffffffffffffffffffffffffffffffffffff021916908373ffffffffffffffffffffffffffffffffffffffff160217905550806000806101000a8154816effffffffffffffffffffffffffffff0219169083710100000000000000000000000000000000009004021790555050611026806100b66000396000f30060606040526004361061008e576000357c0100000000000000000000000000000000000000000000000000000000900463ffffffff16806323d2d19b1461009357806331e19cfa1461010657806341d1a4d61461012f5780636977083e1461018e578063b0e572c8146101fc578063e0fe4a8414610281578063e43ba0bd146102d9578063edfceace14610328575b600080fd5b341561009e57600080fd5b6100f0600480803570ffffffffffffffffffffffffffffffffff191690602001909190803573ffffffffffffffffffffffffffffffffffffffff16906020019091908035906020019091905050610373565b6040518082815260200191505060405180910390f35b341561011157600080fd5b610119610627565b6040518082815260200191505060405180910390f35b341561013a57600080fd5b6101506004808035906020019091905050610634565b604051808270ffffffffffffffffffffffffffffffffff191670ffffffffffffffffffffffffffffffffff1916815260200191505060405180910390f35b341561019957600080fd5b6101e2600480803570ffffffffffffffffffffffffffffffffff191690602001909190803573ffffffffffffffffffffffffffffffffffffffff16906020019091905050610680565b604051808215151515815260200191505060405180910390f35b341561020757600080fd5b610231600480803570ffffffffffffffffffffffffffffffffff191690602001909190505061087d565b604051808473ffffffffffffffffffffffffffffffffffffffff1673ffffffffffffffffffffffffffffffffffffffff168152602001838152602001828152602001935050505060405180910390f35b341561028c57600080fd5b6102bf600480803570ffffffffffffffffffffffffffffffffff1916906020019091908035906020019091905050610980565b604051808215151515815260200191505060405180910390f35b34156102e457600080fd5b61030e600480803570ffffffffffffffffffffffffffffffffff1916906020019091905050610b63565b604051808215151515815260200191505060405180910390f35b341561033357600080fd5b61035d600480803570ffffffffffffffffffffffffffffffffff1916906020019091905050610c2e565b6040518082815260200191505060405180910390f35b6000600160009054906101000a900473ffffffffffffffffffffffffffffffffffffffff1673ffffffffffffffffffffffffffffffffffffffff163373ffffffffffffffffffffffffffffffffffffffff161415156103d157600080fd5b6103da84610b63565b156103e457600080fd5b82600260008670ffffffffffffffffffffffffffffffffff191670ffffffffffffffffffffffffffffffffff1916815260200190815260200160002060000160006101000a81548173ffffffffffffffffffffffffffffffffffffffff021916908373ffffffffffffffffffffffffffffffffffffffff16021790555081600260008670ffffffffffffffffffffffffffffffffff191670ffffffffffffffffffffffffffffffffff19168152602001908152602001600020600101819055506001600380548060010182816104ba9190610f61565b9160005260206000209060029182820401919006600f0287909190916101000a8154816effffffffffffffffffffffffffffff0219169083710100000000000000000000000000000000009004021790555003600260008670ffffffffffffffffffffffffffffffffff191670ffffffffffffffffffffffffffffffffff19168152602001908152602001600020600201819055508370ffffffffffffffffffffffffffffffffff19167fc6789ad3b9f6ba82bbe3ff2ed4b6b77e4181f62b73e90f00d8682129633cb832600260008770ffffffffffffffffffffffffffffffffff191670ffffffffffffffffffffffffffffffffff19168152602001908152602001600020600201548585604051808481526020018373ffffffffffffffffffffffffffffffffffffffff1673ffffffffffffffffffffffffffffffffffffffff168152602001828152602001935050505060405180910390a260016003805490500390509392505050565b6000600380549050905090565b600060038281548110151561064557fe5b9060005260206000209060029182820401919006600f029054906101000a900471010000000000000000000000000000000000029050919050565b6000600160009054906101000a900473ffffffffffffffffffffffffffffffffffffffff1673ffffffffffffffffffffffffffffffffffffffff163373ffffffffffffffffffffffffffffffffffffffff161415156106de57600080fd5b6106e783610b63565b15156106f257600080fd5b81600260008570ffffffffffffffffffffffffffffffffff191670ffffffffffffffffffffffffffffffffff1916815260200190815260200160002060000160006101000a81548173ffffffffffffffffffffffffffffffffffffffff021916908373ffffffffffffffffffffffffffffffffffffffff1602179055508270ffffffffffffffffffffffffffffffffff19167fa0859cc35205f8d69a0fbea1eef87bd8f02c7d9abf587753cfc719f33e1ec806600260008670ffffffffffffffffffffffffffffffffff191670ffffffffffffffffffffffffffffffffff191681526020019081526020016000206002015484600260008870ffffffffffffffffffffffffffffffffff191670ffffffffffffffffffffffffffffffffff1916815260200190815260200160002060010154604051808481526020018373ffffffffffffffffffffffffffffffffffffffff1673ffffffffffffffffffffffffffffffffffffffff168152602001828152602001935050505060405180910390a26001905092915050565b600080600061088b84610b63565b151561089657600080fd5b600260008570ffffffffffffffffffffffffffffffffff191670ffffffffffffffffffffffffffffffffff1916815260200190815260200160002060000160009054906101000a900473ffffffffffffffffffffffffffffffffffffffff16600260008670ffffffffffffffffffffffffffffffffff191670ffffffffffffffffffffffffffffffffff1916815260200190815260200160002060010154600260008770ffffffffffffffffffffffffffffffffff191670ffffffffffffffffffffffffffffffffff19168152602001908152602001600020600201549250925092509193909250565b6000600160009054906101000a900473ffffffffffffffffffffffffffffffffffffffff1673ffffffffffffffffffffffffffffffffffffffff163373ffffffffffffffffffffffffffffffffffffffff161415156109de57600080fd5b6109e783610b63565b15156109f257600080fd5b81600260008570ffffffffffffffffffffffffffffffffff191670ffffffffffffffffffffffffffffffffff19168152602001908152602001600020600101819055508270ffffffffffffffffffffffffffffffffff19167fa0859cc35205f8d69a0fbea1eef87bd8f02c7d9abf587753cfc719f33e1ec806600260008670ffffffffffffffffffffffffffffffffff191670ffffffffffffffffffffffffffffffffff1916815260200190815260200160002060020154600260008770ffffffffffffffffffffffffffffffffff191670ffffffffffffffffffffffffffffffffff1916815260200190815260200160002060000160009054906101000a900473ffffffffffffffffffffffffffffffffffffffff1685604051808481526020018373ffffffffffffffffffffffffffffffffffffffff1673ffffffffffffffffffffffffffffffffffffffff168152602001828152602001935050505060405180910390a26001905092915050565b6000806003805490501415610b7b5760009050610c29565b8170ffffffffffffffffffffffffffffffffff19166003600260008570ffffffffffffffffffffffffffffffffff191670ffffffffffffffffffffffffffffffffff1916815260200190815260200160002060020154815481101515610bdd57fe5b9060005260206000209060029182820401919006600f029054906101000a9004710100000000000000000000000000000000000270ffffffffffffffffffffffffffffffffff19161490505b919050565b6000806000600160009054906101000a900473ffffffffffffffffffffffffffffffffffffffff1673ffffffffffffffffffffffffffffffffffffffff163373ffffffffffffffffffffffffffffffffffffffff16141515610c8f57600080fd5b610c9884610b63565b1515610ca357600080fd5b600260008570ffffffffffffffffffffffffffffffffff191670ffffffffffffffffffffffffffffffffff191681526020019081526020016000206002015491506003600160038054905003815481101515610cfb57fe5b9060005260206000209060029182820401919006600f029054906101000a90047101000000000000000000000000000000000002905080600383815481101515610d4157fe5b9060005260206000209060029182820401919006600f026101000a8154816effffffffffffffffffffffffffffff0219169083710100000000000000000000000000000000009004021790555081600260008370ffffffffffffffffffffffffffffffffff191670ffffffffffffffffffffffffffffffffff19168152602001908152602001600020600201819055506003805480919060019003610de69190610f9b565b508370ffffffffffffffffffffffffffffffffff19167fbdf9c388e6a94dcb2d9de55108de5d2abf78575c99ce1de23cbda5a9bcfcfb83836040518082815260200191505060405180910390a28070ffffffffffffffffffffffffffffffffff19167fa0859cc35205f8d69a0fbea1eef87bd8f02c7d9abf587753cfc719f33e1ec80683600260008570ffffffffffffffffffffffffffffffffff191670ffffffffffffffffffffffffffffffffff1916815260200190815260200160002060000160009054906101000a900473ffffffffffffffffffffffffffffffffffffffff16600260008670ffffffffffffffffffffffffffffffffff191670ffffffffffffffffffffffffffffffffff1916815260200190815260200160002060010154604051808481526020018373ffffffffffffffffffffffffffffffffffffffff1673ffffffffffffffffffffffffffffffffffffffff168152602001828152602001935050505060405180910390a28192505050919050565b815481835581811511610f96576001016002900481600101600290048360005260206000209182019101610f959190610fd5565b5b505050565b815481835581811511610fd0576001016002900481600101600290048360005260206000209182019101610fcf9190610fd5565b5b505050565b610ff791905b80821115610ff3576000816000905550600101610fdb565b5090565b905600a165627a7a72305820bbddd72dae67fdce98433ceabeff9ade5c97e6f9217a28e5675ef424606328e40029",
  "source": "pragma solidity ^0.4.6;\n\ncontract StrategyCrud {\n\n  bytes15 managerName;\n  address owner;\n\n  struct StrategyStruct {\n    address strategyAddress;\n    uint strategyCategory;\n    uint index;\n  }\n\n  mapping(bytes15 => StrategyStruct) private strategyStructs;\n  bytes15[] private strategyIndex;\n\n  event LogNewStrategy   (bytes15 indexed strategyName, uint index, address strategyAddress, uint strategyCategory);\n  event LogUpdateStrategy(bytes15 indexed strategyName, uint index, address strategyAddress, uint strategyCategory);\n  event LogDeleteStrategy(bytes15 indexed strategyName, uint index);\n\n  modifier onlyOwner(){\n      require(msg.sender==owner);\n      _;\n  }\n\n  function StrategyCrud(bytes15 _name){\n      owner = msg.sender;\n      managerName = _name;\n  }\n\n  function isStrategy(bytes15 strategyName)\n    public\n    constant\n    returns(bool isIndeed)\n  {\n    if(strategyIndex.length == 0) return false;\n    return (strategyIndex[strategyStructs[strategyName].index] == strategyName);\n  }\n\n  function insertStrategy(\n    bytes15 strategyName,\n    address strategyAddress,\n    uint    strategyCategory)\n    onlyOwner\n    public\n    returns(uint index)\n  {\n    if(isStrategy(strategyName)) throw;\n    strategyStructs[strategyName].strategyAddress = strategyAddress;\n    strategyStructs[strategyName].strategyCategory   = strategyCategory;\n    strategyStructs[strategyName].index     = strategyIndex.push(strategyName)-1;\n    LogNewStrategy(\n        strategyName,\n        strategyStructs[strategyName].index,\n        strategyAddress,\n        strategyCategory);\n    return strategyIndex.length-1;\n  }\n\n  function deleteStrategy(bytes15 strategyName)\n    onlyOwner\n    public\n    returns(uint index)\n  {\n    if(!isStrategy(strategyName)) throw;\n    uint rowToDelete = strategyStructs[strategyName].index;\n    bytes15 keyToMove = strategyIndex[strategyIndex.length-1];\n    strategyIndex[rowToDelete] = keyToMove;\n    strategyStructs[keyToMove].index = rowToDelete;\n    strategyIndex.length--;\n    LogDeleteStrategy(\n        strategyName,\n        rowToDelete);\n    LogUpdateStrategy(\n        keyToMove,\n        rowToDelete,\n        strategyStructs[keyToMove].strategyAddress,\n        strategyStructs[keyToMove].strategyCategory);\n    return rowToDelete;\n  }\n\n  function getStrategy(bytes15 strategyName)\n    public\n    constant\n    returns(address strategyAddress, uint strategyCategory, uint index)\n  {\n    if(!isStrategy(strategyName)) throw;\n    return(\n      strategyStructs[strategyName].strategyAddress,\n      strategyStructs[strategyName].strategyCategory,\n      strategyStructs[strategyName].index);\n  }\n\n  function updateStrategyAddress(bytes15 strategyName, address strategyAddress)\n    onlyOwner\n    public\n    returns(bool success)\n  {\n    if(!isStrategy(strategyName)) throw;\n    strategyStructs[strategyName].strategyAddress = strategyAddress;\n    LogUpdateStrategy(\n      strategyName,\n      strategyStructs[strategyName].index,\n      strategyAddress,\n      strategyStructs[strategyName].strategyCategory);\n    return true;\n  }\n\n  function updateStrategyCategory(bytes15 strategyName, uint strategyCategory)\n    onlyOwner\n    public\n    returns(bool success)\n  {\n    if(!isStrategy(strategyName)) throw;\n    strategyStructs[strategyName].strategyCategory = strategyCategory;\n    LogUpdateStrategy(\n      strategyName,\n      strategyStructs[strategyName].index,\n      strategyStructs[strategyName].strategyAddress,\n      strategyCategory);\n    return true;\n  }\n\n  function getStrategyCount()\n    public\n    constant\n    returns(uint count)\n  {\n    return strategyIndex.length;\n  }\n\n  function getStrategyAtIndex(uint index)\n    public\n    constant\n    returns(bytes15 strategyName)\n  {\n    return strategyIndex[index];\n  }\n\n}\n",
  "sourcePath": "/home/sduprey/My_Truffle_Project/Decentralized_Orderbook/contracts/StrategyCRUD.sol",
  "compiler": {
    "name": "solc",
    "version": "0.4.19+commit.c4cbbb05.Emscripten.clang"
  },
  "schemaVersion": "1.0.1",
  "updatedAt": "2018-04-23T15:49:03.067Z"
}