{
  "contractName": "StrategyManager",
  "abi": [
    {
      "constant": true,
      "inputs": [],
      "name": "name",
      "outputs": [
        {
          "name": "",
          "type": "bytes15"
        }
      ],
      "payable": false,
      "stateMutability": "view",
      "type": "function"
    },
    {
      "constant": true,
      "inputs": [],
      "name": "owner",
      "outputs": [
        {
          "name": "",
          "type": "address"
        }
      ],
      "payable": false,
      "stateMutability": "view",
      "type": "function"
    },
    {
      "constant": true,
      "inputs": [
        {
          "name": "",
          "type": "bytes15"
        }
      ],
      "name": "stratRegistry",
      "outputs": [
        {
          "name": "",
          "type": "string"
        }
      ],
      "payable": false,
      "stateMutability": "view",
      "type": "function"
    },
    {
      "inputs": [
        {
          "name": "_managerName",
          "type": "bytes15"
        }
      ],
      "payable": false,
      "stateMutability": "nonpayable",
      "type": "constructor"
    },
    {
      "anonymous": false,
      "inputs": [
        {
          "indexed": false,
          "name": "name",
          "type": "bytes15"
        },
        {
          "indexed": false,
          "name": "stratAddress",
          "type": "string"
        }
      ],
      "name": "newRegister",
      "type": "event"
    },
    {
      "constant": false,
      "inputs": [
        {
          "name": "_newAddress",
          "type": "string"
        },
        {
          "name": "_stratName",
          "type": "bytes15"
        }
      ],
      "name": "registerNewStrategy",
      "outputs": [],
      "payable": false,
      "stateMutability": "nonpayable",
      "type": "function"
    },
    {
      "constant": true,
      "inputs": [],
      "name": "getAllRegisteredStrategies",
      "outputs": [
        {
          "name": "",
          "type": "bytes15[]"
        }
      ],
      "payable": false,
      "stateMutability": "view",
      "type": "function"
    }
  ],
  "bytecode": "0x6060604052341561000f57600080fd5b6040516020806107c28339810160405280805190602001909190505080600160006101000a8154816effffffffffffffffffffffffffffff021916908371010000000000000000000000000000000000900402179055505061074c806100766000396000f30060606040526004361061006d576000357c0100000000000000000000000000000000000000000000000000000000900463ffffffff16806306fdde031461007257806323659bc4146100c35780634ee11d3c1461012d5780638da5cb5b146101a7578063a500ea01146101fc575b600080fd5b341561007d57600080fd5b6100856102ac565b604051808270ffffffffffffffffffffffffffffffffff191670ffffffffffffffffffffffffffffffffff1916815260200191505060405180910390f35b34156100ce57600080fd5b6100d66102d0565b6040518080602001828103825283818151815260200191508051906020019060200280838360005b838110156101195780820151818401526020810190506100fe565b505050509050019250505060405180910390f35b341561013857600080fd5b6101a5600480803590602001908201803590602001908080601f0160208091040260200160405190810160405280939291908181526020018383808284378201915050505050509190803570ffffffffffffffffffffffffffffffffff1916906020019091905050610376565b005b34156101b257600080fd5b6101ba610558565b604051808273ffffffffffffffffffffffffffffffffffffffff1673ffffffffffffffffffffffffffffffffffffffff16815260200191505060405180910390f35b341561020757600080fd5b610231600480803570ffffffffffffffffffffffffffffffffff191690602001909190505061057d565b6040518080602001828103825283818151815260200191508051906020019080838360005b83811015610271578082015181840152602081019050610256565b50505050905090810190601f16801561029e5780820380516001836020036101000a031916815260200191505b509250505060405180910390f35b600160009054906101000a9004710100000000000000000000000000000000000281565b6102d861062d565b600280548060200260200160405190810160405280929190818152602001828054801561036c57602002820191906000526020600020906000905b82829054906101000a9004710100000000000000000000000000000000000270ffffffffffffffffffffffffffffffffff1916815260200190600f0190602082600e010492830192600103820291508084116103135790505b5050505050905090565b6000809054906101000a900473ffffffffffffffffffffffffffffffffffffffff1673ffffffffffffffffffffffffffffffffffffffff163373ffffffffffffffffffffffffffffffffffffffff161415156103d157600080fd5b81600360008370ffffffffffffffffffffffffffffffffff191670ffffffffffffffffffffffffffffffffff191681526020019081526020016000209080519060200190610420929190610641565b506002805480600101828161043591906106c1565b9160005260206000209060029182820401919006600f0283909190916101000a8154816effffffffffffffffffffffffffffff02191690837101000000000000000000000000000000000090040217905550507f7d02602f5c86675ffa6a996f91408ccfb87a19b64b2b81cd2ef9cd65293fcd478183604051808370ffffffffffffffffffffffffffffffffff191670ffffffffffffffffffffffffffffffffff1916815260200180602001828103825283818151815260200191508051906020019080838360005b838110156105195780820151818401526020810190506104fe565b50505050905090810190601f1680156105465780820380516001836020036101000a031916815260200191505b50935050505060405180910390a15050565b6000809054906101000a900473ffffffffffffffffffffffffffffffffffffffff1681565b60036020528060005260406000206000915090508054600181600116156101000203166002900480601f0160208091040260200160405190810160405280929190818152602001828054600181600116156101000203166002900480156106255780601f106105fa57610100808354040283529160200191610625565b820191906000526020600020905b81548152906001019060200180831161060857829003601f168201915b505050505081565b602060405190810160405280600081525090565b828054600181600116156101000203166002900490600052602060002090601f016020900481019282601f1061068257805160ff19168380011785556106b0565b828001600101855582156106b0579182015b828111156106af578251825591602001919060010190610694565b5b5090506106bd91906106fb565b5090565b8154818355818115116106f65760010160029004816001016002900483600052602060002091820191016106f591906106fb565b5b505050565b61071d91905b80821115610719576000816000905550600101610701565b5090565b905600a165627a7a723058202703461b0a374b2846952b22e3ac6f32cdf704a47032ad0a47c6ae03f1baa7b50029",
  "source": "pragma solidity ^0.4.18;\n\ncontract StrategyManager{\n\n    address public owner;\n    bytes15 public name;      //the name of the strategy\n    bytes15[] strategies;\n\n    //mapping(bytes15 => StrategyPublisher) public stratRegistry;\n    mapping(bytes15 => string) public stratRegistry;\n\n    event newRegister(bytes15 name, string stratAddress);\n\n\n    modifier onlyOwner(){\n        require(msg.sender==owner);\n        _;\n    }\n\n    function StrategyManager(bytes15 _managerName){\n      name = _managerName;\n    }\n\n    function registerNewStrategy(string _newAddress, bytes15 _stratName) onlyOwner {\n      //StrategyPublisher newStrat = StrategyPublisher(newStrategy);\n      //stratRegistry[_stratName] = newStrat;\n      stratRegistry[_stratName] = _newAddress;\n      strategies.push(_stratName);\n      newRegister(_stratName, _newAddress);\n    }\n\n    function getAllRegisteredStrategies() public constant returns (bytes15[]) {\n      return(strategies);\n    }\n\n}\n",
  "sourcePath": "/home/sduprey/My_Truffle_Project/Decentralized_Orderbook/contracts/StrategyManager.sol",
  "compiler": {
    "name": "solc",
    "version": "0.4.19+commit.c4cbbb05.Emscripten.clang"
  },
  "schemaVersion": "1.0.1",
  "updatedAt": "2018-04-23T09:28:46.642Z"
}