{
  "contractName": "StrategyCrud",
  "abi": [
    {
      "inputs": [
        {
          "name": "_name",
          "type": "bytes15"
        }
      ],
      "payable": false,
      "stateMutability": "nonpayable",
      "type": "constructor"
    },
    {
      "anonymous": false,
      "inputs": [
        {
          "indexed": true,
          "name": "strategyName",
          "type": "bytes15"
        },
        {
          "indexed": false,
          "name": "index",
          "type": "uint256"
        },
        {
          "indexed": false,
          "name": "strategyAddress",
          "type": "address"
        },
        {
          "indexed": false,
          "name": "strategyCategory",
          "type": "uint256"
        }
      ],
      "name": "LogNewStrategy",
      "type": "event"
    },
    {
      "anonymous": false,
      "inputs": [
        {
          "indexed": true,
          "name": "strategyName",
          "type": "bytes15"
        },
        {
          "indexed": false,
          "name": "index",
          "type": "uint256"
        },
        {
          "indexed": false,
          "name": "strategyAddress",
          "type": "address"
        },
        {
          "indexed": false,
          "name": "strategyCategory",
          "type": "uint256"
        }
      ],
      "name": "LogUpdateStrategy",
      "type": "event"
    },
    {
      "anonymous": false,
      "inputs": [
        {
          "indexed": true,
          "name": "strategyName",
          "type": "bytes15"
        },
        {
          "indexed": false,
          "name": "index",
          "type": "uint256"
        }
      ],
      "name": "LogDeleteStrategy",
      "type": "event"
    },
    {
      "constant": true,
      "inputs": [
        {
          "name": "strategyName",
          "type": "bytes15"
        }
      ],
      "name": "isStrategy",
      "outputs": [
        {
          "name": "isIndeed",
          "type": "bool"
        }
      ],
      "payable": false,
      "stateMutability": "view",
      "type": "function"
    },
    {
      "constant": false,
      "inputs": [
        {
          "name": "strategyName",
          "type": "bytes15"
        },
        {
          "name": "strategyAddress",
          "type": "address"
        },
        {
          "name": "strategyCategory",
          "type": "uint256"
        }
      ],
      "name": "insertStrategy",
      "outputs": [
        {
          "name": "index",
          "type": "uint256"
        }
      ],
      "payable": false,
      "stateMutability": "nonpayable",
      "type": "function"
    },
    {
      "constant": false,
      "inputs": [
        {
          "name": "strategyName",
          "type": "bytes15"
        }
      ],
      "name": "deleteStrategy",
      "outputs": [
        {
          "name": "index",
          "type": "uint256"
        }
      ],
      "payable": false,
      "stateMutability": "nonpayable",
      "type": "function"
    },
    {
      "constant": true,
      "inputs": [
        {
          "name": "strategyName",
          "type": "bytes15"
        }
      ],
      "name": "getStrategy",
      "outputs": [
        {
          "name": "strategyAddress",
          "type": "address"
        },
        {
          "name": "strategyCategory",
          "type": "uint256"
        },
        {
          "name": "index",
          "type": "uint256"
        }
      ],
      "payable": false,
      "stateMutability": "view",
      "type": "function"
    },
    {
      "constant": false,
      "inputs": [
        {
          "name": "strategyName",
          "type": "bytes15"
        },
        {
          "name": "strategyAddress",
          "type": "address"
        }
      ],
      "name": "updateStrategyAddress",
      "outputs": [
        {
          "name": "success",
          "type": "bool"
        }
      ],
      "payable": false,
      "stateMutability": "nonpayable",
      "type": "function"
    },
    {
      "constant": false,
      "inputs": [
        {
          "name": "strategyName",
          "type": "bytes15"
        },
        {
          "name": "strategyCategory",
          "type": "uint256"
        }
      ],
      "name": "updateStrategyCategory",
      "outputs": [
        {
          "name": "success",
          "type": "bool"
        }
      ],
      "payable": false,
      "stateMutability": "nonpayable",
      "type": "function"
    },
    {
      "constant": true,
      "inputs": [],
      "name": "getStrategyCount",
      "outputs": [
        {
          "name": "count",
          "type": "uint256"
        }
      ],
      "payable": false,
      "stateMutability": "view",
      "type": "function"
    },
    {
      "constant": true,
      "inputs": [
        {
          "name": "index",
          "type": "uint256"
        }
      ],
      "name": "getStrategyAtIndex",
      "outputs": [
        {
          "name": "strategyName",
          "type": "bytes15"
        }
      ],
      "payable": false,
      "stateMutability": "view",
      "type": "function"
    }
  ],
  "bytecode": "0x608060405234801561001057600080fd5b506040516020806110fa8339810180604052810190808051906020019092919050505033600160006101000a81548173ffffffffffffffffffffffffffffffffffffffff021916908373ffffffffffffffffffffffffffffffffffffffff160217905550806000806101000a8154816effffffffffffffffffffffffffffff021916908371010000000000000000000000000000000000900402179055505061103c806100be6000396000f30060806040526004361061008e576000357c0100000000000000000000000000000000000000000000000000000000900463ffffffff16806323d2d19b1461009357806331e19cfa1461011257806341d1a4d61461013d5780636977083e146101a6578063b0e572c81461021f578063e0fe4a84146102ae578063e43ba0bd14610311578063edfceace1461036a575b600080fd5b34801561009f57600080fd5b506100fc600480360381019080803570ffffffffffffffffffffffffffffffffff19169060200190929190803573ffffffffffffffffffffffffffffffffffffffff169060200190929190803590602001909291905050506103bf565b6040518082815260200191505060405180910390f35b34801561011e57600080fd5b50610127610677565b6040518082815260200191505060405180910390f35b34801561014957600080fd5b5061016860048036038101908080359060200190929190505050610684565b604051808270ffffffffffffffffffffffffffffffffff191670ffffffffffffffffffffffffffffffffff1916815260200191505060405180910390f35b3480156101b257600080fd5b50610205600480360381019080803570ffffffffffffffffffffffffffffffffff19169060200190929190803573ffffffffffffffffffffffffffffffffffffffff1690602001909291905050506106d0565b604051808215151515815260200191505060405180910390f35b34801561022b57600080fd5b5061025e600480360381019080803570ffffffffffffffffffffffffffffffffff191690602001909291905050506108cd565b604051808473ffffffffffffffffffffffffffffffffffffffff1673ffffffffffffffffffffffffffffffffffffffff168152602001838152602001828152602001935050505060405180910390f35b3480156102ba57600080fd5b506102f7600480360381019080803570ffffffffffffffffffffffffffffffffff19169060200190929190803590602001909291905050506109d0565b604051808215151515815260200191505060405180910390f35b34801561031d57600080fd5b50610350600480360381019080803570ffffffffffffffffffffffffffffffffff19169060200190929190505050610bb3565b604051808215151515815260200191505060405180910390f35b34801561037657600080fd5b506103a9600480360381019080803570ffffffffffffffffffffffffffffffffff19169060200190929190505050610c7e565b6040518082815260200191505060405180910390f35b6000600160009054906101000a900473ffffffffffffffffffffffffffffffffffffffff1673ffffffffffffffffffffffffffffffffffffffff163373ffffffffffffffffffffffffffffffffffffffff1614151561041d57600080fd5b61042684610bb3565b1561043057600080fd5b82600260008670ffffffffffffffffffffffffffffffffff191670ffffffffffffffffffffffffffffffffff1916815260200190815260200160002060000160006101000a81548173ffffffffffffffffffffffffffffffffffffffff021916908373ffffffffffffffffffffffffffffffffffffffff16021790555081600260008670ffffffffffffffffffffffffffffffffff191670ffffffffffffffffffffffffffffffffff19168152602001908152602001600020600101819055506001600385908060018154018082558091505090600182039060005260206000209060029182820401919006600f02909192909190916101000a8154816effffffffffffffffffffffffffffff0219169083710100000000000000000000000000000000009004021790555003600260008670ffffffffffffffffffffffffffffffffff191670ffffffffffffffffffffffffffffffffff19168152602001908152602001600020600201819055508370ffffffffffffffffffffffffffffffffff19167fc6789ad3b9f6ba82bbe3ff2ed4b6b77e4181f62b73e90f00d8682129633cb832600260008770ffffffffffffffffffffffffffffffffff191670ffffffffffffffffffffffffffffffffff19168152602001908152602001600020600201548585604051808481526020018373ffffffffffffffffffffffffffffffffffffffff1673ffffffffffffffffffffffffffffffffffffffff168152602001828152602001935050505060405180910390a260016003805490500390509392505050565b6000600380549050905090565b600060038281548110151561069557fe5b9060005260206000209060029182820401919006600f029054906101000a900471010000000000000000000000000000000000029050919050565b6000600160009054906101000a900473ffffffffffffffffffffffffffffffffffffffff1673ffffffffffffffffffffffffffffffffffffffff163373ffffffffffffffffffffffffffffffffffffffff1614151561072e57600080fd5b61073783610bb3565b151561074257600080fd5b81600260008570ffffffffffffffffffffffffffffffffff191670ffffffffffffffffffffffffffffffffff1916815260200190815260200160002060000160006101000a81548173ffffffffffffffffffffffffffffffffffffffff021916908373ffffffffffffffffffffffffffffffffffffffff1602179055508270ffffffffffffffffffffffffffffffffff19167fa0859cc35205f8d69a0fbea1eef87bd8f02c7d9abf587753cfc719f33e1ec806600260008670ffffffffffffffffffffffffffffffffff191670ffffffffffffffffffffffffffffffffff191681526020019081526020016000206002015484600260008870ffffffffffffffffffffffffffffffffff191670ffffffffffffffffffffffffffffffffff1916815260200190815260200160002060010154604051808481526020018373ffffffffffffffffffffffffffffffffffffffff1673ffffffffffffffffffffffffffffffffffffffff168152602001828152602001935050505060405180910390a26001905092915050565b60008060006108db84610bb3565b15156108e657600080fd5b600260008570ffffffffffffffffffffffffffffffffff191670ffffffffffffffffffffffffffffffffff1916815260200190815260200160002060000160009054906101000a900473ffffffffffffffffffffffffffffffffffffffff16600260008670ffffffffffffffffffffffffffffffffff191670ffffffffffffffffffffffffffffffffff1916815260200190815260200160002060010154600260008770ffffffffffffffffffffffffffffffffff191670ffffffffffffffffffffffffffffffffff19168152602001908152602001600020600201549250925092509193909250565b6000600160009054906101000a900473ffffffffffffffffffffffffffffffffffffffff1673ffffffffffffffffffffffffffffffffffffffff163373ffffffffffffffffffffffffffffffffffffffff16141515610a2e57600080fd5b610a3783610bb3565b1515610a4257600080fd5b81600260008570ffffffffffffffffffffffffffffffffff191670ffffffffffffffffffffffffffffffffff19168152602001908152602001600020600101819055508270ffffffffffffffffffffffffffffffffff19167fa0859cc35205f8d69a0fbea1eef87bd8f02c7d9abf587753cfc719f33e1ec806600260008670ffffffffffffffffffffffffffffffffff191670ffffffffffffffffffffffffffffffffff1916815260200190815260200160002060020154600260008770ffffffffffffffffffffffffffffffffff191670ffffffffffffffffffffffffffffffffff1916815260200190815260200160002060000160009054906101000a900473ffffffffffffffffffffffffffffffffffffffff1685604051808481526020018373ffffffffffffffffffffffffffffffffffffffff1673ffffffffffffffffffffffffffffffffffffffff168152602001828152602001935050505060405180910390a26001905092915050565b6000806003805490501415610bcb5760009050610c79565b8170ffffffffffffffffffffffffffffffffff19166003600260008570ffffffffffffffffffffffffffffffffff191670ffffffffffffffffffffffffffffffffff1916815260200190815260200160002060020154815481101515610c2d57fe5b9060005260206000209060029182820401919006600f029054906101000a9004710100000000000000000000000000000000000270ffffffffffffffffffffffffffffffffff19161490505b919050565b6000806000600160009054906101000a900473ffffffffffffffffffffffffffffffffffffffff1673ffffffffffffffffffffffffffffffffffffffff163373ffffffffffffffffffffffffffffffffffffffff16141515610cdf57600080fd5b610ce884610bb3565b1515610cf357600080fd5b600260008570ffffffffffffffffffffffffffffffffff191670ffffffffffffffffffffffffffffffffff191681526020019081526020016000206002015491506003600160038054905003815481101515610d4b57fe5b9060005260206000209060029182820401919006600f029054906101000a90047101000000000000000000000000000000000002905080600383815481101515610d9157fe5b9060005260206000209060029182820401919006600f026101000a8154816effffffffffffffffffffffffffffff0219169083710100000000000000000000000000000000009004021790555081600260008370ffffffffffffffffffffffffffffffffff191670ffffffffffffffffffffffffffffffffff19168152602001908152602001600020600201819055506003805480919060019003610e369190610fb1565b508370ffffffffffffffffffffffffffffffffff19167fbdf9c388e6a94dcb2d9de55108de5d2abf78575c99ce1de23cbda5a9bcfcfb83836040518082815260200191505060405180910390a28070ffffffffffffffffffffffffffffffffff19167fa0859cc35205f8d69a0fbea1eef87bd8f02c7d9abf587753cfc719f33e1ec80683600260008570ffffffffffffffffffffffffffffffffff191670ffffffffffffffffffffffffffffffffff1916815260200190815260200160002060000160009054906101000a900473ffffffffffffffffffffffffffffffffffffffff16600260008670ffffffffffffffffffffffffffffffffff191670ffffffffffffffffffffffffffffffffff1916815260200190815260200160002060010154604051808481526020018373ffffffffffffffffffffffffffffffffffffffff1673ffffffffffffffffffffffffffffffffffffffff168152602001828152602001935050505060405180910390a28192505050919050565b815481835581811115610fe6576001016002900481600101600290048360005260206000209182019101610fe59190610feb565b5b505050565b61100d91905b80821115611009576000816000905550600101610ff1565b5090565b905600a165627a7a723058206dda110de9f4036677ee0fc5216b0370eb7cfd28c0f1a008d7743cafdddc0f220029",
  "source": "pragma solidity ^0.4.18;\n\ncontract StrategyCrud {\n\n  bytes15 managerName;\n  address owner;\n\n  struct StrategyStruct {\n    address strategyAddress;\n    uint strategyCategory;\n    uint index;\n  }\n\n  mapping(bytes15 => StrategyStruct) private strategyStructs;\n  bytes15[] private strategyIndex;\n\n  event LogNewStrategy   (bytes15 indexed strategyName, uint index, address strategyAddress, uint strategyCategory);\n  event LogUpdateStrategy(bytes15 indexed strategyName, uint index, address strategyAddress, uint strategyCategory);\n  event LogDeleteStrategy(bytes15 indexed strategyName, uint index);\n\n  modifier onlyOwner(){\n      require(msg.sender==owner);\n      _;\n  }\n\n  function StrategyCrud(bytes15 _name){\n      owner = msg.sender;\n      managerName = _name;\n  }\n\n  function isStrategy(bytes15 strategyName)\n    public\n    constant\n    returns(bool isIndeed)\n  {\n    if(strategyIndex.length == 0) return false;\n    return (strategyIndex[strategyStructs[strategyName].index] == strategyName);\n  }\n\n  function insertStrategy(\n    bytes15 strategyName,\n    address strategyAddress,\n    uint    strategyCategory)\n    onlyOwner\n    public\n    returns(uint index)\n  {\n    if(isStrategy(strategyName)) throw;\n    strategyStructs[strategyName].strategyAddress = strategyAddress;\n    strategyStructs[strategyName].strategyCategory   = strategyCategory;\n    strategyStructs[strategyName].index     = strategyIndex.push(strategyName)-1;\n    emit LogNewStrategy(\n        strategyName,\n        strategyStructs[strategyName].index,\n        strategyAddress,\n        strategyCategory);\n    return strategyIndex.length-1;\n  }\n\n  function deleteStrategy(bytes15 strategyName)\n    onlyOwner\n    public\n    returns(uint index)\n  {\n    if(!isStrategy(strategyName)) throw;\n    uint rowToDelete = strategyStructs[strategyName].index;\n    bytes15 keyToMove = strategyIndex[strategyIndex.length-1];\n    strategyIndex[rowToDelete] = keyToMove;\n    strategyStructs[keyToMove].index = rowToDelete;\n    strategyIndex.length--;\n    emit LogDeleteStrategy(\n        strategyName,\n        rowToDelete);\n    emit LogUpdateStrategy(\n        keyToMove,\n        rowToDelete,\n        strategyStructs[keyToMove].strategyAddress,\n        strategyStructs[keyToMove].strategyCategory);\n    return rowToDelete;\n  }\n\n  function getStrategy(bytes15 strategyName)\n    public\n    constant\n    returns(address strategyAddress, uint strategyCategory, uint index)\n  {\n    if(!isStrategy(strategyName)) throw;\n    return(\n      strategyStructs[strategyName].strategyAddress,\n      strategyStructs[strategyName].strategyCategory,\n      strategyStructs[strategyName].index);\n  }\n\n  function updateStrategyAddress(bytes15 strategyName, address strategyAddress)\n    onlyOwner\n    public\n    returns(bool success)\n  {\n    if(!isStrategy(strategyName)) throw;\n    strategyStructs[strategyName].strategyAddress = strategyAddress;\n    emit LogUpdateStrategy(\n      strategyName,\n      strategyStructs[strategyName].index,\n      strategyAddress,\n      strategyStructs[strategyName].strategyCategory);\n    return true;\n  }\n\n  function updateStrategyCategory(bytes15 strategyName, uint strategyCategory)\n    onlyOwner\n    public\n    returns(bool success)\n  {\n    if(!isStrategy(strategyName)) throw;\n    strategyStructs[strategyName].strategyCategory = strategyCategory;\n    emit LogUpdateStrategy(\n      strategyName,\n      strategyStructs[strategyName].index,\n      strategyStructs[strategyName].strategyAddress,\n      strategyCategory);\n    return true;\n  }\n\n  function getStrategyCount()\n    public\n    constant\n    returns(uint count)\n  {\n    return strategyIndex.length;\n  }\n\n  function getStrategyAtIndex(uint index)\n    public\n    constant\n    returns(bytes15 strategyName)\n  {\n    return strategyIndex[index];\n  }\n\n}\n",
  "sourcePath": "/home/sduprey/My_TruffleProjects/Decentralized_Orderbook/contracts/StrategyCRUD.sol",
  "compiler": {
    "name": "solc",
    "version": "0.4.23+commit.124ca40d.Emscripten.clang"
  },
  "schemaVersion": "2.0.0",
  "updatedAt": "2018-05-03T14:59:30.896Z"
}