{
  "contractName": "StrategyManager",
  "abi": [
    {
      "constant": true,
      "inputs": [],
      "name": "name",
      "outputs": [
        {
          "name": "",
          "type": "bytes10"
        }
      ],
      "payable": false,
      "stateMutability": "view",
      "type": "function"
    },
    {
      "constant": true,
      "inputs": [],
      "name": "owner",
      "outputs": [
        {
          "name": "",
          "type": "address"
        }
      ],
      "payable": false,
      "stateMutability": "view",
      "type": "function"
    },
    {
      "inputs": [
        {
          "name": "_managerName",
          "type": "bytes10"
        }
      ],
      "payable": false,
      "stateMutability": "nonpayable",
      "type": "constructor"
    },
    {
      "anonymous": false,
      "inputs": [
        {
          "indexed": false,
          "name": "name",
          "type": "bytes10"
        },
        {
          "indexed": false,
          "name": "stratAddress",
          "type": "address"
        }
      ],
      "name": "newRegister",
      "type": "event"
    },
    {
      "constant": false,
      "inputs": [
        {
          "name": "_newAddress",
          "type": "address"
        },
        {
          "name": "_stratName",
          "type": "bytes10"
        }
      ],
      "name": "registerNewStrategy",
      "outputs": [],
      "payable": false,
      "stateMutability": "nonpayable",
      "type": "function"
    },
    {
      "constant": true,
      "inputs": [],
      "name": "getNumberRegisteredStrategies",
      "outputs": [
        {
          "name": "",
          "type": "uint256"
        }
      ],
      "payable": false,
      "stateMutability": "view",
      "type": "function"
    }
  ],
  "bytecode": "0x6060604052341561000f57600080fd5b6040516020806102f78339810160405280805190602001909190505080600060146101000a81548169ffffffffffffffffffff02191690837601000000000000000000000000000000000000000000009004021790555050610281806100766000396000f300606060405260043610610062576000357c0100000000000000000000000000000000000000000000000000000000900463ffffffff16806306fdde03146100675780630af30038146100c2578063492f6e4f1461011d5780638da5cb5b14610146575b600080fd5b341561007257600080fd5b61007a61019b565b604051808275ffffffffffffffffffffffffffffffffffffffffffff191675ffffffffffffffffffffffffffffffffffffffffffff1916815260200191505060405180910390f35b34156100cd57600080fd5b61011b600480803573ffffffffffffffffffffffffffffffffffffffff1690602001909190803575ffffffffffffffffffffffffffffffffffffffffffff19169060200190919050506101c4565b005b341561012857600080fd5b610130610223565b6040518082815260200191505060405180910390f35b341561015157600080fd5b610159610230565b604051808273ffffffffffffffffffffffffffffffffffffffff1673ffffffffffffffffffffffffffffffffffffffff16815260200191505060405180910390f35b600060149054906101000a90047601000000000000000000000000000000000000000000000281565b6000809054906101000a900473ffffffffffffffffffffffffffffffffffffffff1673ffffffffffffffffffffffffffffffffffffffff163373ffffffffffffffffffffffffffffffffffffffff1614151561021f57600080fd5b5050565b6000600180549050905090565b6000809054906101000a900473ffffffffffffffffffffffffffffffffffffffff16815600a165627a7a723058204e396c0f8cf4e50212b1125ec5ab8c2139cfd4615a71e46d3eab28b0d48944da0029",
  "source": "pragma solidity ^0.4.18;\n\ncontract StrategyManager{\n\n    address public owner;\n    bytes10 public name;      //the name of the strategy\n    bytes10[] strategies;\n\n    //mapping(bytes15 => StrategyPublisher) public stratRegistry;\n    //mapping(bytes10 => address) public stratRegistry;\n\n    event newRegister(bytes10 name, address stratAddress);\n\n\n    modifier onlyOwner(){\n        require(msg.sender==owner);\n        _;\n    }\n\n    function StrategyManager(bytes10 _managerName){\n      name = _managerName;\n    }\n\n    function registerNewStrategy(address _newAddress, bytes10 _stratName) onlyOwner {\n      //stratRegistry[_stratName] = _newAddress;\n      //strategies.push(_stratName);\n      //newRegister(_stratName, _newAddress);\n    }\n\n    function getNumberRegisteredStrategies() public constant returns (uint) {\n      return(strategies.length);\n    }\n\n//    function getStrategyAddress(bytes10 _stratName) public constant returns (address){\n//      address myAddress = stratRegistry[_stratName];\n//      return(myAddress);\n//    }\n\n}\n",
  "sourcePath": "/home/sduprey/My_Truffle_Project/Decentralized_Orderbook/contracts/StrategyManager.sol",
  "compiler": {
    "name": "solc",
    "version": "0.4.19+commit.c4cbbb05.Emscripten.clang"
  },
  "schemaVersion": "1.0.1",
  "updatedAt": "2018-04-23T12:23:26.606Z"
}