{
  "contractName": "StrategyManager",
  "abi": [
    {
      "constant": true,
      "inputs": [],
      "name": "name",
      "outputs": [
        {
          "name": "",
          "type": "bytes15"
        }
      ],
      "payable": false,
      "stateMutability": "view",
      "type": "function"
    },
    {
      "constant": true,
      "inputs": [],
      "name": "owner",
      "outputs": [
        {
          "name": "",
          "type": "address"
        }
      ],
      "payable": false,
      "stateMutability": "view",
      "type": "function"
    },
    {
      "constant": true,
      "inputs": [
        {
          "name": "",
          "type": "bytes15"
        }
      ],
      "name": "stratRegistry",
      "outputs": [
        {
          "name": "",
          "type": "address"
        }
      ],
      "payable": false,
      "stateMutability": "view",
      "type": "function"
    },
    {
      "inputs": [
        {
          "name": "_managerName",
          "type": "bytes15"
        }
      ],
      "payable": false,
      "stateMutability": "nonpayable",
      "type": "constructor"
    },
    {
      "anonymous": false,
      "inputs": [
        {
          "indexed": false,
          "name": "name",
          "type": "bytes15"
        },
        {
          "indexed": false,
          "name": "stratAddress",
          "type": "address"
        }
      ],
      "name": "newRegister",
      "type": "event"
    },
    {
      "constant": false,
      "inputs": [
        {
          "name": "_stratName",
          "type": "bytes15"
        },
        {
          "name": "_newAddress",
          "type": "address"
        }
      ],
      "name": "registerStrategy",
      "outputs": [],
      "payable": false,
      "stateMutability": "nonpayable",
      "type": "function"
    },
    {
      "constant": true,
      "inputs": [],
      "name": "getNumberRegisteredStrategies",
      "outputs": [
        {
          "name": "",
          "type": "uint256"
        }
      ],
      "payable": false,
      "stateMutability": "view",
      "type": "function"
    },
    {
      "constant": true,
      "inputs": [
        {
          "name": "index",
          "type": "uint256"
        }
      ],
      "name": "getRegisteredStrategyName",
      "outputs": [
        {
          "name": "",
          "type": "bytes15"
        }
      ],
      "payable": false,
      "stateMutability": "view",
      "type": "function"
    },
    {
      "constant": true,
      "inputs": [
        {
          "name": "_stratName",
          "type": "bytes15"
        }
      ],
      "name": "getStrategyAddress",
      "outputs": [
        {
          "name": "",
          "type": "address"
        }
      ],
      "payable": false,
      "stateMutability": "view",
      "type": "function"
    },
    {
      "constant": true,
      "inputs": [],
      "name": "getAllStrategies",
      "outputs": [
        {
          "name": "",
          "type": "bytes15[]"
        }
      ],
      "payable": false,
      "stateMutability": "view",
      "type": "function"
    }
  ],
  "bytecode": "0x6060604052341561000f57600080fd5b60405160208061087c8339810160405280805190602001909190505080600160006101000a8154816effffffffffffffffffffffffffffff02191690837101000000000000000000000000000000000090040217905550336000806101000a81548173ffffffffffffffffffffffffffffffffffffffff021916908373ffffffffffffffffffffffffffffffffffffffff160217905550506107c6806100b66000396000f30060606040526004361061008e576000357c0100000000000000000000000000000000000000000000000000000000900463ffffffff16806306fdde0314610093578063492f6e4f146100e45780635454784e1461010d5780638da5cb5b14610163578063a1059df9146101b8578063a3a2ba371461022f578063a500ea011461028e578063c3b2886414610305575b600080fd5b341561009e57600080fd5b6100a661036f565b604051808270ffffffffffffffffffffffffffffffffff191670ffffffffffffffffffffffffffffffffff1916815260200191505060405180910390f35b34156100ef57600080fd5b6100f7610393565b6040518082815260200191505060405180910390f35b341561011857600080fd5b610161600480803570ffffffffffffffffffffffffffffffffff191690602001909190803573ffffffffffffffffffffffffffffffffffffffff169060200190919050506103a0565b005b341561016e57600080fd5b610176610573565b604051808273ffffffffffffffffffffffffffffffffffffffff1673ffffffffffffffffffffffffffffffffffffffff16815260200191505060405180910390f35b34156101c357600080fd5b6101ed600480803570ffffffffffffffffffffffffffffffffff1916906020019091905050610598565b604051808273ffffffffffffffffffffffffffffffffffffffff1673ffffffffffffffffffffffffffffffffffffffff16815260200191505060405180910390f35b341561023a57600080fd5b6102506004808035906020019091905050610602565b604051808270ffffffffffffffffffffffffffffffffff191670ffffffffffffffffffffffffffffffffff1916815260200191505060405180910390f35b341561029957600080fd5b6102c3600480803570ffffffffffffffffffffffffffffffffff191690602001909190505061064e565b604051808273ffffffffffffffffffffffffffffffffffffffff1673ffffffffffffffffffffffffffffffffffffffff16815260200191505060405180910390f35b341561031057600080fd5b610318610681565b6040518080602001828103825283818151815260200191508051906020019060200280838360005b8381101561035b578082015181840152602081019050610340565b505050509050019250505060405180910390f35b600160009054906101000a9004710100000000000000000000000000000000000281565b6000600280549050905090565b6000809054906101000a900473ffffffffffffffffffffffffffffffffffffffff1673ffffffffffffffffffffffffffffffffffffffff163373ffffffffffffffffffffffffffffffffffffffff161415156103fb57600080fd5b80600360008470ffffffffffffffffffffffffffffffffff191670ffffffffffffffffffffffffffffffffff1916815260200190815260200160002060006101000a81548173ffffffffffffffffffffffffffffffffffffffff021916908373ffffffffffffffffffffffffffffffffffffffff160217905550600280548060010182816104899190610727565b9160005260206000209060029182820401919006600f0284909190916101000a8154816effffffffffffffffffffffffffffff02191690837101000000000000000000000000000000000090040217905550507f5d5993c0a5fcf82bfb70a2de95d5d8c47cd95f23db909e81289354d7554dc4aa8282604051808370ffffffffffffffffffffffffffffffffff191670ffffffffffffffffffffffffffffffffff191681526020018273ffffffffffffffffffffffffffffffffffffffff1673ffffffffffffffffffffffffffffffffffffffff1681526020019250505060405180910390a15050565b6000809054906101000a900473ffffffffffffffffffffffffffffffffffffffff1681565b600080600360008470ffffffffffffffffffffffffffffffffff191670ffffffffffffffffffffffffffffffffff1916815260200190815260200160002060009054906101000a900473ffffffffffffffffffffffffffffffffffffffff16905080915050919050565b600060028281548110151561061357fe5b9060005260206000209060029182820401919006600f029054906101000a900471010000000000000000000000000000000000029050919050565b60036020528060005260406000206000915054906101000a900473ffffffffffffffffffffffffffffffffffffffff1681565b610689610761565b600280548060200260200160405190810160405280929190818152602001828054801561071d57602002820191906000526020600020906000905b82829054906101000a9004710100000000000000000000000000000000000270ffffffffffffffffffffffffffffffffff1916815260200190600f0190602082600e010492830192600103820291508084116106c45790505b5050505050905090565b81548183558181151161075c57600101600290048160010160029004836000526020600020918201910161075b9190610775565b5b505050565b602060405190810160405280600081525090565b61079791905b8082111561079357600081600090555060010161077b565b5090565b905600a165627a7a72305820ce108830fe70d640b6da79fc12bfa2eb9bb4e5133b97bfc14abf6161ed7cf0770029",
  "source": "pragma solidity ^0.4.18;\n\ncontract StrategyManager{\n\n    address public owner;\n    bytes15 public name;      //the name of the strategy\n    bytes15[] strategies;\n\n    //mapping(string => StrategyPublisher) public stratRegistry;\n    //mapping(bytes15 => StrategyPublisher) public stratRegistry;\n    mapping(bytes15 => address) public stratRegistry;\n\n    event newRegister(bytes15 name, address stratAddress);\n\n    modifier onlyOwner(){\n        require(msg.sender==owner);\n        _;\n    }\n\n    function StrategyManager(bytes15 _managerName){\n      name = _managerName;\n      owner = msg.sender;\n    }\n\n    function registerStrategy(bytes15 _stratName,address _newAddress) onlyOwner {\n      //stratRegistry[_newAddress] = _stratName;\n      stratRegistry[_stratName] = _newAddress;\n      strategies.push(_stratName);\n      newRegister(_stratName, _newAddress);\n    }\n\n    function getNumberRegisteredStrategies() public constant returns (uint) {\n      return(strategies.length);\n    }\n\n    function getRegisteredStrategyName(uint index) public constant returns (bytes15) {\n      return(strategies[index]);\n    }\n\n    function getStrategyAddress(bytes15 _stratName) public constant returns (address){\n      address _stratAddress = stratRegistry[_stratName];\n      return(_stratAddress);\n    }\n\n    function getAllStrategies() public constant returns(bytes15[]){\n      return(strategies);\n    }\n\n}\n",
  "sourcePath": "/home/sduprey/My_Truffle_Project/Decentralized_Orderbook/contracts/StrategyManager.sol",
  "compiler": {
    "name": "solc",
    "version": "0.4.19+commit.c4cbbb05.Emscripten.clang"
  },
  "schemaVersion": "1.0.1",
  "updatedAt": "2018-04-23T15:49:03.090Z"
}