{
  "contractName": "StrategyCrud",
  "abi": [
    {
      "anonymous": false,
      "inputs": [
        {
          "indexed": true,
          "name": "strategyName",
          "type": "bytes15"
        },
        {
          "indexed": false,
          "name": "index",
          "type": "uint256"
        },
        {
          "indexed": false,
          "name": "strategyAddress",
          "type": "address"
        },
        {
          "indexed": false,
          "name": "strategyCategory",
          "type": "uint256"
        }
      ],
      "name": "LogNewUser",
      "type": "event"
    },
    {
      "anonymous": false,
      "inputs": [
        {
          "indexed": true,
          "name": "strategyName",
          "type": "bytes15"
        },
        {
          "indexed": false,
          "name": "index",
          "type": "uint256"
        },
        {
          "indexed": false,
          "name": "strategyAddress",
          "type": "address"
        },
        {
          "indexed": false,
          "name": "strategyCategory",
          "type": "uint256"
        }
      ],
      "name": "LogUpdateUser",
      "type": "event"
    },
    {
      "anonymous": false,
      "inputs": [
        {
          "indexed": true,
          "name": "strategyName",
          "type": "bytes15"
        },
        {
          "indexed": false,
          "name": "index",
          "type": "uint256"
        }
      ],
      "name": "LogDeleteUser",
      "type": "event"
    },
    {
      "constant": true,
      "inputs": [
        {
          "name": "strategyName",
          "type": "bytes15"
        }
      ],
      "name": "isStrategy",
      "outputs": [
        {
          "name": "isIndeed",
          "type": "bool"
        }
      ],
      "payable": false,
      "stateMutability": "view",
      "type": "function"
    },
    {
      "constant": false,
      "inputs": [
        {
          "name": "strategyName",
          "type": "bytes15"
        },
        {
          "name": "strategyAddress",
          "type": "address"
        },
        {
          "name": "strategyCategory",
          "type": "uint256"
        }
      ],
      "name": "insertStrategy",
      "outputs": [
        {
          "name": "index",
          "type": "uint256"
        }
      ],
      "payable": false,
      "stateMutability": "nonpayable",
      "type": "function"
    },
    {
      "constant": false,
      "inputs": [
        {
          "name": "strategyName",
          "type": "bytes15"
        }
      ],
      "name": "deleteUser",
      "outputs": [
        {
          "name": "index",
          "type": "uint256"
        }
      ],
      "payable": false,
      "stateMutability": "nonpayable",
      "type": "function"
    },
    {
      "constant": true,
      "inputs": [
        {
          "name": "strategyName",
          "type": "bytes15"
        }
      ],
      "name": "getStrategy",
      "outputs": [
        {
          "name": "strategyAddress",
          "type": "address"
        },
        {
          "name": "strategyCategory",
          "type": "uint256"
        },
        {
          "name": "index",
          "type": "uint256"
        }
      ],
      "payable": false,
      "stateMutability": "view",
      "type": "function"
    },
    {
      "constant": false,
      "inputs": [
        {
          "name": "strategyName",
          "type": "bytes15"
        },
        {
          "name": "strategyAddress",
          "type": "address"
        }
      ],
      "name": "updateStrategyAddress",
      "outputs": [
        {
          "name": "success",
          "type": "bool"
        }
      ],
      "payable": false,
      "stateMutability": "nonpayable",
      "type": "function"
    },
    {
      "constant": false,
      "inputs": [
        {
          "name": "strategyName",
          "type": "bytes15"
        },
        {
          "name": "strategyCategory",
          "type": "uint256"
        }
      ],
      "name": "updateStrategyCategory",
      "outputs": [
        {
          "name": "success",
          "type": "bool"
        }
      ],
      "payable": false,
      "stateMutability": "nonpayable",
      "type": "function"
    },
    {
      "constant": true,
      "inputs": [],
      "name": "getStrategyCount",
      "outputs": [
        {
          "name": "count",
          "type": "uint256"
        }
      ],
      "payable": false,
      "stateMutability": "view",
      "type": "function"
    },
    {
      "constant": true,
      "inputs": [
        {
          "name": "index",
          "type": "uint256"
        }
      ],
      "name": "getStrategyAtIndex",
      "outputs": [
        {
          "name": "strategyName",
          "type": "bytes15"
        }
      ],
      "payable": false,
      "stateMutability": "view",
      "type": "function"
    }
  ],
  "bytecode": "0x6060604052341561000f57600080fd5b610ea08061001e6000396000f30060606040526004361061008e576000357c0100000000000000000000000000000000000000000000000000000000900463ffffffff16806323d2d19b1461009357806331e19cfa1461010657806341d1a4d61461012f5780636977083e1461018e5780637f593551146101fc578063b0e572c814610247578063e0fe4a84146102cc578063e43ba0bd14610324575b600080fd5b341561009e57600080fd5b6100f0600480803570ffffffffffffffffffffffffffffffffff191690602001909190803573ffffffffffffffffffffffffffffffffffffffff16906020019091908035906020019091905050610373565b6040518082815260200191505060405180910390f35b341561011157600080fd5b6101196105c5565b6040518082815260200191505060405180910390f35b341561013a57600080fd5b61015060048080359060200190919050506105d2565b604051808270ffffffffffffffffffffffffffffffffff191670ffffffffffffffffffffffffffffffffff1916815260200191505060405180910390f35b341561019957600080fd5b6101e2600480803570ffffffffffffffffffffffffffffffffff191690602001909190803573ffffffffffffffffffffffffffffffffffffffff1690602001909190505061061e565b604051808215151515815260200191505060405180910390f35b341561020757600080fd5b610231600480803570ffffffffffffffffffffffffffffffffff19169060200190919050506107bc565b6040518082815260200191505060405180910390f35b341561025257600080fd5b61027c600480803570ffffffffffffffffffffffffffffffffff1916906020019091905050610a8d565b604051808473ffffffffffffffffffffffffffffffffffffffff1673ffffffffffffffffffffffffffffffffffffffff168152602001838152602001828152602001935050505060405180910390f35b34156102d757600080fd5b61030a600480803570ffffffffffffffffffffffffffffffffff1916906020019091908035906020019091905050610b8d565b604051808215151515815260200191505060405180910390f35b341561032f57600080fd5b610359600480803570ffffffffffffffffffffffffffffffffff1916906020019091905050610d11565b604051808215151515815260200191505060405180910390f35b600061037e84610d11565b1561038857600080fd5b826000808670ffffffffffffffffffffffffffffffffff191670ffffffffffffffffffffffffffffffffff1916815260200190815260200160002060000160006101000a81548173ffffffffffffffffffffffffffffffffffffffff021916908373ffffffffffffffffffffffffffffffffffffffff160217905550816000808670ffffffffffffffffffffffffffffffffff191670ffffffffffffffffffffffffffffffffff1916815260200190815260200160002060010181905550600180805480600101828161045b9190610ddb565b9160005260206000209060029182820401919006600f0287909190916101000a8154816effffffffffffffffffffffffffffff02191690837101000000000000000000000000000000000090040217905550036000808670ffffffffffffffffffffffffffffffffff191670ffffffffffffffffffffffffffffffffff19168152602001908152602001600020600201819055508370ffffffffffffffffffffffffffffffffff19167f792c53cd899c64c132d2ed56280a7a33920b2980e9145ca612af0b0fa95c90826000808770ffffffffffffffffffffffffffffffffff191670ffffffffffffffffffffffffffffffffff19168152602001908152602001600020600201548585604051808481526020018373ffffffffffffffffffffffffffffffffffffffff1673ffffffffffffffffffffffffffffffffffffffff168152602001828152602001935050505060405180910390a2600180805490500390509392505050565b6000600180549050905090565b60006001828154811015156105e357fe5b9060005260206000209060029182820401919006600f029054906101000a900471010000000000000000000000000000000000029050919050565b600061062983610d11565b151561063457600080fd5b816000808570ffffffffffffffffffffffffffffffffff191670ffffffffffffffffffffffffffffffffff1916815260200190815260200160002060000160006101000a81548173ffffffffffffffffffffffffffffffffffffffff021916908373ffffffffffffffffffffffffffffffffffffffff1602179055508270ffffffffffffffffffffffffffffffffff19167f8ff6b31791edecbac8ba00a31cfd742bb5456ccf8c61992d8703821797c1e7586000808670ffffffffffffffffffffffffffffffffff191670ffffffffffffffffffffffffffffffffff1916815260200190815260200160002060020154846000808870ffffffffffffffffffffffffffffffffff191670ffffffffffffffffffffffffffffffffff1916815260200190815260200160002060010154604051808481526020018373ffffffffffffffffffffffffffffffffffffffff1673ffffffffffffffffffffffffffffffffffffffff168152602001828152602001935050505060405180910390a26001905092915050565b60008060006107ca84610d11565b15156107d557600080fd5b6000808570ffffffffffffffffffffffffffffffffff191670ffffffffffffffffffffffffffffffffff1916815260200190815260200160002060020154915060018080805490500381548110151561082a57fe5b9060005260206000209060029182820401919006600f029054906101000a9004710100000000000000000000000000000000000290508060018381548110151561087057fe5b9060005260206000209060029182820401919006600f026101000a8154816effffffffffffffffffffffffffffff02191690837101000000000000000000000000000000000090040217905550816000808370ffffffffffffffffffffffffffffffffff191670ffffffffffffffffffffffffffffffffff191681526020019081526020016000206002018190555060018054809190600190036109149190610e15565b508370ffffffffffffffffffffffffffffffffff19167fde237a6c586f986aa847c5115853251b1c65da456d64c7e462cfdb15de5c7c53836040518082815260200191505060405180910390a28070ffffffffffffffffffffffffffffffffff19167f8ff6b31791edecbac8ba00a31cfd742bb5456ccf8c61992d8703821797c1e758836000808570ffffffffffffffffffffffffffffffffff191670ffffffffffffffffffffffffffffffffff1916815260200190815260200160002060000160009054906101000a900473ffffffffffffffffffffffffffffffffffffffff166000808670ffffffffffffffffffffffffffffffffff191670ffffffffffffffffffffffffffffffffff1916815260200190815260200160002060010154604051808481526020018373ffffffffffffffffffffffffffffffffffffffff1673ffffffffffffffffffffffffffffffffffffffff168152602001828152602001935050505060405180910390a28192505050919050565b6000806000610a9b84610d11565b1515610aa657600080fd5b6000808570ffffffffffffffffffffffffffffffffff191670ffffffffffffffffffffffffffffffffff1916815260200190815260200160002060000160009054906101000a900473ffffffffffffffffffffffffffffffffffffffff166000808670ffffffffffffffffffffffffffffffffff191670ffffffffffffffffffffffffffffffffff19168152602001908152602001600020600101546000808770ffffffffffffffffffffffffffffffffff191670ffffffffffffffffffffffffffffffffff19168152602001908152602001600020600201549250925092509193909250565b6000610b9883610d11565b1515610ba357600080fd5b816000808570ffffffffffffffffffffffffffffffffff191670ffffffffffffffffffffffffffffffffff19168152602001908152602001600020600101819055508270ffffffffffffffffffffffffffffffffff19167f8ff6b31791edecbac8ba00a31cfd742bb5456ccf8c61992d8703821797c1e7586000808670ffffffffffffffffffffffffffffffffff191670ffffffffffffffffffffffffffffffffff19168152602001908152602001600020600201546000808770ffffffffffffffffffffffffffffffffff191670ffffffffffffffffffffffffffffffffff1916815260200190815260200160002060000160009054906101000a900473ffffffffffffffffffffffffffffffffffffffff1685604051808481526020018373ffffffffffffffffffffffffffffffffffffffff1673ffffffffffffffffffffffffffffffffffffffff168152602001828152602001935050505060405180910390a26001905092915050565b6000806001805490501415610d295760009050610dd6565b8170ffffffffffffffffffffffffffffffffff191660016000808570ffffffffffffffffffffffffffffffffff191670ffffffffffffffffffffffffffffffffff1916815260200190815260200160002060020154815481101515610d8a57fe5b9060005260206000209060029182820401919006600f029054906101000a9004710100000000000000000000000000000000000270ffffffffffffffffffffffffffffffffff19161490505b919050565b815481835581811511610e10576001016002900481600101600290048360005260206000209182019101610e0f9190610e4f565b5b505050565b815481835581811511610e4a576001016002900481600101600290048360005260206000209182019101610e499190610e4f565b5b505050565b610e7191905b80821115610e6d576000816000905550600101610e55565b5090565b905600a165627a7a723058202deecceb3336912d0518507525e87a5bfe4a06e56f55368d02d3a47dc8ea333d0029",
  "source": "pragma solidity ^0.4.6;\n\ncontract StrategyCrud {\n\n  struct StrategyStruct {\n    address strategyAddress;\n    uint strategyCategory;\n    uint index;\n  }\n\n  mapping(bytes15 => StrategyStruct) private strategyStructs;\n  bytes15[] private strategyIndex;\n\n  event LogNewUser   (bytes15 indexed strategyName, uint index, address strategyAddress, uint strategyCategory);\n  event LogUpdateUser(bytes15 indexed strategyName, uint index, address strategyAddress, uint strategyCategory);\n  event LogDeleteUser(bytes15 indexed strategyName, uint index);\n\n  function isStrategy(bytes15 strategyName)\n    public\n    constant\n    returns(bool isIndeed)\n  {\n    if(strategyIndex.length == 0) return false;\n    return (strategyIndex[strategyStructs[strategyName].index] == strategyName);\n  }\n\n  function insertStrategy(\n    bytes15 strategyName,\n    address strategyAddress,\n    uint    strategyCategory)\n    public\n    returns(uint index)\n  {\n    if(isStrategy(strategyName)) throw;\n    strategyStructs[strategyName].strategyAddress = strategyAddress;\n    strategyStructs[strategyName].strategyCategory   = strategyCategory;\n    strategyStructs[strategyName].index     = strategyIndex.push(strategyName)-1;\n    LogNewUser(\n        strategyName,\n        strategyStructs[strategyName].index,\n        strategyAddress,\n        strategyCategory);\n    return strategyIndex.length-1;\n  }\n\n  function deleteUser(bytes15 strategyName)\n    public\n    returns(uint index)\n  {\n    if(!isStrategy(strategyName)) throw;\n    uint rowToDelete = strategyStructs[strategyName].index;\n    bytes15 keyToMove = strategyIndex[strategyIndex.length-1];\n    strategyIndex[rowToDelete] = keyToMove;\n    strategyStructs[keyToMove].index = rowToDelete;\n    strategyIndex.length--;\n    LogDeleteUser(\n        strategyName,\n        rowToDelete);\n    LogUpdateUser(\n        keyToMove,\n        rowToDelete,\n        strategyStructs[keyToMove].strategyAddress,\n        strategyStructs[keyToMove].strategyCategory);\n    return rowToDelete;\n  }\n\n  function getStrategy(bytes15 strategyName)\n    public\n    constant\n    returns(address strategyAddress, uint strategyCategory, uint index)\n  {\n    if(!isStrategy(strategyName)) throw;\n    return(\n      strategyStructs[strategyName].strategyAddress,\n      strategyStructs[strategyName].strategyCategory,\n      strategyStructs[strategyName].index);\n  }\n\n  function updateStrategyAddress(bytes15 strategyName, address strategyAddress)\n    public\n    returns(bool success)\n  {\n    if(!isStrategy(strategyName)) throw;\n    strategyStructs[strategyName].strategyAddress = strategyAddress;\n    LogUpdateUser(\n      strategyName,\n      strategyStructs[strategyName].index,\n      strategyAddress,\n      strategyStructs[strategyName].strategyCategory);\n    return true;\n  }\n\n  function updateStrategyCategory(bytes15 strategyName, uint strategyCategory)\n    public\n    returns(bool success)\n  {\n    if(!isStrategy(strategyName)) throw;\n    strategyStructs[strategyName].strategyCategory = strategyCategory;\n    LogUpdateUser(\n      strategyName,\n      strategyStructs[strategyName].index,\n      strategyStructs[strategyName].strategyAddress,\n      strategyCategory);\n    return true;\n  }\n\n  function getStrategyCount()\n    public\n    constant\n    returns(uint count)\n  {\n    return strategyIndex.length;\n  }\n\n  function getStrategyAtIndex(uint index)\n    public\n    constant\n    returns(bytes15 strategyName)\n  {\n    return strategyIndex[index];\n  }\n\n}\n",
  "sourcePath": "/home/sduprey/My_Truffle_Project/Decentralized_Orderbook/contracts/StrategyCRUD.sol",
  "compiler": {
    "name": "solc",
    "version": "0.4.19+commit.c4cbbb05.Emscripten.clang"
  },
  "schemaVersion": "1.0.1",
  "updatedAt": "2018-04-23T15:34:10.042Z"
}