{
  "contractName": "StrategyManager",
  "abi": [
    {
      "constant": true,
      "inputs": [],
      "name": "name",
      "outputs": [
        {
          "name": "",
          "type": "bytes15"
        }
      ],
      "payable": false,
      "stateMutability": "view",
      "type": "function"
    },
    {
      "constant": true,
      "inputs": [],
      "name": "owner",
      "outputs": [
        {
          "name": "",
          "type": "address"
        }
      ],
      "payable": false,
      "stateMutability": "view",
      "type": "function"
    },
    {
      "constant": true,
      "inputs": [
        {
          "name": "",
          "type": "bytes15"
        }
      ],
      "name": "stratRegistry",
      "outputs": [
        {
          "name": "",
          "type": "address"
        }
      ],
      "payable": false,
      "stateMutability": "view",
      "type": "function"
    },
    {
      "inputs": [
        {
          "name": "_managerName",
          "type": "bytes15"
        }
      ],
      "payable": false,
      "stateMutability": "nonpayable",
      "type": "constructor"
    },
    {
      "anonymous": false,
      "inputs": [
        {
          "indexed": false,
          "name": "name",
          "type": "bytes15"
        },
        {
          "indexed": false,
          "name": "stratAddress",
          "type": "address"
        }
      ],
      "name": "newRegister",
      "type": "event"
    },
    {
      "constant": false,
      "inputs": [
        {
          "name": "_stratName",
          "type": "bytes15"
        },
        {
          "name": "_newAddress",
          "type": "address"
        }
      ],
      "name": "registerStrategy",
      "outputs": [],
      "payable": false,
      "stateMutability": "nonpayable",
      "type": "function"
    },
    {
      "constant": true,
      "inputs": [],
      "name": "getNumberRegisteredStrategies",
      "outputs": [
        {
          "name": "",
          "type": "uint256"
        }
      ],
      "payable": false,
      "stateMutability": "view",
      "type": "function"
    },
    {
      "constant": true,
      "inputs": [
        {
          "name": "index",
          "type": "uint256"
        }
      ],
      "name": "getRegisteredStrategyName",
      "outputs": [
        {
          "name": "",
          "type": "bytes15"
        }
      ],
      "payable": false,
      "stateMutability": "view",
      "type": "function"
    },
    {
      "constant": true,
      "inputs": [
        {
          "name": "_stratName",
          "type": "bytes15"
        }
      ],
      "name": "getStrategyAddress",
      "outputs": [
        {
          "name": "",
          "type": "address"
        }
      ],
      "payable": false,
      "stateMutability": "view",
      "type": "function"
    },
    {
      "constant": true,
      "inputs": [],
      "name": "getAllStrategies",
      "outputs": [
        {
          "name": "",
          "type": "bytes15[]"
        }
      ],
      "payable": false,
      "stateMutability": "view",
      "type": "function"
    }
  ],
  "bytecode": "0x608060405234801561001057600080fd5b506040516020806108408339810180604052810190808051906020019092919050505080600160006101000a8154816effffffffffffffffffffffffffffff02191690837101000000000000000000000000000000000090040217905550336000806101000a81548173ffffffffffffffffffffffffffffffffffffffff021916908373ffffffffffffffffffffffffffffffffffffffff16021790555050610782806100be6000396000f30060806040526004361061008e576000357c0100000000000000000000000000000000000000000000000000000000900463ffffffff16806306fdde0314610093578063492f6e4f146100e65780635454784e146101115780638da5cb5b14610172578063a1059df9146101c9578063a3a2ba371461024a578063a500ea01146102b3578063c3b2886414610334575b600080fd5b34801561009f57600080fd5b506100a86103a0565b604051808270ffffffffffffffffffffffffffffffffff191670ffffffffffffffffffffffffffffffffff1916815260200191505060405180910390f35b3480156100f257600080fd5b506100fb6103c4565b6040518082815260200191505060405180910390f35b34801561011d57600080fd5b50610170600480360381019080803570ffffffffffffffffffffffffffffffffff19169060200190929190803573ffffffffffffffffffffffffffffffffffffffff1690602001909291905050506103d1565b005b34801561017e57600080fd5b506101876105a8565b604051808273ffffffffffffffffffffffffffffffffffffffff1673ffffffffffffffffffffffffffffffffffffffff16815260200191505060405180910390f35b3480156101d557600080fd5b50610208600480360381019080803570ffffffffffffffffffffffffffffffffff191690602001909291905050506105cd565b604051808273ffffffffffffffffffffffffffffffffffffffff1673ffffffffffffffffffffffffffffffffffffffff16815260200191505060405180910390f35b34801561025657600080fd5b5061027560048036038101908080359060200190929190505050610637565b604051808270ffffffffffffffffffffffffffffffffff191670ffffffffffffffffffffffffffffffffff1916815260200191505060405180910390f35b3480156102bf57600080fd5b506102f2600480360381019080803570ffffffffffffffffffffffffffffffffff19169060200190929190505050610683565b604051808273ffffffffffffffffffffffffffffffffffffffff1673ffffffffffffffffffffffffffffffffffffffff16815260200191505060405180910390f35b34801561034057600080fd5b506103496106b6565b6040518080602001828103825283818151815260200191508051906020019060200280838360005b8381101561038c578082015181840152602081019050610371565b505050509050019250505060405180910390f35b600160009054906101000a9004710100000000000000000000000000000000000281565b6000600280549050905090565b6000809054906101000a900473ffffffffffffffffffffffffffffffffffffffff1673ffffffffffffffffffffffffffffffffffffffff163373ffffffffffffffffffffffffffffffffffffffff1614151561042c57600080fd5b80600360008470ffffffffffffffffffffffffffffffffff191670ffffffffffffffffffffffffffffffffff1916815260200190815260200160002060006101000a81548173ffffffffffffffffffffffffffffffffffffffff021916908373ffffffffffffffffffffffffffffffffffffffff160217905550600282908060018154018082558091505090600182039060005260206000209060029182820401919006600f02909192909190916101000a8154816effffffffffffffffffffffffffffff02191690837101000000000000000000000000000000000090040217905550507f5d5993c0a5fcf82bfb70a2de95d5d8c47cd95f23db909e81289354d7554dc4aa8282604051808370ffffffffffffffffffffffffffffffffff191670ffffffffffffffffffffffffffffffffff191681526020018273ffffffffffffffffffffffffffffffffffffffff1673ffffffffffffffffffffffffffffffffffffffff1681526020019250505060405180910390a15050565b6000809054906101000a900473ffffffffffffffffffffffffffffffffffffffff1681565b600080600360008470ffffffffffffffffffffffffffffffffff191670ffffffffffffffffffffffffffffffffff1916815260200190815260200160002060009054906101000a900473ffffffffffffffffffffffffffffffffffffffff16905080915050919050565b600060028281548110151561064857fe5b9060005260206000209060029182820401919006600f029054906101000a900471010000000000000000000000000000000000029050919050565b60036020528060005260406000206000915054906101000a900473ffffffffffffffffffffffffffffffffffffffff1681565b6060600280548060200260200160405190810160405280929190818152602001828054801561074c57602002820191906000526020600020906000905b82829054906101000a9004710100000000000000000000000000000000000270ffffffffffffffffffffffffffffffffff1916815260200190600f0190602082600e010492830192600103820291508084116106f35790505b50505050509050905600a165627a7a72305820a7080df85c3c0b8f01623fc9b4c1cff2abbbc255024df7bc334092bc70b470960029",
  "source": "pragma solidity ^0.4.18;\n\ncontract StrategyManager{\n\n    address public owner;\n    bytes15 public name;      //the name of the strategy\n    bytes15[] strategies;\n\n    //mapping(string => StrategyPublisher) public stratRegistry;\n    //mapping(bytes15 => StrategyPublisher) public stratRegistry;\n    mapping(bytes15 => address) public stratRegistry;\n\n    event newRegister(bytes15 name, address stratAddress);\n\n    modifier onlyOwner(){\n        require(msg.sender==owner);\n        _;\n    }\n\n    function StrategyManager(bytes15 _managerName){\n      name = _managerName;\n      owner = msg.sender;\n    }\n\n    function registerStrategy(bytes15 _stratName,address _newAddress) onlyOwner {\n      //stratRegistry[_newAddress] = _stratName;\n      stratRegistry[_stratName] = _newAddress;\n      strategies.push(_stratName);\n      emit newRegister(_stratName, _newAddress);\n    }\n\n    function getNumberRegisteredStrategies() public constant returns (uint) {\n      return(strategies.length);\n    }\n\n    function getRegisteredStrategyName(uint index) public constant returns (bytes15) {\n      return(strategies[index]);\n    }\n\n    function getStrategyAddress(bytes15 _stratName) public constant returns (address){\n      address _stratAddress = stratRegistry[_stratName];\n      return(_stratAddress);\n    }\n\n    function getAllStrategies() public constant returns(bytes15[]){\n      return(strategies);\n    }\n\n}\n",
  "sourcePath": "/home/sduprey/My_TruffleProjects/Decentralized_Orderbook/contracts/StrategyManager.sol",
  "compiler": {
    "name": "solc",
    "version": "0.4.23+commit.124ca40d.Emscripten.clang"
  },
  "schemaVersion": "2.0.0",
  "updatedAt": "2018-05-02T07:48:41.261Z"
}